:020000040800F2
:1000000058D2002055020008D51A0008031A00082B
:10001000D11A00087D030008B1210008000000008B
:100020000000000000000000000000009D0100082A
:100030007104000800000000F1010008951C000890
:100040006F0200086F0200086F0200086F020008CC
:100050006F0200086F0200086F0200086F020008BC
:100060006F0200086F0200086F0200086F020008AC
:100070006F0200086F0200086F0200086F0200089C
:100080006F0200086F0200086F0200086F0200088C
:100090006F0200086F0200086F0200086F0200087C
:1000A0006F0200086F0200086F0200086F0200086C
:1000B0006F0200086F0200086F0200086F0200085C
:1000C0006F0200086F0200086F0200086F0200084C
:1000D0006F020008E92000086F02000815210008DF
:1000E0006F0200086F0200086F0200086F0200082C
:1000F0006F0200086F0200086F0200086F0200081C
:100100006F0200086F0200086F0200086F0200080B
:100110006F0200086F0200086F0200086F020008FB
:100120006F0200086F0200086F0200086F020008EB
:100130006F020008810600086F0200086F020008C5
:100140006F0200086F0200086F0200086F020008CB
:100150006F0200086F0200086F0200086F020008BB
:100160006F0200086F0200086F0200086F020008AB
:100170006F0200086F0200086F0200080000000014
:100180006F0200086F020008DFF80CD000F0C4F81E
:10019000004800474127000858D200202A4B196820
:1001A0000868B0E8F04F80F30988BFF36F8F4FF015
:1001B000000080F3118870470000000006480068C6
:1001C000006880F3088862B661B6BFF34F8FBFF353
:1001D0006F8F00DF00BF00BF08ED00E0DFF80C000C
:1001E000016841F470010160704700BF88ED00E0D4
:1001F000EFF30980BFF36F8F134B1A681EF0100FD7
:1002000008BF20ED108A20E9F04F106008B44FF0CD
:10021000500080F31188BFF34F8FBFF36F8F03F04F
:100220000DF94FF0000080F3118808BC19680868C8
:10023000B0E8F04F1EF0100F08BFB0EC108A80F34A
:100240000988BFF36F8F704774000020EFF30580BB
:10025000704700000648804706480047FEE7FEE773
:10026000FEE7FEE7FEE7FEE7FEE7FEE7FEE7FEE766
:10027000A91D0008890100082DE9F05F054600204E
:1002800092469B4688460646814640241BE0284607
:1002900041464746224600F02FF853465A46C01AB8
:1002A000914110D311461846224600F016F82D1A37
:1002B00067EB01084F4622460120002100F00DF8AF
:1002C00017EB00094E41201EA4F10104DFDC484673
:1002D00031462A464346BDE8F09F202A04DB203AF7
:1002E00000FA02F1002070479140C2F1200320FA89
:1002F00003F3194390407047202A04DB203A21FA87
:1003000002F00021704721FA02F3D040C2F120022E
:100310009140084319467047064C074D06E0E068D7
:1003200040F0010394E8070098471034AC42F6D33C
:10033000FFF72EFFA03B0008C03B000800F500714E
:10034000C0F80812C0F80002C0F804020021C0F88A
:100350000C127047D0F80C12491CC0F80C127047F0
:10036000F0B507460D461646002404E0295D3846E0
:1003700003F0C0F8641CB442F8D3F0BD00BFFEE740
:1003800086B000200090012002900390022004908B
:1003900062E0012002F020FF3048D0F80C020A2869
:1003A0005AD32F492D4802F061F9002854D02C4827
:1003B00000884AF2CD5188424ED1294802F0A4F873
:1003C000012847D000F03EFC26480068B0F1AA3F63
:1003D0000ED100BF05A9684600F08CFB0028F9D0BB
:1003E0004FF0AA3200231F49022000F0E3FB12E085
:1003F0001C480068B0F1553F0DD100BF05A9684603
:1004000000F078FB0028F9D14FF055320023154950
:10041000022000F0CFFB4FF0AA3200231149091D42
:10042000022000F0C7FB00F0BBFB0A2002F0D4FE64
:1004300000BFBFF34F8F0C48006800F4E0600B4929
:100440000843001D08490860BFF34F8F00BF00BF7D
:1004500000BFFDE701F03FFB9BE70000BC00002070
:10046000CC020020004000080CED00E00000FA057E
:100470007047000010B500F027F80122D1030448AE
:1004800000F0F4FC01220421024800F0EFFC10BD52
:1004900000180240001002402DE9F04104460D46CC
:1004A0002646002702E0761C781CC7B23078002868
:1004B000F9D12B463A462146024801F043FABDE8FD
:1004C000F0810000A403002000B587B000BF002029
:1004D00001901848006840F010001649086008466E
:1004E000006800F01000019000BF00BF00BF0020B6
:1004F00001900846006840F0400008600846006827
:1005000000F04000019000BF00BF042002900120D5
:10051000039004900220059002A9074800F0ACFB6C
:100520004FF40040029002A9044800F0A5FB07B078
:1005300000BD0000303802400010024000180240A8
:1005400010B54FF47A7002F047FE322124A0FFF775
:10055000A3FF642002F040FE322123A0FFF79CFF9E
:10056000642002F039FE322123A0FFF795FF4FF4FB
:100570007A7002F031FE4FF47A7122A0FFF78CFFFF
:1005800042F2107002F028FE322126A0FFF784FF0D
:100590004FF4FA7002F020FE322125A0FFF77CFF15
:1005A000642002F019FE4FF47A7125A0FFF774FF62
:1005B00040F6B83002F010FE32212BA0FFF76CFF9E
:1005C0004FF4FA7002F008FE32212BA0FFF764FF0F
:1005D000642002F001FE002002F040FE10BD000089
:1005E00041540D0A0000000041542B43574D4F4425
:1005F000453D310D0A00000041542B43574C4150FA
:100600000D0A000041542B43574A41505F44454670
:100610003D22363031222C223132313637353836D0
:10062000220D0A0041542B43494653520D0A000043
:1006300041542B4349504D55583D300D0A000000A0
:1006400041542B43495053544152543D225443503A
:10065000222C223139322E3136382E322E36222CAF
:10066000383038300D0A000041542B43495053456F
:100670004E443D370D0A000048656C6C6F0D0A0052
:1006800010B500BF5021EFF3118081F31188BFF343
:100690004F8FBFF36F8F00BF0446044800F0BDF9D1
:1006A000204680F3118800BF10BD0000EC0300203D
:1006B00000BFFEE710B5002201B909E0012901D110
:1006C0000A0205E0022901D10A0201E04FF440725A
:1006D0000E4B1B6823F440730C4C236023461B68AD
:1006E0001343236023461B6823F0780323602346CB
:1006F0001B68022444EAC0042343044C23602346BD
:100700001B6843F48033236010BD0000103C02409E
:100710001C48006800F40070B0B11A48006820F46A
:1007200000701849086000BF0846006840F4006087
:1007300008600846006820F40060086000BF0846B2
:10074000006840F4007008600E48006800F48060A3
:10075000B0B10C48006820F480600A49086000BF0E
:100760000846006840F4805008600846006820F49D
:100770008050086000BF0846006840F48060086050
:1007800070470000003C02400A4A126822F440729E
:10079000084B1A601A46126842F004021A601A46A0
:1007A00012684FF4803343EA00231A43014B1A6066
:1007B00070470000103C0240074A126822F4407261
:1007C000054B1A601A4612681A601A46126842F0FF
:1007D00001021A6001707047103C024010B50A49CE
:1007E000096821F44071084C21602146096841F4F0
:1007F000407121602146096841F0010121600260D9
:10080000BFF36F8F436010BD103C0240084A12686E
:1008100022F44072064B1A601A46126842F4807243
:100820001A601A46126842F001021A60018070478D
:10083000103C0240084A126822F44072064B1A60CB
:100840001A46126842F400721A601A46126842F0A0
:1008500001021A6001607047103C024023480068A2
:1008600000F0100040B12248C06940F0100020495B
:10087000C86110201D4908601C48006800F0200075
:1008800040B11B48C06940F008001949C8612020E8
:10089000164908601548006800F0400040B114484F
:1008A000C06940F004001249C86140200F49086047
:1008B0000E48006800F0800040B10D48C06940F06B
:1008C00002000B49C8618020084908600748006899
:1008D00000F0020040B10648C06940F02000044921
:1008E000C861022001490860704700000C3C0240CA
:1008F0001000002070B50446002500201449C8618E
:1009000000F0C0FA054609E0601C38B124B100F0DF
:10091000B9FA401BA04201D9032070BD0D48006800
:1009200000F480300028EFD10A48006800F0010090
:1009300010B10120074908600648006800F0F20085
:1009400018B1FFF78BFF0120E7E70020E5E7000083
:10095000100000200C3C024008B500BF00200090B1
:100960002C48006840F080002A490860084600686A
:1009700000F08000009000BF00BF00BF002000908A
:100980000846006840F0010008600846006800F072
:100990000100009000BF00BF00BF0020009008468B
:1009A000006840F0020008600846006800F002009D
:1009B000009000BF00BF00BF002000900846006804
:1009C00040F0040008600846006800F00400009051
:1009D00000BF00BF00BF002000900846006840F044
:1009E000400008600846006800F04000009000BF2A
:1009F00000BF00BF002000900846006840F48070EF
:100A000008600846006800F48070009000BF00BFD6
:100A100008BD000030380240704710B50446206819
:100A200000F58050406900F0400040280FD120467A
:100A300000F046F84021206800F580504161012017
:100A400084F8440000BF002084F8450016E02068C8
:100A500000F58050406900F0010078B1204600F0B8
:100A600047F80121206800F580504161012084F899
:100A7000440000BF002084F8450000BF4FF48031DF
:100A8000206800F580504161206800F58050406981
:100A900000F40040B0F5004F10D12046FFF7BCFF36
:100AA0004FF40041206800F580504161012084F836
:100AB000440000BF002084F8450000BF10BD0000C6
:100AC00038B504460020009069460748006802F0E7
:100AD000EDFD009838B14FF0805004490860BFF335
:100AE0004F8FBFF36F8F38BD4000002004ED00E052
:100AF000704700002DE9F04104460F46002600BF74
:100B00002548007E012802D10220BDE8F0810120A5
:100B10002149087600BF4CF25030FFF7EBFE054646
:100B2000002D31D1401E3860206801280FD1207C73
:100B30006168FFF729FE4CF25030FFF7DBFE0546F7
:100B40001648006820F00400144908601AE0A668FE
:100B500012E0217C3046FFF7ADFD4CF25030FFF73C
:100B6000C9FE05460D48006820F07A000B49086070
:100B70000DB13E6005E0761CD4E902100844B04295
:100B8000E7D800BFFFF7C4FD00BF00200249087688
:100B900000BF2846B9E7000010000020103C0240CA
:100BA0000348006840F00040014908600020704799
:100BB000103C02402DE9F0410646884614461D4689
:100BC00000BF1E48007E012802D10220BDE8F0814E
:100BD00001201A49087600BF4CF25030FFF78AFE18
:100BE00007461FBB26B9E1B24046FFF7E5FD12E01C
:100BF000012E04D1A1B24046FFF708FE0BE0022E01
:100C000004D121464046FFF715FE04E022462B465C
:100C10004046FFF7E3FD4CF25030FFF76BFE07460E
:100C20000748006820F001000549086000BF002067
:100C30000249087600BF3846C8E7000010000020CF
:100C4000103C024000200949096801F0004159B1F7
:100C50000749064A0C3A11600649116003490968C0
:100C600001F0004101B1012070470000103C02403A
:100C700023016745AB89EFCDF8B502460B46002549
:100C8000002400200021D6E0012606FA01F51E68A6
:100C900006EA0504AC4274D11E7906F00306012E63
:100CA00004D01E7906F00306022E13D190684F007F
:100CB0000326BE40B0434F00DE68BE403043906024
:100CC000506801268E40B0431E79C6F300168E4050
:100CD000304350601E7906F00306032E09D0D06819
:100CE0004F000326BE40B0434F009E68BE403043D5
:100CF000D0601E7906F00306022E13D1CF0802F150
:100D0000200656F827004E07F70E0F26BE40B043C8
:100D10004F07FF0E1E69BE403043CF0802F1200688
:100D200046F8270010684F000326BE40B0431E79E6
:100D300006F003064F00BE40304310605E6806F4C4
:100D40004036002E76D000BF002600963C4E366816
:100D500046F480463A4F3E603E46366806F480468A
:100D6000009600BF00BF374E8F0856F827008E0749
:100D7000370F0F26BE40B043334EB24202D1002699
:100D800024E057E0314EB24201D101261EE0304E40
:100D9000B24201D1022619E02E4EB24201D1032601
:100DA00014E02D4EB24201D104260FE02B4EB24288
:100DB00001D105260AE02A4EB24201D1062605E0FD
:100DC000284EB24201D1072600E008268F073F0FC8
:100DD000BE4030431B4E8F0846F82700224E306835
:100DE000A0435E6806F4801606B120431E4E3060B4
:100DF000361D3068A0435E6806F4001606B1204335
:100E0000194E361D3060184E361F3068A0435E689C
:100E100006F4003606B12043134E361F3060361FED
:100E20003068A0435E6806F4803606B120430E4E5B
:100E3000083E3060491C1029FFF426AFF8BD0000C1
:100E400044380240083801400000024000040240DB
:100E500000080240000C0240001002400014024052
:100E600000180240001C0240083C01400AB18161A8
:100E700001E00B048361704701480068000C704773
:100E8000002004E0014800687047000004000020D2
:100E9000034800680349097808440149086070471D
:100EA000040000200C00002010B50D48006840F43C
:100EB00000700B4908600846006840F480600860D4
:100EC0000846006840F480700860032000F084F851
:100ED0000F2000F007F800F02BF8002010BD0000F4
:100EE000003C024070B504460E4800784FF47A7119
:100EF000B1FBF0F00C490968B1FBF0F5284600F0B1
:100F000021FC08B1012070BD102C07D2002221461F
:100F1000501E00F022F80548046001E00120F2E7CD
:100F20000020F0E70C000020000000200800002056
:100F300070470146084600280DDB00BF00BF00F0E7
:100F40001F0301229A4043099B0003F1E023C3F8E9
:100F5000002100BF00BF00BF70472DE9F05F804651
:100F60000D461646002701F043F9074639462A4642
:100F7000334601F00700C0F1070ABAF1040F02D9A5
:100F80004FF0040A01E0C0F1070AD14600F1040A5B
:100F9000BAF1070F02D24FF0000A01E0A0F1030AF4
:100FA000D4464FF0010A0AFA09FAAAF1010A0AEA3C
:100FB000020A0AFA0CFA4FF0010B0BFA0CFBABF128
:100FC000010B0BEA030B4AEA0B042146404601F0F1
:100FD00017F9BDE8F09F000000BF00F00702064BC4
:100FE00019684FF6FF031940044B0B4343EA0221F3
:100FF000014B196000BF70470CED00E00000FA05DE
:1010000070B504460D460CB9012070BD5848006803
:1010100000F00700A84209D255490D700846006843
:1010200000F00700A84201D00120EEE7207800F090
:10103000020002281DD1207800F00400042805D108
:101040004C48006840F4E0504A490860207800F0BD
:101050000800082805D14748006840F46040454929
:1010600008604448006820F0F000A1680843414946
:101070000860207800F00100A8B36068012807D15B
:101080003C4808380068C0F34040B8B90120BCE7CC
:101090006068022802D06068032807D13548083804
:1010A0000068C0F3406048B90120AEE73148083815
:1010B0000068C0F3400008B90120A6E72D48006889
:1010C00020F00300616808432A490860FFF7DAFE50
:1010D000064609E0FFF7D6FE801B41F288318842C0
:1010E00002D9032091E707E02248006800F00C00D5
:1010F0006168B0EB810FEDD11D48006800F007007A
:10110000A84209D91A490D700846006800F0070086
:10111000A84201D0012078E7207800F004000428DC
:1011200007D11448006820F4E050E16808431149F1
:101130000860207800F00800082808D10D480068F1
:1011400020F46040216940EAC1000A49086000F0CB
:101150003FF808490968C1F30311074A515CC840C8
:101160000649086006480068FFF7BCFE00204CE70F
:10117000003C024008380240883B00080000002084
:1011800008000020014800687047000000000020AF
:1011900000B5FFF7F7FF04490968C1F38221034A4C
:1011A000515CC84000BD000008380240983B000870
:1011B00000B5FFF7E7FF04490968C1F34231034A6C
:1011C000515CC84000BD000008380240983B000850
:1011D0002DE9F047002400250026A1462548006897
:1011E00000F00C0020B1042805D008283AD105E011
:1011F000DFF8849039E0DFF8849036E01D48001F66
:10120000006800F03F041B48001F006800F48000E5
:1012100078B11A481749091F0968C1F38811A0FB62
:1012200001700146224600233846FFF725F805469F
:101230000EE011480F49091F0968C1F38811A0FB8E
:1012400001700146224600233846FFF715F805468F
:101250000848001F0068C0F30140401C4600B5FB71
:10126000F6F902E0DFF8109000BF00BF4846BDE885
:10127000F0870000083802400024F40040787D0127
:10128000F8B504460CB90120F8BD207800F0010043
:10129000002874D0F948006800F00C0004280DD034
:1012A000F648006800F00C00082813D1F348001F2E
:1012B000006800F48000B0F5800F0BD1EF480838CB
:1012C0000068C0F34040002859D06068002856D11B
:1012D0000120D9E700BF6068B0F5803F08D1E7483A
:1012E0000838006840F48030E449083908601EE09E
:1012F0006068B0F5A02F0DD1E0480838006840F4D0
:101300008020DE49083908600846006840F48030D3
:1013100008600CE0D9480838006820F48030D749CC
:10132000083908600846006820F48020086000BF83
:10133000606890B1FFF7A6FD054606E0FFF7A2FD45
:10134000401B642801D903209EE7CC480838006878
:10135000C0F340400028F1D011E0FFF793FD0546AF
:1013600006E0FFF78FFD401B642801D903208BE7BF
:10137000C24808380068C0F340400028F1D1207806
:1013800000F0020002285FD1BC48006800F00C00A9
:1013900058B1BA48006800F00C0008281CD1B748C2
:1013A000001F006800F48000B0B9B4480838006835
:1013B000C0F3400020B1E068012801D0012063E7BC
:1013C000AE480838006820F0F800216940EAC10002
:1013D000AA490839086037E0E06800B30120A8494D
:1013E0000860FFF74FFD054606E0FFF74BFD401B89
:1013F000022801D9032047E7A04808380068C0F355
:1014000040000028F1D09D480838006820F0F8001E
:10141000216940EAC10099490839086014E00020B8
:1014200097490860FFF72EFD054606E0FFF72AFD05
:10143000401B022801D9032026E79048083800689D
:10144000C0F340000028F1D1207800F008000828FF
:101450002CD16069A8B101208A490860FFF712FD0C
:10146000054606E0FFF70EFD401B022801D90320C8
:101470000AE782486C300068C0F340000028F1D0D1
:1014800014E000207F490860FFF7FCFC054606E0F9
:10149000FFF7F8FC401B022801D90320F4E6774847
:1014A0006C300068C0F340000028F1D1207800F0D3
:1014B0000400042870D1002770483830006800F01C
:1014C000805090B900BF002000906C483830006810
:1014D00040F080506949383108600846006800F0E3
:1014E0008050009000BF00BF01276748006800F4EB
:1014F0008070B0B96448006840F480706249086048
:10150000FFF7C0FC054606E0FFF7BCFC401B0228C5
:1015100001D90320B8E65C48006800F48070002818
:10152000F2D000BFA068012808D154486830006894
:1015300040F001005149683108601DE0A0680528AD
:101540000DD14E486830006840F004004B496831C6
:1015500008600846006840F0010008600CE0474859
:101560006830006820F0010044496831086008468E
:10157000006820F00400086000BFA068A8B1FFF771
:1015800081FC054609E0FFF77DFC401B41F28831F4
:10159000884202D9032077E626E0384868300068A0
:1015A000C0F340000028EED013E0FFF76BFC0546C7
:1015B00008E0FFF767FC401B41F28831884201D9FF
:1015C000032061E62D4868300068C0F34000002821
:1015D000EFD1012F07D129483830006820F0805022
:1015E00026493831086000BFA069002845D023484B
:1015F000006800F00C0008285DD0A069022845D1E1
:1016000000201F490866FFF73DFC054606E0FFF78E
:1016100039FC401B022801D9032035E61748083859
:101620000068C0F340600028F1D1D4E90701084305
:10163000616A40EA81110122A06AC2EB500041EACE
:1016400000412C20005D41EA00600C49091F086040
:1016500001200B490866FFF715FC054606E0FFF779
:1016600011FC401B022801D903200DE6034808386D
:101670000068C0F340600028F1D049E0083802401B
:1016800000004742800E4742007000400020214980
:101690000866FFF7F7FB054606E0FFF7F3FB401B84
:1016A000022801D90320EFE51B480068C0F3406021
:1016B0000028F2D12CE0A069012800D1E4E5164809
:1016C000001D0668A069012820D006F48001E069A9
:1016D00081421BD106F03F01206A814216D147F6B4
:1016E000C0703040616AB0EB811F0FD106F4403109
:1016F0000122A06AC2EB5000B1EB004F06D106F008
:1017000070612C20005DB1EB006F01D00120BBE5C2
:101710000020B9E50000474200380240042808D103
:101720004FF0E021096941F004014FF0E02211611E
:1017300007E04FF0E021096921F004014FF0E022B9
:101740001161704770B504462546681EB0F1807F70
:1017500001D301200FE0681E4FF0E02148610F2106
:101760004FF0FF3000F04CFD00204FF0E021886189
:1017700007200861002070BD10B504460CB9012097
:1017800010BDA06900B100E000BF94F8410028B985
:10179000002084F84000204600F02AF8242084F835
:1017A00041002068C06820F400502168C8602046CD
:1017B00000F03EFB2068006920F490402168086139
:1017C0002068406920F02A00216848612068C068CC
:1017D00040F400502168C86000206064202084F834
:1017E000410084F842000020606300BFC8E70000A9
:1017F00010B586B004464E492068884250D100BFDB
:10180000002000904B48006840F0100049490860F3
:101810000846006800F01000009000BF00BF00BF45
:101820000020009043481438006840F0010041490E
:10183000143908600846006800F00100009000BFFD
:1018400000BF00BF002000900846006840F0010083
:1018500008600846006800F00100009000BF00BF6B
:10186000481501900220029001200390032004906B
:101870000720059001A93048FFF7FEF94FF480607A
:1018800001900720059001A92B48FFF7F5F90022E8
:1018900001212520FFF761FB2520FFF74AFB44E0EB
:1018A00026492068884240D100BF0020009021488E
:1018B000001F006840F480201E49091F0860084688
:1018C000006800F48020009000BF00BF00BF00202F
:1018D000009018481438006840F002001549143987
:1018E00008600846006800F00200009000BF00BFDA
:1018F000081501900220029001200390032004901B
:101900000720059001A90E48FFF7B6F94FF40060D3
:10191000019001A90A48FFF7AFF900220121272011
:10192000FFF71BFB2720FFF704FB06B010BD0000EC
:1019300000100140443802400000024000480040CE
:10194000000402402DE9F84F04460E46174699461A
:101950004FF0000A94F84100202850D106B117B981
:101960000120BDE8F88F00206064212084F8410048
:10197000FFF788FA8246A784E784A068B0F5805F05
:1019800004D1206910B90025B04602E035464FF079
:1019900000081EE05346002280212046CDF800902A
:1019A00000F05CFB20B1202084F841000320D8E740
:1019B00045B9B8F80000C0F308002168486008F194
:1019C000020803E02878216848606D1CE08C401E06
:1019D000E084E08C0028DDD15346002240212046DF
:1019E000CDF8009000F03AFB20B1202084F84100AF
:1019F0000320B6E7202084F841000020B1E7022050
:101A0000AFE700BFFEE7000000B587B000BF0020D1
:101A100001902648006840F02000244908600846EC
:101A2000006800F02000019000BF00BF00BF002050
:101A300001900846006840F02000086008460068F1
:101A400000F02000019000BF00BF00BF0020019007
:101A50000846006840F0200008600846006800F072
:101A60002000019000BF00BF4020029001200390A1
:101A700004900320059002A90D48FFF7FDF880208F
:101A8000029002A90A48FFF7F7F84FF4807002901D
:101A900002A90748FFF7F0F840200549183108600F
:101AA000802008604000086007B000BD3038024068
:101AB0000014024009E00548006880F080000349F6
:101AC00008604FF47A7001F087FBF4E714140240C9
:101AD00000BFFEE7704710B5FF2000F06BFB10BDA4
:101AE0001CB5012423A000F073FB01F043FA294840
:101AF000012100238022CDE9001027A1294801F00F
:101B000051FE0446012C03D127A000F061FB02E046
:101B10002FA000F05DFB3848032100234FF48062C2
:101B2000CDE9001035A13A4801F03CFE0446012CF5
:101B300003D138A000F04CFB02E043A000F048FBCA
:101B40004E48042100230A02CDE900104CA1504860
:101B500001F028FE0446012C03D12EA000F038FB32
:101B600002E039A000F034FB01F046FA002001F059
:101B700075FB1CBD4E6574776F726B20636F6E666C
:101B8000696775726174696F6E2066696E697368E2
:101B900065640000340000204C45445F5461736B61
:101BA00000000000B51A00083C3C2D444542554752
:101BB0002D494E464F2D3E3E205461736B312063BC
:101BC00072656174656420737563636573730A007D
:101BD0003C3C2D44454255472D4552524F522D3ED7
:101BE0003E205461736B31206372656174656420BB
:101BF0006661696C0A000000380000204368656374
:101C00006B557067726164655F5461736B000000AF
:101C1000810300083C3C2D44454255472D494E4622
:101C20004F2D3E3E20436865636B5570677261645B
:101C3000655F5461736B20637265617465642073C2
:101C40007563636573730A003C3C2D4445425547F8
:101C50002D4552524F522D3E3E20436865636B55D1
:101C60007067726164655F5461736B206372656154
:101C7000746564206661696C0A0000003C00002005
:101C80004553505F537461727475705461736B0087
:101C90004105000810B500BF5021EFF3118081F31A
:101CA0001188BFF34F8FBFF36F8F00BF0446FFF75C
:101CB000EFF801F0A7FD012801D001F0DDFC00BF25
:101CC00084F3118800BF10BD10B592B000BF002092
:101CD00000903248006840F0805030490860084663
:101CE000006800F08050009000BF00BF00BF0020DF
:101CF00000902B48006840F480402949086008465D
:101D0000006800F48040009000BF00BF01200190F7
:101D100000040290022007904105089119210991C1
:101D20004FF4A8710A9102210B9107210C9101A88F
:101D3000FFF7A6FA08B1FEF7BBFC0F200D900220BA
:101D40000E9000200F904FF4A05010904FF4805050
:101D5000119005210DA8FFF753F908B1FEF7A8FC73
:101D6000FFF710FA4FF47A71B0FBF1F42046FFF759
:101D7000E9FC0420FFF7D2FC00221146501EFFF7B9
:101D8000ECF8FFF779F8B0F5805F05D905480068F1
:101D900040F480700349086012B010BD4038024022
:101DA00000700040003C02400548006840F47000AC
:101DB000034908604FF000600149803908607047AE
:101DC00088ED00E000BF00BF02680C3252E8002F2F
:101DD00022F4907102680C3242E80013002BF3D118
:101DE00000BF00BF00BF0268143252E8002F22F08B
:101DF00001010268143242E80013002BF3D100BF46
:101E0000016B01290ED100BF00BF02680C3252E8FD
:101E1000002F22F0100102680C3242E80013002B60
:101E2000F3D100BF202180F84210002101637047E8
:101E30002DE9F84F04462068006920F44050E1681D
:101E40000843216808612169A06808436169084363
:101E5000E169084300902068C06849F20C6188433A
:101E6000009908432168C8602068406920F44070E8
:101E7000A16908432168486176492068884203D0F7
:101E800075492068884203D1FFF792F9814602E044
:101E9000FFF77EF98146E069B0F5004F6CD1022072
:101EA0006168A0FB015003461920A9FB00700146A0
:101EB0002A463846FEF7E0F96421B0FBF1F04FEA1C
:101EC000001A02206168A0FB01510B461920A9FBF2
:101ED00000712A463846FEF7CFF983460220616832
:101EE000A0FB015003461920A9FB00712A46384681
:101EF000FEF7C2F96421B0FBF1F000EBC00101EB89
:101F00000010ABEB8000322101EBC0006421B0FB7C
:101F1000F1F000F0F8000AEB400A02206168A0FB33
:101F2000015003461920A9FB007001462A46384695
:101F3000FEF7A2F9834602206168A0FB0150034628
:101F40001920A9FB00712A463846FEF795F964214D
:101F5000B0FBF1F000EBC00101EB0010ABEB800037
:101F6000322101EBC0006421B0FBF1F000F007006A
:101F70005044216888606AE004206168A0FB015039
:101F800003461920A9FB007001462A463846FEF791
:101F900073F9824604206168A0FB015003461920B2
:101FA000A9FB007001462A463846FEF765F9642110
:101FB000B0FBF1F000EBC00101EB0010AAEB8000D8
:101FC000322101EB00106421B0FBF1F000F0F00AC7
:101FD00004206168A0FB017003461920A9FB005191
:101FE0003A462846FEF748F96421B0FBF1F00AEBC7
:101FF000001A04206168A0FB01510B461920A9FBBF
:1020000000712A463846FEF737F983460420616896
:10201000A0FB015003461920A9FB007001462A4687
:102020003846FEF729F96421B0FBF1F000EBC0015E
:1020300001EB0010ABEB8000322101EB00106421BA
:10204000B0FBF1F000F00F00504421688860BDE85B
:10205000F88F000000100140001401402DE9F84302
:1020600004460D4617469846089E31E0701C70B332
:10207000FEF708FFA0EB0800B04200D816B9032015
:10208000BDE8F8832068C06800F00400F8B1802D36
:102090001ED0402D1CD020680068C0F3C000B0B135
:1020A00000BF002000902068006800902068406811
:1020B000009000BF00BF2046FFF784FE0820606448
:1020C00000BF002084F8400000BF0120D8E7FFE7F0
:1020D000206800682840A84201D1012000E00020CB
:1020E000B842C3D00020CBE708B5084800680068B4
:1020F000C0F3401048B1054800684068C0B2009085
:10210000012269460248FEF72BF908BD5C03002056
:10211000BC0000200020074909680968C1F340118C
:1021200031B1044909684968C8B20349096848607F
:1021300070470000A40300205C03002010B518487D
:10214000184908604FF4E13048600021154881606B
:10215000C160016181610C214161FFF70DFB1148F4
:102160000068C06840F020000E490968C8600E4849
:102170000E4908604FF4E130486000210B4881604F
:10218000C160016181610C214161FFF7F5FA0748E7
:102190000068C06840F0200004490968C86010BDAC
:1021A000001001405C03002000480040A403002010
:1021B00000BFFEE738B5044600944FF47A7301225D
:1021C00069460248FFF7BEFB38BD00005C030020F3
:1021D0000FB4054B10B503A9044A029800F034F877
:1021E00010BC5DF814FB0000CD250008B0000020F5
:1021F00002480068C0F30220704700000CED00E0C8
:1022000010B5002804DB0A07130E054A135406E034
:102210000A07140E034A00F00F031B1FD45410BD0D
:1022200000E400E018ED00E002E008C8121F08C159
:10223000002AFAD170477047002001E001C1121F47
:10224000002AFBD1704700002DE9FF4F8DB09B465F
:102250000F460446002606E025280BD05A460F9963
:102260009047641C761C20780028F5D111B03046C8
:10227000BDE8F08F0025A8460122984900E00543FB
:1022800014F8013F203B02FA03F00842F7D120780E
:102290002E2817D114F8010F45F004052A280ED076
:1022A0006FF02F022078A0F1300109290AD808EB3D
:1022B000880102EB410100EB0108641CF2E757F8CA
:1022C000048B641C20786C280DD004DC4C2812D0C0
:1022D0006A2811D104E074280DD07A280CD10AE0C4
:1022E00045F4001507E0617845F48015814202D17C
:1022F000641C05F58015641C2278692A45D008DC29
:10230000002AB3D0582A69D0632A10D0642A08D191
:102310003BE0702A67D0732A13D0752A5CD0782AE4
:102320005CD010465A460F999047761CD3E017F8B8
:10233000040B8DF8000000208DF80100E946012013
:1023400003E057F8049B4FF0FF3069074FF000059A
:1023500001D40AE06D1C45450DDA8542FADB19F817
:1023600005100029F6D106E06D1C8542FCDB19F84A
:1023700005100029F8D12E4404E019F8010B5A4643
:102380000F9990476D1EF8D2A5E00A200021CDE9F3
:102390000801C5F3025002280DD001CFC117031E5A
:1023A00071F100030DDA4FF0000CD0EB0C006CEB78
:1023B00001012D2308E0FF1D27F00707F7E80201C0
:1023C000EDE72B0504D52B238DF8283001233BE0C6
:1023D000EB0739D02023F7E70A2000E01020002186
:1023E000CDE9080107E01020002145F00405CDE902
:1023F00008014FF00808C5F3025002280FD001CFA2
:1024000000214FF0000A2B071FD5702A0DD0DDE9FF
:1024100008C38CF0100C5CEA030C0CD015E0FF1D17
:1024200027F00707F7E80201EBE740228DF82820A4
:102430004FF0010A0BE050EA010306D030238DF87B
:1024400028308DF8292002239A46582A04D024A245
:102450000DF120090B9209E026A2F9E7DDE9082336
:10246000FDF70AFF0B9B9B5C09F8013D50EA010256
:10247000F4D1ADEB090020300890680701D44FF08B
:1024800001080899884502DDA8EB010000E0002062
:102490008046002506E00AA85A46405D0F999047FD
:1024A0006D1C761C5545F6DB04E030205A460F992A
:1024B0009047761CB8F10001A8F10108F5DC05E0B1
:1024C00019F8010B5A460F999047761C0899481E37
:1024D00008900029F4DC641CC5E60000092801000E
:1024E000303132333435363738396162636465668A
:1024F000000000003031323334353637383941424C
:1025000043444546000000002DE9F047044660883A
:1025100000F10409484600F095F905462E4660880A
:10252000001D1FFA80FA002748F20508207828705D
:102530002088000A6870A078A8706088000AE87097
:10254000002004E0211D0A5C011D6A54401C6188C2
:102550008142F7D894F88E106088001D2954B4F891
:102560008E00010A6088401D295418E0802013E085
:1025700007F4004131B14FF6FF7101EA470787EADE
:10258000080703E04FF6FF7101EA47073178014081
:1025900009B187EA080740100028E9D1761CBAF192
:1025A0000000AAF101011FFA81FADFD1B4F88E0010
:1025B000B84205D1284600F017F80020BDE8F087A2
:1025C000284600F011F80120F8E7000013B50C468A
:1025D0004FF47A73012269460248FFF7B3F9009875
:1025E0001CBD00005C03002010B5002821D0114B59
:1025F0000022001F196803E0814203D80A46496897
:102600000029F9D152B11368841A9C4204D10068A0
:1026100018441060104602E0506000E0186039B1C4
:1026200002680B1A934203D10B681A44026049688E
:10263000416010BDB40000200146D1F8002210789E
:10264000D1F80C224AB1D1F80022521CC1F8002264
:10265000D1F80C22521EC1F80C22D1F80832D1F860
:1026600000229A4201D1C1F800127047F0B5054628
:102670000C4626E02846FFF7DFFFCD281FD1D5F80E
:1026800000020678AB2E06D12846FFF7D5FF4AF6A2
:10269000CD30208016E0AE2E06D12846FFF7CCFFC5
:1026A0004AF6CD6020800DE0A52E06D12846FFF722
:1026B000C3FF4AF2CD50208004E00020F0BD00208E
:1026C000FCE7D7E700BF00BFD5F80C020028FBD01D
:1026D000284600F027F86080002708E0D5F80C02B3
:1026E00028B12846FFF7A8FF211DC8557F1C608828
:1026F000B842F3D8042707E0D5F80C0220B12846E9
:10270000FFF79AFF781EC7B2002FF5D100BFD5F8AA
:102710000C020228FBD3284600F004F8A4F88E002F
:102720002046CBE770B504462046FFF785FF0546F7
:102730002046FFF781FF064645EA062070BD0000EF
:102740001CB50124FEF7B0FBFEF706F9FFF7BCFA53
:10275000FEF778FAF32014490860FEF721FAFFF734
:1027600053F9FFF7EBFCFDF785FE1048FDF7E6FD9A
:102770000FA0FFF72DFD1748012100234A02CDE9E4
:10278000001015A1174801F00DF80446012C05D1E1
:1027900015A0FFF71DFD00F0EFFD02E01EA0FFF702
:1027A00017FD00BFFEE700000C3C0240BC0000200B
:1027B000506568726970686572616C7320696E69D2
:1027C0007469616C697A656420737563636573739A
:1027D0000000000030000020537461727475705462
:1027E00061736B00E11A00083C3C2D44454255479B
:1027F0002D4552524F522D3E3E20537461727475D6
:10280000705461736B2063726561746564207375C5
:1028100063636573730A00003C3C2D444542554791
:102820002D4552524F522D3E3E20537461727475A5
:10283000705461736B2063726561746564206661B6
:10284000696C0A00F0B50B30154D20F0070100242B
:10285000144A0FE003688B420BD38B4205D95E1AF2
:1028600043184768C3E9006700E04368136002C08B
:1028700004E0021D10680028ECD12046002802D197
:10288000286808B10020F0BD064A07481060074AD2
:10289000121A22F00702C0E9002401202860D7E7BD
:1028A000B8000020B40000205CCC002058CE0020EE
:1028B0002DE9F04105460E461C4807681C48006893
:1028C000001D00F00DFB50B91948006890F82C105D
:1028D0000120884017490968814316480160681C37
:1028E00038B936B112480168091D134800F036FBAB
:1028F0001AE07C190E4800684460BC4207D20C48BC
:102900000168091D0D48006800F00EFB0CE0084846
:102910000168091D0A48006800F006FB09480068C4
:10292000844201D207480460BDE8F081880000209D
:10293000740000208C00002044CC00207C0000208B
:1029400078000020A400002010B5044600F012FB1F
:1029500023480068401C224908602248006840B9AA
:10296000204804600846006801280DD100F03EF9B7
:102970000AE01D48006838B91A480068C06AE16A70
:10298000884201D81748046018480068401C17495D
:10299000086094F82C100120884015490968084304
:1029A00013490860E16A01EB8101124A02EB8100E0
:1029B000211D00F0D3FA00F01FFB0B48006868B13E
:1029C00008480068C06AE16A884207D24FF0805028
:1029D00009490860BFF34F8FBFF36F8F10BD000030
:1029E000840000207400002090000020A00000203F
:1029F0008C00002074C9002004ED00E070B523E0D5
:102A000000F014FD1348006808B9012000E0002020
:102A1000054601F021F8BDB900F0ACFA0D48C068D8
:102A2000C468201D00F05CFA0B480068401E0A498B
:102A300008600A480068401E0849086000F0DCFA97
:102A4000204600F00DF800BF044800680028D7D1E8
:102A500070BD000030CC00208400002080000020E9
:102A600010B50446206B00F0FDFA204600F0FAFA9B
:102A700010BD000030B54FF4C843174800F00704FC
:102A80002CB1C01D20F00700134C041B1B1B024679
:102A9000124C22600024114D6C60D018083820F0D0
:102AA00007000F4C206000240D4D2D686C600C4D0C
:102AB0002D682C601146441A4C60094C24680C6047
:102AC000084D4C682C60084D4C682C604FF0004459
:102AD000064D2C6030BD00007465002050000020C1
:102AE00058000020600000205C00002064000020EE
:102AF00000BFFFF783FF064800680128F9D94FF0AF
:102B0000805004490860BFF34F8FBFF36F8FF0E729
:102B100074C9002004ED00E02DE9FF5F81460F46F7
:102B20009246DDE90E6B109CAAF10100216B01EBCE
:102B3000800828F0070808F0070008B9012000E025
:102B4000002028B940F22B321BA124A0FFF740FB44
:102B5000002507E0795D04F134004155785D00B946
:102B600002E06D1C102DF5D300BF0021432001555C
:102B7000202E00D31F26E66266640020A064201D7C
:102B800000F0CFF904F1180000F0CBF92461C6F190
:102B90002000A06164620020E06484F8500049468F
:102BA0004046039A00F086F92060BBF1000F01D087
:102BB000CBF80040BDE8FF9F54686972645F5061C4
:102BC0007274795C4672656552544F535C736F75CD
:102BD0007263655C7461736B732E63004572726F10
:102BE000723A25732C25640D0A00000010B50024EC
:102BF00007E004EB84010F4A02EB810000F084F946
:102C0000641C202CF5D30C4800F07EF90B4800F032
:102C10007BF90B4800F078F90A4800F075F90A488A
:102C200000F072F90448094908600448084908603E
:102C300010BD000074C90020F4CB002008CC002097
:102C40001CCC002030CC002044CC00207800002098
:102C50007C00002010B50146164800E000680368BB
:102C60008B42FBD30246436813448B4204D1436832
:102C70004C682344436001460A464B681344046889
:102C8000A34211D10C4C03682468A34208D04B68BE
:102C90000468646823444B6003681B680B6005E0AC
:102CA000054B1B680B6001E003680B60884200D095
:102CB000016010BD50000020580000200A4909683A
:102CC000096809B9012100E0002121B14FF0FF316D
:102CD000064A116006E004490968C968C868034AE1
:102CE000416811607047000078000020A4000020B7
:102CF0000C480068401C08B9012000E0002028B9F9
:102D000040F20F1208A112A0FFF762FA00BF502094
:102D100080F31188BFF34F8FBFF36F8F00BF00BFE9
:102D2000FEE700006800002054686972645F50612B
:102D30007274795C4672656552544F535C706F7261
:102D40007461626C655C706F72742E6300000000C9
:102D50004572726F723A25732C25640D0A000000CB
:102D60002DE9F04104464FF0000800F05FFB3E48BB
:102D7000006808B9FFF77EFE3C4800682040002844
:102D80005FD1A4B1083404F0070080B104F007005B
:102D9000C0F10800044404F0070008B9012000E075
:102DA000002020B9BF2232A13BA0FFF711FA002C6E
:102DB00047D03D480068844243D83C4E30460568C1
:102DC00001E02E462D686868A04202D228680028DB
:102DD000F7D125480068854233D0306800F10808F3
:102DE000286830606868001B102813D92F1907F075
:102DF000070008B9012000E0002020B9EC221CA146
:102E000025A0FFF7E5F96868001B78606C6038461C
:102E1000FFF720FF244968680968081A22490860FA
:102E20000846006822490968884203D21E480068A3
:102E30001F4908600D4968680968084368600020F8
:102E4000286000F009FE08F0070008B9012000E042
:102E5000002028B94FF4967205A10FA0FFF7B8F92A
:102E60004046BDE8F08100005800002064000020CA
:102E700054686972645F50617274795C467265650A
:102E800052544F535C706F727461626C655C68651C
:102E900061705F342E6300004572726F723A257361
:102EA0002C25640D0A0000005C000020500000206A
:102EB00060000020001F4FF080730360001F21F0AE
:102EC00001030360001F054B036014380260001FFC
:102ED0006FF002030360203870470000F12C0008F7
:102EE00001460A69D1E901309860D1E901035860CF
:102EF0005068884201D188685060002008611068DD
:102F0000401E10601068704700F1080141604FF0EA
:102F1000FF31816000F10801C160016100210160A1
:102F2000704700210161704710B502460B685C1CB8
:102F30000CB9106907E002F1080000E0406844683D
:102F400024689C42FAD944684C604C68A16088604F
:102F500041600A611468641C146010BD42684A60D4
:102F600093688B60936859609160086103685B1C8B
:102F70000360704710B500BF502080F31188BFF385
:102F80004F8FBFF36F8F00BF0B480068401C0A498A
:102F900008600846006801280DD108480068C0B2E2
:102FA00008B9012000E0002028B940F2B91204A1BC
:102FB0000DA0FFF70DF910BD6800002004ED00E042
:102FC00054686972645F50617274795C46726565B9
:102FD00052544F535C706F727461626C655C706FB9
:102FE00072742E63000000004572726F723A25738E
:102FF0002C25640D0A00000010B50B48006828B9A4
:103000004FF4E07209A113A0FFF7E2F80648006848
:10301000401E054908600846006820B9002080F37A
:10302000118800BF00BF10BD68000020546869729D
:10303000645F50617274795C4672656552544F5397
:103040005C706F727461626C655C706F72742E6319
:10305000000000004572726F723A25732C25640DD2
:103060000A00000070B506463546002E35D0083DF2
:103070002C461A4960680968084008B1012000E040
:10308000002028B94FF4A07215A11FA0FFF7A0F8E7
:10309000206808B9012000E0002028B940F2411260
:1030A0000FA119A0FFF794F80C496068096808405F
:1030B00098B1206888B909496068096888436060E8
:1030C00000F0B4F9144960680968084412490860BE
:1030D0002046FFF7BFFD00F0BFFC70BD640000207C
:1030E00054686972645F50617274795C4672656598
:1030F00052544F535C706F727461626C655C6865AA
:1031000061705F342E6300004572726F723A2573EE
:103110002C25640D0A0000005C00002006480068B1
:103120004FF47A71B0FBF1F0401E4FF0E02148619E
:1031300007200861704700000000002070B5FDF70F
:1031400085F80546102D11D305F1E02090F8F043E5
:1031500010480078844201DB012000E0002028B9FB
:103160004FF440720CA116A0FFF732F8184800681F
:1031700000F4E06017490968884201D8012000E0A6
:10318000002028B94FF4447203A10DA0FFF720F8E6
:1031900070BD00006C00002054686972645F50616B
:1031A0007274795C4672656552544F535C706F72ED
:1031B0007461626C655C706F72742E630000000055
:1031C0004572726F723A25732C25640D0A00000057
:1031D0000CED00E07000002070B504460025ACB195
:1031E0000F48006808B9012000E0002028B940F22B
:1031F000CF420CA114A0FEF7EBFF00F017F900215D
:103200002046FFF755FB00F027FC05463DB94FF07F
:10321000805011490860BFF34F8FBFF36F8F70BDAF
:10322000AC00002054686972645F50617274795C0C
:103230004672656552544F535C736F757263655C7B
:103240007461736B732E63004572726F723A2573EB
:103250002C25640D0A00000004ED00E070B5054661
:10326000FFF788FE15B92D48006800E0284604469F
:10327000201DFFF735FE78B9E06A00EB8000284991
:1032800051F8200040B994F82C10012088402549BD
:103290000968814323480160A06A18B104F118004D
:1032A000FFF71EFE20480068401C1F4908601B48AD
:1032B0000068844209D1211D1C48FFF74FFE1C48BD
:1032C0000068401C1A49086009E01A480068401E5E
:1032D000184908602046FFF7C3FBFFF7EFFCFFF734
:1032E0008BFE15480068C0B10C480068844214D1B8
:1032F0001248006808B9012000E0002028B940F217
:1033000065420FA117A0FEF763FF4FF080501949E7
:103310000860BFF34F8FBFF36F8F70BD7400002044
:1033200074C900208C000020A000002030CC0020B8
:10333000800000208400002090000020AC000020CD
:1033400054686972645F50617274795C4672656535
:1033500052544F535C736F757263655C7461736B29
:10336000732E63004572726F723A25732C25640DBB
:103370000A00000004ED00E01CB5184800210B46CF
:103380008022CDE9001016A1174800F00BFA044680
:10339000012C15D100BF502080F31188BFF34F8F4F
:1033A000BFF36F8F00BF4FF0FF301049086001205E
:1033B0000F49086000200F49086000F0B1F80BE0E9
:1033C000601C08B1012000E0002028B940F284729E
:1033D00009A112A0FEF7FCFE1CBD0000A800002001
:1033E00049444C4500000000F12A0008A4000020D8
:1033F000900000208800002054686972645F50616A
:103400007274795C4672656552544F535C736F7584
:103410007263655C7461736B732E63004572726FC7
:10342000723A25732C25640D0A00000002480068DA
:10343000401C014908607047AC00002010B51B48D3
:10344000006818B101201A4908602DE000201849D1
:10345000086018480068B0FA80F0C0F11F0404EB5F
:103460008400154951F8200008B1012000E0002037
:1034700028B940F6F62211A119A0FEF7A9FE04EB27
:1034800084010D4A02EB810041684968416000F106
:10349000080142688A4202D1416849684160416836
:1034A000C968134A116000BF10BD0000AC000020C5
:1034B000980000208C00002074C9002054686972B4
:1034C000645F50617274795C4672656552544F5303
:1034D0005C736F757263655C7461736B732E6300EC
:1034E0004572726F723A25732C25640D0A00000034
:1034F0007400002000B502460B46D2F804020370A7
:10350000D2F80402401CC2F804021046FCF722FF65
:1035100002F5017003C8884201D1C2F8042200BD3F
:103520001CB5404800684049884201D0012000E0B5
:10353000002028B940F259123CA146A0FEF748FEEF
:10354000384800683849491E884201D0012000E00F
:10355000002028B94FF4AD7234A13EA0FEF738FE2A
:10356000404C204600780190FF2021460870084614
:10357000007800909DF8000000F0F0009DF8001029
:10358000884201D1012000E0002028B940F27312E6
:1035900026A130A0FEF71CFE9DF8000000F05000B0
:1035A0003149087007203149086009E02F48006858
:1035B000401E2E4908609DF800004006000E009055
:1035C0009DF8000000F080008028EFD027480068B8
:1035D0000002264908600846008800F4E0600860A0
:1035E0002049019808700F482030006840F47000AE
:1035F0000C49203108600846006840F070400860BF
:10360000FFF78CFD00201A490860FCF7E7FD194818
:10361000006840F0404017490860FCF7CFFD0020EB
:103620001CBD000000ED00E071C20F4154686972DA
:10363000645F50617274795C4672656552544F5391
:103640005C706F727461626C655C706F72742E6313
:10365000000000004572726F723A25732C25640DCC
:103660000A00000000E400E06C0000207000002070
:103670006800002034EF00E010B500BF502080F358
:103680001188BFF34F8FBFF36F8F00BF00F0CAF8F0
:1036900018B14FF080500449086000BF002080F34B
:1036A000118800BF10BD000004ED00E02DE9F047D7
:1036B00006460F4634462CB940F23C422CA135A0B8
:1036C000FEF786FD206C08B9012000E0002028B933
:1036D0004FF4886226A12FA0FEF77AFD206808B972
:1036E000606808B9012000E0002028B940F2454296
:1036F0001FA128A0FEF76CFDFFF720FD00BF5021A1
:10370000EFF3118081F31188BFF34F8FBFF36F8FF9
:1037100000BF0546D4F83890E06B48451ED994F9AF
:1037200045A009F10100A0630AF1010070B9606AC7
:1037300008B9012000E0002068B904F1240000F07D
:1037400029F940B13FB10120386004E00AF10100DD
:1037500040B284F845004FF0010801E04FF0000846
:1037600000BF85F3118800BF4046BDE8F087000028
:1037700054686972645F50617274795C4672656501
:1037800052544F535C736F757263655C71756575E8
:10379000652E63004572726F723A25732C25640D95
:1037A0000A0000002DE9FF4F85B080468946174684
:1037B000DDE912ABB800FFF7D3FA064656B1542044
:1037C000FFF7CEFA04460CB1266304E03046FFF75B
:1037D00049FC00E000247CB10020CDE900ABCDE93C
:1037E00002403A4649464046089BFFF795F9204675
:1037F000FFF7AAF8012501E04FF0FF35284609B090
:10380000BDE8F08F0549096809B9012005E00449C0
:10381000096809B9022000E00020704790000020EC
:10382000AC0000202DE9F0414FF00008414800684D
:10383000002872D140480068451C3F480560EDB93A
:103840003E480068006808B9012000E0002028B95F
:1038500040F6D9123AA143A0FEF7BAFC37480768F0
:10386000444800683549086042480760424800689B
:10387000401C41490860FFF721FA00BF3F4800683B
:1038800085423CD300BF2D480068006808B901207C
:1038900000E0002020B14FF0FF30384908602DE0F3
:1038A00026480068C068C4686668B54202D23348DA
:1038B000066023E0201DFFF713FBA06A18B104F196
:1038C0001800FFF70DFB94F82C10012088402C49BC
:1038D000096808432A490860E16A01EB8101294A25
:1038E00002EB8100211DFFF739FB2749E06A0968D7
:1038F000C96A8842C7D34FF00108C4E700BF224815
:103900000068C06A00EB80001E4951F820000128C1
:1039100001D94FF0010805E0FFE71C480068401C92
:103920001A4908601A48006808B14FF0010840467B
:10393000BDE8F081AC000020880000207800002065
:1039400054686972645F50617274795C467265652F
:1039500052544F535C736F757263655C7461736B23
:10396000732E63004572726F723A25732C25640DB5
:103970000A0000007C0000209C000020A400002021
:103980008C00002074C900207400002094000020E6
:103990009800002070B50646F068C4682CB940F65F
:1039A00061321AA122A0FEF713FC04F11800FFF700
:1039B00097FA23480068A8B9201DFFF791FA94F8F8
:1039C0002C10012088401F49096808431D490860E0
:1039D000E16A01EB81011C4A02EB8100211DFFF726
:1039E000BDFA04E004F118011848FFF7B7FA1849C6
:1039F000E06A0968C96A884204D90125012015498D
:103A0000086000E00025284670BD00005468697217
:103A1000645F50617274795C4672656552544F53AD
:103A20005C736F757263655C7461736B732E630096
:103A30004572726F723A25732C25640D0A000000DE
:103A4000AC0000208C00002074C900201CCC002099
:103A5000740000209800002070B50024002634482F
:103A6000006828B94FF4FD6232A13BA0FEF7B0FB1D
:103A7000FFF780FA2E480068401E2D49086008466E
:103A8000006800284FD13848006800284BD024E057
:103A90003648C068C46804F11800FFF721FA201DF9
:103AA000FFF71EFA94F82C1001208840304909686D
:103AB00008432F490860E16A01EB81012D4A02EBBE
:103AC0008100211DFFF74AFA2B49E06A0968C96A9B
:103AD000884202D30120294908602448006808B9B7
:103AE000012000E000200028D2D00CB1FFF7E6F85A
:103AF0002348056865B100BFFFF794FE10B10120AF
:103B00001E4908606D1E002DF6D100201C4908607A
:103B10001A48006838B1012630071A490860BFF317
:103B20004F8FBFF36F8FFFF767FA304670BD00000D
:103B3000AC00002054686972645F50617274795CF3
:103B40004672656552544F535C736F757263655C62
:103B50007461736B732E63004572726F723A2573D2
:103B60002C25640D0A000000840000201CCC0020DD
:103B70008C00002074C900207400002098000020F0
:103B80009400002004ED00E00000000000000000B0
:103B900001020304060708090000000001020304F3
:103BA000C03B000800000020BC00000028220008E4
:103BB0007C3C0008BC0000209CD10000382200089A
:103BC0000024F400000000001000000001000000CC
:103BD00000000000000000000000000000000000E5
:103BE00001000000000000000000000000000000D4
:103BF00000000000000000000000000000000000C5
:103C000000000000000000000000000000000000B4
:103C100000000000000000000000000000000000A4
:103C20000000000000000000AAAAAAAA00000000EC
:103C30000000000000000000000000000000000084
:103C40000000000000000000000000000000000074
:103C50000000000000000000000000000000000064
:103C60000000000000000000000000000000000054
:0C3C700000000000000000000000000048
:040000050800018965
:00000001FF
