:020000040802F0
:100000009820012055020208D92802084B2702082F
:10001000D528020845050208BD2E02080000000090
:100020000000000000000000000000009D01020828
:100030007506020800000000F1010208392A0208D2
:100040006F0202086F0202086F0202086F020208C4
:100050006F0202086F0202086F0202086F020208B4
:100060006F0202086F0202086F0202086F020208A4
:100070006F0202086F0202086F0202086F02020894
:100080006F0202086F0202086F0202086F02020884
:100090006F0202086F0202086F0202086F02020874
:1000A0006F0202086F0202086F0202086F02020864
:1000B0006F0202086F0202086F0202086F02020854
:1000C0006F0202086F0202086F0202086F02020844
:1000D0006F020208912E02086F0202086F020208E6
:1000E0006F0202086F0202086F0202086F02020824
:1000F0006F0202086F0202086F0202086F02020814
:100100006F0202086F0202086F0202086F02020803
:100110006F0202086F0202086F0202086F020208F3
:100120006F0202086F0202086F0202086F020208E3
:100130006F020208050702086F0202086F02020838
:100140006F0202086F0202086F0202086F020208C3
:100150006F0202086F0202086F0202086F020208B3
:100160006F0202086F0202086F0202086F020208A3
:100170006F0202086F0202086F020208000000000E
:100180006F0202086F020208DFF80CD000F004F9D9
:100190000048004741540208982001202A4B196862
:1001A0000868B0E8F04F80F30988BFF36F8F4FF015
:1001B000000080F3118870470000000006480068C6
:1001C000006880F3088862B661B6BFF34F8FBFF353
:1001D0006F8F00DF00BF00BF08ED00E0DFF80C000C
:1001E000016841F470010160704700BF88ED00E0D4
:1001F000EFF30980BFF36F8F134B1A681EF0100FD7
:1002000008BF20ED108A20E9F04F106008B44FF0CD
:10021000500080F31188BFF34F8FBFF36F8F0AF048
:100220008FFE4FF0000080F3118808BC1968086841
:10023000B0E8F04F1EF0100F08BFB0EC108A80F34A
:100240000988BFF36F8F70475C010020EFF30580D2
:10025000704700000648804706480047FEE7FEE773
:10026000FEE7FEE7FEE7FEE7FEE7FEE7FEE7FEE766
:100270004D2B0208890102082DE9F05F0546002098
:1002800092469B4688460646814640241BE0284607
:1002900041464746224600F06EF853465A46C01A79
:1002A000914110D311461846224600F055F82D1AF8
:1002B00067EB01084F4622460120002100F04CF870
:1002C00017EB00094E41201EA4F10104DFDC484673
:1002D00031462A464346BDE8F09F10B5431A934283
:1002E00009D28318881803E010F8011D03F8011DD6
:1002F000521EF9D210BD40EA01039B0703D009E06A
:1003000008C9121F08C0042AFAD203E011F8013B01
:1003100000F8013B521EF9D210BDD2B201E000F844
:10032000012B491EFBD270470022F6E710B5134699
:100330000A4604461946FFF7F0FF204610BD30B5C7
:1003400004460020034600E05B1C934203D2E05CBD
:10035000CD5C401BF8D030BD202A04DB203A00FAE7
:1003600002F1002070479140C2F1200320FA03F30C
:10037000194390407047202A04DB203A21FA02F00A
:100380000021704721FA02F3D040C2F120029140CF
:100390000843194670470000064C074D06E0E06828
:1003A00040F0010394E8070098471034AC42F6D3BC
:1003B000FFF7EEFE80BF0208A0BF020830B58C1820
:1003C00010F8012B12F00F0301D110F8013B1209B4
:1003D00006D110F8012B03E010F8015B01F8015B76
:1003E0005B1EF9D101E001F8013B521EFBD1A14295
:1003F000E6D3002030BD00001CB5234800F080FD8E
:1004000000F0FEFA2148006840F001001F49086032
:1004100002208DF8000000208DF801008DF8020008
:100420008DF803008DF804008DF805001848164972
:10043000086001204860002113480182C0F814D0F0
:10044000012181610021C1614FF400010162491263
:100450008160C910C16000F00FFE04461CB90DA0F8
:1004600002F03CFD02E017A002F038FD0823214A0B
:100470002149054800F002FD0823204A204902488E
:1004800000F0B6FC20461CBD8C0400200090024009
:10049000008002403C3C2D44454255472D494E4684
:1004A0004F2D3E3E206574682068617264776172EA
:1004B0006520696E6974207375636573732E2E2EC3
:1004C0000A0A00003C3C2D44454255472D494E4602
:1004D0004F2D3E3E206574682068617264776172BA
:1004E0006520696E6974206661696C642E2E2E0A1F
:1004F0000A00000074360020D4050020D406002035
:10050000D404002000F50071C0F80812C0F8000201
:10051000C0F804020021C0F80C127047D0F80C1289
:10052000491CC0F80C127047F0B507460D46164638
:10053000002404E0295D38460AF05EFD641CB442E4
:10054000F8D3F0BD00BFFEE786B000200090012088
:10055000029003900220049062E001200AF000FB68
:100560003048D0F80C020A285AD32F492D4803F0FE
:1005700019FD002854D02C4800884AF2CD518842F9
:100580004ED1294802F046FE012847D001F09AF9E1
:1005900026480068B0F1AA3F0ED100BF05A9684601
:1005A00001F0E8F80028F9D04FF0AA3200231F49E3
:1005B000022001F03FF912E01C480068B0F1553FFD
:1005C0000DD100BF05A9684601F0D4F80028F9D183
:1005D0004FF0553200231549022001F02BF94FF05E
:1005E000AA3200231149091D022001F023F901F06C
:1005F00017F90A200AF0B4FA00BFBFF34F8F0C4876
:10060000006800F4E0600B490843001D08490860D9
:10061000BFF34F8F00BF00BF00BFFDE702F05DF9E1
:100620009BE70000A4010020B40300200040000864
:100630000CED00E00000FA0510B50C480C4908600C
:100640004FF4E1304860002109488160C1600161D8
:1006500081610C21416101F083FF05480068C06899
:1006600040F0200002490968C86010BD0010014038
:10067000440400207047016801F58051896941F008
:100680000202016801F580518A617047016801F535
:100690008051896941F40052016801F580518A61F5
:1006A0007047000008B508490968C9084FF47A7214
:1006B000B1FBF2F14143009100BF00BF00994A1E17
:1006C00000920029F9D108BD0000002038B5044689
:1006D00000200090206800F58050806940F480116F
:1006E000206800F580508161206800F580508069A5
:1006F00000900120FFF7D6FF0099206800F5805098
:10070000816138BD10B500BF5021EFF3118081F336
:100710001188BFF34F8FBFF36F8F00BF04460448AB
:1007200000F058FC204680F3118800BF10BD000087
:100730008C04002030B503461479557944EA05202D
:10074000084C0C442064D4782406957844EA054487
:10075000557844EA0524157844EA0500014C0C4418
:10076000606430BD0080024070B5AEB004460E46F5
:10077000002526B14FF40061E160C900A1600020AE
:10078000119012901390149015901690E06918B97A
:100790004FF48060179001E0002017904FF4007034
:1007A0001890002019901A901B901C901D904020CA
:1007B0001E9000201F902090219022902390249042
:1007C00025902690802027900020289029902A901C
:1007D0002B902C902D902068056871480540DDE92C
:1007E000110108431399084314990843A168084369
:1007F0001599084316990843E16808431799084377
:1008000018990843199908431A9908431B990843F2
:1008100005432068056020680568012000F0D4FACF
:1008200020680560DDE91C0108431E9908431F99F3
:1008300008432099084321990843229908432399A2
:1008400008432168486020684568012000F0BCFA30
:100850002068456024982168886025982168C860D0
:10086000206885694FF641700540DDE9261040EAB1
:10087000014028990843299908432A9908432B994C
:10088000084305432068856120688569012000F0E0
:100890009BFA20688561DDE92C0108432168C86165
:1008A0002068C569012000F08FFA2068C56100202A
:1008B00001904FF000700290002003904FF4001060
:1008C000049000200590069007900890042009905D
:1008D000C0050A9040120B9080010C9040120D90C0
:1008E00080200E9000200F901090206800F580501E
:1008F00085692C480540DDE9010108430399084357
:100900000499084305990843069908430799084341
:1009100008990843099908430543206800F5805069
:100920008561206800F580508569012000F04CFA4F
:10093000206800F580508561DDE90A0108430C99C3
:1009400008430D9908430E9908430F9940EA810026
:100950001099084340F40001206800F580500160C0
:10096000206800F580500568012000F02DFA20680D
:1009700000F580500560A069012809D1206800F5C4
:100980008050C06908490843216801F58051C86159
:10099000002120466269FFF7CDFE2EB070BD000039
:1009A0000F8120FF233FDEF84000010038B50446E8
:1009B000002000902068006840F004002168086072
:1009C0002068006800900120FFF76CFE0098216805
:1009D000086038BD38B504460020009020680068E3
:1009E00040F008002168086020680068009001203D
:1009F000FFF758FE00982168086038BD00BFFEE789
:100A000000B587B000BF002001901448006840F492
:100A10008070124908600846006800F480700190F8
:100A200000BF00BF012003900490022005900290B7
:100A300002A90B4801F014F800220221084801F035
:100A400009F9052000F0C0F901220221044801F053
:100A500001F9052000F0B8F907B000BD30380240B8
:100A60000020024010B5002201B909E0012901D19E
:100A70000A0205E0022901D10A0201E04FF44072A6
:100A80000E4B1B6823F440730C4C236023461B68F9
:100A90001343236023461B6823F078032360234617
:100AA0001B68022444EAC0042343044C2360234609
:100AB0001B6843F48033236010BD0000103C0240EB
:100AC0001C48006800F40070B0B11A48006820F4B7
:100AD00000701849086000BF0846006840F40060D4
:100AE00008600846006820F40060086000BF0846FF
:100AF000006840F4007008600E48006800F48060F0
:100B0000B0B10C48006820F480600A49086000BF5A
:100B10000846006840F4805008600846006820F4E9
:100B20008050086000BF0846006840F4806008609C
:100B300070470000003C02400A4A126822F44072EA
:100B4000084B1A601A46126842F004021A601A46EC
:100B500012684FF4803343EA00231A43014B1A60B2
:100B600070470000103C0240074A126822F44072AD
:100B7000054B1A601A4612681A601A46126842F04B
:100B800001021A6001707047103C024010B50A491A
:100B9000096821F44071084C21602146096841F43C
:100BA000407121602146096841F001012160026025
:100BB000BFF36F8F436010BD103C0240084A1268BB
:100BC00022F44072064B1A601A46126842F4807290
:100BD0001A601A46126842F001021A6001807047DA
:100BE000103C0240084A126822F44072064B1A6018
:100BF0001A46126842F400721A601A46126842F0ED
:100C000001021A6001607047103C024023480068EE
:100C100000F0100040B12248C06940F010002049A7
:100C2000C86110201D4908601C48006800F02000C1
:100C300040B11B48C06940F008001949C861202034
:100C4000164908601548006800F0400040B114489B
:100C5000C06940F004001249C86140200F49086093
:100C60000E48006800F0800040B10D48C06940F0B7
:100C700002000B49C86180200849086007480068E5
:100C800000F0020040B10648C06940F0200004496D
:100C9000C861022001490860704700000C3C024016
:100CA0001000002070B50446002500201449C861DA
:100CB00000F0DCFF054609E0601C38B124B100F00B
:100CC000D5FF401BA04201D9032070BD0D4800682C
:100CD00000F480300028EFD10A48006800F00100DD
:100CE00010B10120074908600648006800F0F200D2
:100CF00018B1FFF78BFF0120E7E70020E5E70000D0
:100D0000100000200C3C024008B500BF00200090FD
:100D10002C48006840F080002A49086008460068B6
:100D200000F08000009000BF00BF00BF00200090D6
:100D30000846006840F0010008600846006800F0BE
:100D40000100009000BF00BF00BF002000900846D7
:100D5000006840F0020008600846006800F00200E9
:100D6000009000BF00BF00BF002000900846006850
:100D700040F0040008600846006800F0040000909D
:100D800000BF00BF00BF002000900846006840F090
:100D9000400008600846006800F04000009000BF76
:100DA00000BF00BF002000900846006840F480703B
:100DB00008600846006800F48070009000BF00BF23
:100DC00008BD00003038024070B5044600F04EFF08
:100DD00006462546681C10B104480078054400BF4B
:100DE00000F044FF801BA842FAD370BD0C00002025
:100DF00070B504460D461646002200BF94F8450023
:100E0000012801D1022070BD012084F8450000BFF7
:100E1000022084F84400A56200221FE005EB421185
:100E20004FF00040086044F2F4504860C2EBC2103A
:100E300000EB400006EB80008860A069012803D128
:100E4000486820F000404860581E904204D905EBE5
:100E500042102030C86000E0CD60521C9A42DDD3C1
:100E6000206800F58050C560012084F8440000BF70
:100E7000002084F8450000BF00BFC4E770B50446F9
:100E80000D461646002200BF94F84500012801D106
:100E9000022070BD012084F8450000BF022084F8C4
:100EA0004400E56200221BE005EB42114FF4801084
:100EB0000860C2EBC21000EB400006EB80008860C7
:100EC000E06918B9086840F440000860581E904274
:100ED00004D905EB42102030C86000E0CD60521C00
:100EE0009A42E1D3206800F580500561012084F822
:100EF000440000BF002084F8450000BF00BFC8E7E1
:100F000010B50446022084F84400204600F002FA9E
:100F1000002084F8440000BF84F8450000BF10BDE5
:100F200070470146002200BF91F84500012801D119
:100F300002207047012081F8450000BF022081F89F
:100F40004400886A006800F00040002838D1886AB0
:100F5000006800F48070F0B1886B401C8863886B77
:100F6000012801D1886A08638B6A4B63886A00682C
:100F7000C0F30D40021FCA63086B83680B64886A64
:100F8000C0688862012081F8440000BF002081F819
:100F9000450000BFCDE7886A006800F4007048B1E2
:100FA000886A086300234B6301238B63886AC068E7
:100FB000886205E0886B401C8863886AC068886224
:100FC000012081F8440000BF002081F8450000BFE7
:100FD0000120AEE710B50446206800F58050406956
:100FE00000F0400040280FD1204600F099FA40213F
:100FF000206800F580504161012084F8440000BF62
:10100000002084F8450016E0206800F58050406913
:1010100000F0010078B1204600F062FB0121206859
:1010200000F580504161012084F8440000BF002099
:1010300084F8450000BF4FF48031206800F58050EF
:101040004161206800F58050406900F40040B0F52F
:10105000004F10D12046FFF763FF4FF40041206896
:1010600000F580504161012084F8440000BF002059
:1010700084F8450000BF10BD2DE9FC410446002561
:10108000002001909C4E0027804614B90120BDE845
:10109000FC8194F8440028B9002084F845002046DB
:1010A00000F06EF900BF002000909448006840F402
:1010B0008040924908600846006800F48040009033
:1010C00000BF00BF8E48006820F400008C49086013
:1010D00008460068216A084389490860206800F5CD
:1010E0008050006840F00101206800F580500160E8
:1010F00000F0BCFD07460FE000F0B8FDC01BB0F5E6
:10110000FA7F09D9032084F8440000BF002084F846
:10111000450000BF0320BAE7206800F58050006852
:1011200000F001000028E7D12068056925F01C05C2
:1011300000F01CFF06467348864205D3724886427B
:1011400002D245F008051AE06F48864205D36A4886
:10115000864202D245F00C0511E06748864203D36F
:101160006A48864200D20AE06848864205D3684849
:10117000864202D245F0040501E045F010052068E2
:1011800005614FF400420021204600F0AAFA48B160
:101190004FF0010841462046FFF7E6FA012084F8A7
:1011A000440074E70520FFF70FFE6068002871D047
:1011B00000F05CFD074600BF01AA0121204600F0B7
:1011C00065F900F053FDC01B41F2883188420FD908
:1011D0004FF0010841462046FFF7C6FA012084F887
:1011E000440000BF002084F8450000BF03204EE704
:1011F000019800F004000428DED18202002120467C
:1012000000F06FFA48B14FF0010841462046FFF761
:10121000ABFA012084F8440039E700F027FD0746C7
:1012200000BF01AA0121204600F030F900F01EFDA8
:10123000C01B41F2883188420FD94FF00108414666
:101240002046FFF791FA012084F8440000BF0020F7
:1012500084F8450000BF032019E7019800F0200042
:101260002028DED101AA1F21204600F00FF948B145
:101270004FF0010841462046FFF776FA012084F836
:10128000440004E7019800F0100020B14FF4006121
:10129000E16002E00DE00021E160019800F004004F
:1012A000042802D10021A1601DE04FF48041A1601B
:1012B00019E0E068C0F3CF00A168C1F34F0140EA34
:1012C00001020021204600F00CFA48B14FF001085D
:1012D00041462046FFF748FA012084F84400D6E64C
:1012E0000520FFF771FD41462046FFF73DFA01203A
:1012F00084F844000020CAE6008793034438024083
:1013000004380140002D3101C00E160200E1F50540
:1013100080D1F00810B5044614492068884223D1D2
:1013200000BF1348006820F080601149086008463B
:10133000006820F0006008600846006820F0007037
:10134000086000BF32210B4800F0D6FA86210A4817
:1013500000F0D2FA4FF40061084800F0CDFA4FF4E3
:10136000C041064800F0C8FA10BD000000800240ED
:1013700030380240000802400000024000180240DD
:1013800010B586B004463C492068884271D13220AD
:1013900001900220029000200390032004900B2073
:1013A000059001A9354800F05BFB862001900220E2
:1013B000029000200390032004900B20059001A9C7
:1013C0002F4800F04DFB4FF4006001900220029086
:1013D00000200390032004900B20059001A92948C8
:1013E00000F03EFB4FF4C04001900220029000202C
:1013F0000390032004900B20059001A9214800F0E0
:101400002FFB002206213D2000F09BFC3D2000F038
:1014100084FC00BF00BF002000901B48006840F023
:101420000070194908600846006800F000700090DC
:1014300000BF00BF00BF002000900846006840F0D9
:10144000806008600846006800F08060009000BF7F
:1014500000BF00BF002000900846006840F0006018
:1014600008600846006800F00060009000BF00BF00
:1014700000BF06B010BD000000800240000802401E
:101480000000024000180240303802402DE9F041CF
:1014900004460E4617460025A84694F844008228C4
:1014A00002D10220BDE8F081822084F84400206847
:1014B000056905F01C05208A4FF4784101EAC02037
:1014C0000543481100EA8610054325F0020545F062
:1014D00001052068056100F0C9FB804612E000F0BC
:1014E000C5FBA0EB0800B0F5803F09D3012084F8CC
:1014F000440000BF002084F8450000BF0320D1E76E
:101500002068056905F001000028E8D120684069DD
:1015100080B23860012084F844000020C2E7000057
:1015200038B50446002000906946074800680AF074
:10153000F7F8009838B14FF0805004490860BFF3C5
:101540004F8FBFF36F8F38BD0401002004ED00E022
:1015500010B5044600BF94F84500012801D10220CF
:1015600010BD012084F8450000BF022084F844002B
:101570002046FFF72FFA2046FFF718FA2046FFF71C
:10158000A5F82046FFF782F82046FFF774F80120FF
:1015900084F8440000BF002084F8450000BF00BF6D
:1015A000DEE770B5024600230025002400BF92F854
:1015B0004500012801D1022070BD012082F84500BC
:1015C00000BF022082F8440049B9012082F844009B
:1015D00000BF002082F8450000BF0120ECE7D06A80
:1015E000006800F0004048B1122082F8440000BFBB
:1015F000002082F8450000BF0120DDE740F2F450F2
:10160000814208D9B1FBF0F3B1FBF0F600FB1610F4
:1016100010B15B1C00E00123012B13D1D06A0068DC
:1016200040F04050D66A3060C1F30C00D66A70605A
:10163000D06A006840F00040D66A3060D06AC06866
:10164000D06232E000242EE0D06A006820F04050E2
:10165000D66A30602CB9D06A006840F08050D66AF3
:10166000306040F2F450D66A7060581EA04210D12B
:10167000D06A006840F00050D66A3060581EC0EB57
:10168000C01000EB4000A1EB8005C5F30C00D66A4A
:101690007060D06A006840F00040D66A3060D06A5E
:1016A000C068D062641C9C42CED3106800F58050A4
:1016B000406900F0040048B10426106800F580502D
:1016C00046610026106800F580504660012082F8CF
:1016D000440000BF002082F8450000BF00BF6BE758
:1016E00070472DE9F04104460E4617460025A846EE
:1016F00094F84400422802D10220BDE8F081422043
:1017000084F844002068056905F01C05208A4FF420
:10171000784101EAC0200543481100EA86100543DC
:1017200045F0020545F00105B8B22168486120681E
:10173000056100F09BFA804612E000F097FAA0EBFA
:101740000800B0F5803F09D3012084F8440000BFB1
:10175000002084F8450000BF0320CEE7206805691B
:1017600005F001000028E8D1012084F844000020A1
:10177000C3E700002DE9F04104460F46002600BFF4
:101780002548007E012802D10220BDE8F081012019
:101790002149087600BF4CF25030FFF783FA054626
:1017A000002D31D1401E3860206801280FD1207CE7
:1017B0006168FFF7C1F94CF25030FFF773FA054644
:1017C0001648006820F00400144908601AE0A66872
:1017D00012E0217C3046FFF745F94CF25030FFF71C
:1017E00061FA05460D48006820F07A000B49086050
:1017F0000DB13E6005E0761CD4E902100844B04209
:10180000E7D800BFFFF75CF900BF00200249087667
:1018100000BF2846B9E7000010000020103C02403D
:101820000348006840F0004001490860002070470C
:10183000103C02402DE9F0410646884614461D46FC
:1018400000BF1E48007E012802D10220BDE8F081C1
:1018500001201A49087600BF4CF25030FFF722FAF7
:1018600007461FBB26B9E1B24046FFF77DF912E0FB
:10187000012E04D1A1B24046FFF7A0F90BE0022EE1
:1018800004D121464046FFF7ADF904E022462B463D
:101890004046FFF77BF94CF25030FFF703FA07465A
:1018A0000748006820F001000549086000BF0020DB
:1018B0000249087600BF3846C8E700001000002043
:1018C000103C024000200949096801F0004159B16B
:1018D0000749064A0C3A1160064911600349096834
:1018E00001F0004101B1012070470000103C0240AE
:1018F00023016745AB89EFCDF0B50C4600250022EA
:101900000023002194E0012606FA01F504EA05020D
:10191000AA427DD1484E8F0856F827308E07370FE0
:101920000F26BE403340454EB04201D1002623E091
:10193000434EB04201D101261EE0424EB04201D1D9
:10194000022619E0404EB04201D1032614E03F4E7A
:10195000B04201D104260FE03D4EB04201D1052630
:101960000AE03C4EB04201D1062605E03A4EB042B4
:1019700001D1072600E008268F073F0FBE409E4298
:1019800024D1364E36689643344F3E603E1D36684D
:1019900096433F1D3E60314E0C36366896432F4FBE
:1019A0000C373E603E1F366896433F1F3E608E07F1
:1019B000370F0F2606FA07F31F4E8F0856F82760D9
:1019C0009E431D4F4FEA910C47F82C6006684FEA82
:1019D000410C032707FA0CF7BE430660CF0800F15D
:1019E000200656F827604F074FEAD76C0F2707FAF3
:1019F0000CF7BE434FEAD10C00F1200747F82C60EA
:101A0000C6684FEA410C032707FA0CF7BE4300E013
:101A10000DE0C660466801278F40BE434660866879
:101A20004FEA410C032707FA0CF7BE438660491CB6
:101A30001029FFF468AFF0BD0838014000000240F3
:101A40000004024000080240000C02400010024066
:101A50000014024000180240001C0240003C0140FB
:101A6000F8B502460B460025002400200021D6E0F0
:101A7000012606FA01F51E6806EA0504AC4274D197
:101A80001E7906F00306012E04D01E7906F0030627
:101A9000022E13D190684F000326BE40B0434F0082
:101AA000DE68BE4030439060506801268E40B043EF
:101AB0001E79C6F300168E40304350601E7906F042
:101AC0000306032E09D0D0684F000326BE40B04362
:101AD0004F009E68BE403043D0601E7906F003067A
:101AE000022E13D1CF0802F1200656F827004E0728
:101AF000F70E0F26BE40B0434F07FF0E1E69BE40D3
:101B00003043CF0802F1200646F8270010684F0046
:101B10000326BE40B0431E7906F003064F00BE40C8
:101B2000304310605E6806F44036002E76D000BF69
:101B3000002600963C4E366846F480463A4F3E609A
:101B40003E46366806F48046009600BF00BF374E1A
:101B50008F0856F827008E07370F0F26BE40B04378
:101B6000334EB24202D1002624E057E0314EB24259
:101B700001D101261EE0304EB24201D1022619E009
:101B80002E4EB24201D1032614E02D4EB24201D1B5
:101B900004260FE02B4EB24201D105260AE02A4E60
:101BA000B24201D1062605E0284EB24201D10726F5
:101BB00000E008268F073F0FBE4030431B4E8F08C2
:101BC00046F82700224E3068A0435E6806F480166F
:101BD00006B120431E4E3060361D3068A0435E685B
:101BE00006F4001606B12043194E361D3060184E1B
:101BF000361F3068A0435E6806F4003606B1204305
:101C0000134E361F3060361F3068A0435E6806F4FE
:101C1000803606B120430E4E083E3060491C102924
:101C2000FFF426AFF8BD00004438024008380140F8
:101C3000000002400004024000080240000C024084
:101C4000001002400014024000180240001C024034
:101C5000083C01400AB1816101E00B0483617047D7
:101C600001480068000C7047002004E0014800684B
:101C70007047000004000020034800680349097809
:101C80000844014908607047040000200C0000204F
:101C900010B50D48006840F400700B490860084614
:101CA000006840F4806008600846006840F4807076
:101CB0000860032000F084F80F2000F007F800F01F
:101CC0002BF8002010BD0000003C024070B5044617
:101CD0000E4800784FF47A71B1FBF0F00C490968B6
:101CE000B1FBF0F5284600F021FC08B1012070BDE1
:101CF000102C07D200222146501E00F022F8054881
:101D0000046001E00120F2E70020F0E70C00002071
:101D10000000002008000020704701460846002807
:101D20000DDB00BF00BF00F01F0301229A404309F2
:101D30009B0003F1E023C3F8002100BF00BF00BFF8
:101D400070472DE9F05F80460D461646002701F0EA
:101D5000D5F8074639462A46334601F00700C0F158
:101D6000070ABAF1040F02D94FF0040A01E0C0F1EA
:101D7000070AD14600F1040ABAF1070F02D24FF068
:101D8000000A01E0A0F1030AD4464FF0010A0AFA62
:101D900009FAAAF1010A0AEA020A0AFA0CFA4FF051
:101DA000010B0BFA0CFBABF1010B0BEA030B4AEA3C
:101DB0000B042146404601F0A9F8BDE8F09F000061
:101DC00000BF00F00702064B19684FF6FF031940E9
:101DD000044B0B4343EA0221014B196000BF7047DB
:101DE0000CED00E00000FA0570B504460D460CB994
:101DF000012070BD5848006800F00700A84209D2D1
:101E000055490D700846006800F00700A84201D04F
:101E10000120EEE7207800F0020002281DD1207892
:101E200000F00400042805D14C48006840F4E0505C
:101E30004A490860207800F00800082805D1474882
:101E4000006840F46040454908604448006820F05C
:101E5000F000A168084341490860207800F00100C3
:101E6000A8B36068012807D13C4808380068C0F36F
:101E70004040B8B90120BCE76068022802D0606821
:101E8000032807D1354808380068C0F3406048B9D6
:101E90000120AEE7314808380068C0F3400008B9B7
:101EA0000120A6E72D48006820F003006168084380
:101EB0002A490860FFF7DAFE064609E0FFF7D6FE7A
:101EC000801B41F28831884202D9032091E707E064
:101ED0002248006800F00C006168B0EB810FEDD182
:101EE0001D48006800F00700A84209D91A490D7082
:101EF0000846006800F00700A84201D0012078E7FA
:101F0000207800F00400042807D11448006820F469
:101F1000E050E168084311490860207800F00800AB
:101F2000082808D10D48006820F46040216940EA83
:101F3000C1000A49086000F03FF808490968C1F388
:101F40000311074A515CC84006490860064800680A
:101F5000FFF7BCFE00204CE7003C0240083802407E
:101F6000A0BD020800000020080000200148006811
:101F7000704700000000002000B5FFF7F7FF04499C
:101F80000968C1F38221034A515CC84000BD0000CA
:101F900008380240B0BD020800B5FFF7E7FF04496A
:101FA0000968C1F34231034A515CC84000BD0000DA
:101FB00008380240B0BD02082DE9F0470024002592
:101FC0000026A1462548006800F00C0020B1042836
:101FD00005D008283AD105E0DFF8849039E0DFF831
:101FE000849036E01D48001F006800F03F041B4845
:101FF000001F006800F4800078B11A481749091FD3
:102000000968C1F38811A0FB017001462246002334
:102010003846FEF731F905460EE011480F49091F11
:102020000968C1F38811A0FB017001462246002314
:102030003846FEF721F905460848001F0068C0F33E
:102040000140401C4600B5FBF6F902E0DFF81090B5
:1020500000BF00BF4846BDE8F087000008380240D6
:102060000024F40040787D01F8B504460CB9012045
:10207000F8BD207800F00100002874D0F94800680D
:1020800000F00C0004280DD0F648006800F00C00A9
:10209000082813D1F348001F006800F48000B0F551
:1020A000800F0BD1EF4808380068C0F3404000288B
:1020B00059D06068002856D10120D9E700BF606878
:1020C000B0F5803F08D1E7480838006840F4803018
:1020D000E449083908601EE06068B0F5A02F0DD112
:1020E000E0480838006840F48020DE49083908607C
:1020F0000846006840F4803008600CE0D948083891
:10210000006820F48030D749083908600846006824
:1021100020F48020086000BF606890B1FFF7A6FD42
:10212000054606E0FFF7A2FD401B642801D9032005
:102130009EE7CC4808380068C0F340400028F1D042
:1021400011E0FFF793FD054606E0FFF78FFD401B0A
:10215000642801D903208BE7C24808380068C0F31F
:1021600040400028F1D1207800F0020002285FD121
:10217000BC48006800F00C0058B1BA48006800F094
:102180000C0008281CD1B748001F006800F480002C
:10219000B0B9B44808380068C0F3400020B1E06826
:1021A000012801D0012063E7AE480838006820F01C
:1021B000F800216940EAC100AA490839086037E0FF
:1021C000E06800B30120A8490860FFF74FFD05460D
:1021D00006E0FFF74BFD401B022801D9032047E72B
:1021E000A04808380068C0F340000028F1D09D489E
:1021F0000838006820F0F800216940EAC1009949D8
:102200000839086014E0002097490860FFF72EFDA8
:10221000054606E0FFF72AFD401B022801D90320EE
:1022200026E7904808380068C0F340000028F1D144
:10223000207800F0080008282CD16069A8B101209E
:102240008A490860FFF712FD054606E0FFF70EFD1C
:10225000401B022801D903200AE782486C3000683D
:10226000C0F340000028F1D014E000207F4908604E
:10227000FFF7FCFC054606E0FFF7F8FC401B0228D0
:1022800001D90320F4E677486C300068C0F34000C1
:102290000028F1D1207800F00400042870D1002734
:1022A00070483830006800F0805090B900BF0020BE
:1022B00000906C483830006840F0805069493831EF
:1022C00008600846006800F08050009000BF00BF22
:1022D00001276748006800F48070B0B9644800685E
:1022E00040F4807062490860FFF7C0FC054606E0D4
:1022F000FFF7BCFC401B022801D90320B8E65C486C
:10230000006800F480700028F2D000BFA0680128A7
:1023100008D154486830006840F0010051496831E4
:1023200008601DE0A06805280DD14E48683000689F
:1023300040F004004B49683108600846006840F0EE
:10234000010008600CE047486830006820F0010098
:102350004449683108600846006820F004000860BD
:1023600000BFA068A8B1FFF781FC054609E0FFF7B0
:102370007DFC401B41F28831884202D9032077E678
:1023800026E0384868300068C0F340000028EED0EE
:1023900013E0FFF76BFC054608E0FFF767FC401B06
:1023A00041F28831884201D9032061E62D48683026
:1023B0000068C0F340000028EFD1012F07D1294861
:1023C0003830006820F0805026493831086000BF5E
:1023D000A069002845D02348006800F00C000828B8
:1023E0005DD0A069022845D100201F490866FFF78B
:1023F0003DFC054606E0FFF739FC401B022801D9E9
:10240000032035E6174808380068C0F3406000280C
:10241000F1D1D4E907010843616A40EA8111012240
:10242000A06AC2EB500041EA00412C20005D41EA65
:1024300000600C49091F086001200B490866FFF77E
:1024400015FC054606E0FFF711FC401B022801D9E8
:1024500003200DE6034808380068C0F340600028F8
:10246000F1D049E00838024000004742800E474260
:1024700000700040002021490866FFF7F7FB054681
:1024800006E0FFF7F3FB401B022801D90320EFE52C
:102490001B480068C0F340600028F2D12CE0A0691E
:1024A000012800D1E4E51648001D0668A06901284E
:1024B00020D006F48001E06981421BD106F03F0183
:1024C000206A814216D147F6C0703040616AB0EB95
:1024D000811F0FD106F440310122A06AC2EB5000E7
:1024E000B1EB004F06D106F070612C20005DB1EB1E
:1024F000006F01D00120BBE50020B9E50000474294
:1025000000380240042808D14FF0E021096941F069
:1025100004014FF0E022116107E04FF0E02109696A
:1025200021F004014FF0E0221161704770B50446BC
:102530002546681EB0F1807F01D301200FE0681EA0
:102540004FF0E02148610F214FF0FF3000F0DEFC3A
:1025500000204FF0E021886107200861002070BD55
:1025600010B504460CB9012010BDA06900B100E00F
:1025700000BF94F8410028B9002084F840002046AC
:1025800000F02AF8242084F841002068C06820F474
:1025900000502168C860204600F01EFB20680069DA
:1025A00020F49040216808612068406920F02A00EA
:1025B000216848612068C06840F400502168C86004
:1025C00000206064202084F8410084F8420000204C
:1025D000606300BFC8E7000010B586B0044600BFC6
:1025E000002000902748006840F01000254908604E
:1025F0000846006800F01000009000BF00BF00BF58
:10260000002000901F481438006840F001001D4968
:10261000143908600846006800F00100009000BF0F
:1026200000BF00BF002000900846006840F0010095
:1026300008600846006800F00100009000BF00BF7D
:10264000481501900220029001200390032004907D
:102650000720059001A90C48FFF702FA4FF48060AB
:1026600001900720059001A90748FFF7F9F9012219
:1026700000212520FFF765FB2520FFF74EFB06B064
:1026800010BD000044380240000002402DE9F84F20
:1026900004460E46174699464FF0000A94F841004A
:1026A000202850D106B117B90120BDE8F88F0020CD
:1026B0006064212084F84100FFF7D8FA8246A7849D
:1026C000E784A068B0F5805F04D1206910B90025C7
:1026D000B04602E035464FF000081EE053460022A7
:1026E00080212046CDF8009000F08CFB20B1202006
:1026F00084F841000320D8E745B9B8F80000C0F3DA
:1027000008002168486008F1020803E02878216881
:1027100048606D1CE08C401EE084E08C0028DDD118
:102720005346002240212046CDF8009000F06AFB7D
:1027300020B1202084F841000320B6E7202084F84F
:1027400041000020B1E70220AFE700BFFEE7000034
:1027500000B587B000BF002001902648006840F017
:102760002000244908600846006800F0200001901D
:1027700000BF00BF00BF002001900846006840F085
:10278000200008600846006800F02000019000BFAB
:1027900000BF00BF002001900846006840F0200004
:1027A00008600846006800F02000019000BF00BFEC
:1027B000402002900120039004900320059002A97C
:1027C0000D48FFF74DF98020029002A90A48FFF753
:1027D00047F94FF48070029002A90748FFF740F9CB
:1027E00040200549183108608020086040000860DA
:1027F00007B000BD303802400014024009E005482F
:10280000006880F08000034908604FF47A7008F097
:10281000A7F9F4E7141402400EB50021084607F0AA
:1028200001FE1C481C4908606FF07F401B4908608E
:102830001B481C4908601C481C490022194BCDE963
:1028400000210290154A1449194803F04BF9184821
:1028500003F094FA164890F82900C0F3800018B1EC
:10286000134803F0AEFA02E0114803F08DFA104865
:102870004068000E00900E484068C0F307430C48C3
:102880008088C0F307220A4801790AA000F026FBDD
:102890000EBD0000C0A8017A200100202401002004
:1028A000C0A8010128010020E1A402081D3E020881
:1028B00080B300206C6F63616C2069702061646478
:1028C000726573733A25642E25642E25642E256463
:1028D0000A0A000000BFFEE7704710B5FF2000F0B5
:1028E000EFFA10BD1CB50124FFF796FF08F006F8BB
:1028F0001748012100238022CDE9001015A11848B6
:1029000008F0E2FF0446012C03D116A000F0E6FA1D
:1029100002E01EA000F0E2FA2648032100234FF453
:102920008062CDE9001024A1284808F0CDFF0446BC
:10293000012C03D126A000F0D1FA02E031A000F072
:10294000CDFA08F01DF8002008F04CF91CBD00007D
:10295000340000204C45445F5461736B000000005C
:10296000FD2702083C3C2D44454255472D494E4623
:102970004F2D3E3E205461736B312063726561744C
:10298000656420737563636573730A003C3C2D4472
:10299000454255472D4552524F522D3E3E205461DF
:1029A000736B312063726561746564206661696C64
:1029B0000A00000038000020436865636B557067AB
:1029C000726164655F5461736B0000004905020821
:1029D0003C3C2D44454255472D494E464F2D3E3EE9
:1029E00020436865636B557067726164655F54610D
:1029F000736B2063726561746564207375636365CE
:102A000073730A003C3C2D44454255472D455252B4
:102A10004F522D3E3E20436865636B55706772616F
:102A200064655F5461736B206372656174656420D3
:102A30006661696C0A00000010B500BF5021EFF319
:102A4000118081F31188BFF34F8FBFF36F8F00BFE9
:102A50000446FFF711F908F067FF012801D008F0DC
:102A60008DFB00BF84F3118800BF10BD10B592B07C
:102A700000BF002000903248006840F0805030498C
:102A800008600846006800F08050009000BF00BF5A
:102A900000BF002000902B48006840F48040294986
:102AA00008600846006800F48040009000BF00BF46
:102AB0000120019000040290022007904105089136
:102AC000192109914FF4A8710A9102210B91072154
:102AD0000C9101A8FFF7C8FA08B1FDF78FFF0F208E
:102AE0000D9002200E9000200F904FF4A0501090F7
:102AF0004FF48050119005210DA8FFF775F908B12A
:102B0000FDF77CFFFFF732FA4FF47A71B0FBF1F476
:102B10002046FFF70BFD0420FFF7F4FC00221146CE
:102B2000501EFFF70EF9FFF79BF8B0F5805F05D94F
:102B30000548006840F480700349086012B010BD79
:102B40004038024000700040003C024005480068E8
:102B500040F4700003490860034802498039086066
:102B60007047000088ED00E00000020800BF00BFD1
:102B700002680C3252E8002F22F4907102680C3285
:102B800042E80013002BF3D100BF00BF00BF026872
:102B9000143252E8002F22F001010268143242E898
:102BA0000013002BF3D100BF016B01290ED100BF30
:102BB00000BF02680C3252E8002F22F010010268B8
:102BC0000C3242E80013002BF3D100BF202180F823
:102BD00042100021016370472DE9F84F0446206838
:102BE000006920F44050E1680843216808612169C8
:102BF000A068084361690843E169084300902068C0
:102C0000C06849F20C618843009908432168C86094
:102C10002068406920F44070A16908432168486138
:102C200076492068884203D075492068884203D1DC
:102C3000FFF7B2F9814602E0FFF79EF98146E069AD
:102C4000B0F5004F6CD102206168A0FB0150034633
:102C50001920A9FB007001462A463846FDF70CFBF7
:102C60006421B0FBF1F04FEA001A02206168A0FB7A
:102C700001510B461920A9FB00712A463846FDF781
:102C8000FBFA834602206168A0FB0150034619202D
:102C9000A9FB00712A463846FDF7EEFA6421B0FB25
:102CA000F1F000EBC00101EB0010ABEB8000322132
:102CB00001EBC0006421B0FBF1F000F0F8000AEB7A
:102CC000400A02206168A0FB015003461920A9FBBD
:102CD000007001462A463846FDF7CEFA83460220A8
:102CE0006168A0FB015003461920A9FB00712A4628
:102CF0003846FDF7C1FA6421B0FBF1F000EBC001EA
:102D000001EB0010ABEB8000322101EBC00064212D
:102D1000B0FBF1F000F007005044216888606AE0E1
:102D200004206168A0FB015003461920A9FB007034
:102D300001462A463846FDF79FFA8246042061681C
:102D4000A0FB015003461920A9FB007001462A464A
:102D50003846FDF791FA6421B0FBF1F000EBC001B9
:102D600001EB0010AAEB8000322101EB001064217E
:102D7000B0FBF1F000F0F00A04206168A0FB0170E4
:102D800003461920A9FB00513A462846FDF774FA7C
:102D90006421B0FBF1F00AEB001A04206168A0FB8B
:102DA00001510B461920A9FB00712A463846FDF750
:102DB00063FA834604206168A0FB01500346192092
:102DC000A9FB007001462A463846FDF755FA6421F2
:102DD000B0FBF1F000EBC00101EB0010ABEB8000A9
:102DE000322101EB00106421B0FBF1F000F00F0084
:102DF000504421688860BDE8F88F00000010014051
:102E0000001401402DE9F84304460D461746984644
:102E1000089E31E0701C70B3FEF728FFA0EB08009D
:102E2000B04200D816B90320BDE8F8832068C06816
:102E300000F00400F8B1802D1ED0402D1CD0206879
:102E40000068C0F3C000B0B100BF0020009020684F
:102E50000068009020684068009000BF00BF2046D6
:102E6000FFF784FE0820606400BF002084F8400063
:102E700000BF0120D8E7FFE7206800682840A8428B
:102E800001D1012000E00020B842C3D00020CBE7F0
:102E900008B5084800680068C0F3401048B105480C
:102EA00000684068C0B20090012269460248FDF700
:102EB0003BFB08BD44040020A401002000BFFEE746
:102EC00038B5044600944FF47A73012269460248EB
:102ED000FFF7DCFB38BD0000440400200FB4054BB5
:102EE00010B503A9044A029800F034F810BC5DF84C
:102EF00014FB0000053F020898010020024800680A
:102F0000C0F30220704700000CED00E010B500286F
:102F100004DB0A07130E054A135406E00A07140ED1
:102F2000034A00F00F031B1FD45410BD00E400E05F
:102F300018ED00E002E008C8121F08C1002AFAD10B
:102F400070477047002001E001C1121F002AFBD129
:102F5000704700002DE9FF4F8DB09B460F46044699
:102F6000002606E025280BD05A460F999047641C8E
:102F7000761C20780028F5D111B03046BDE8F08FDE
:102F80000025A8460122984900E0054314F8013FB6
:102F9000203B02FA03F00842F7D120782E2817D1FF
:102FA00014F8010F45F004052A280ED06FF02F0207
:102FB0002078A0F1300109290AD808EB880102EB3A
:102FC000410100EB0108641CF2E757F8048B641C14
:102FD00020786C280DD004DC4C2812D06A2811D13E
:102FE00004E074280DD07A280CD10AE045F40015CD
:102FF00007E0617845F48015814202D1641C05F533
:103000008015641C2278692A45D008DC002AB3D0D8
:10301000582A69D0632A10D0642A08D13BE0702A6C
:1030200067D0732A13D0752A5CD0782A5CD01046FA
:103030005A460F999047761CD3E017F8040B8DF889
:10304000000000208DF80100E946012003E057F858
:10305000049B4FF0FF3069074FF0000501D40AE0F0
:103060006D1C45450DDA8542FADB19F8051000297B
:10307000F6D106E06D1C8542FCDB19F8051000292D
:10308000F8D12E4404E019F8010B5A460F999047E5
:103090006D1EF8D2A5E00A200021CDE90801C5F394
:1030A000025002280DD001CFC117031E71F1000399
:1030B0000DDA4FF0000CD0EB0C006CEB01012D236E
:1030C00008E0FF1D27F00707F7E80201EDE72B05F1
:1030D00004D52B238DF8283001233BE0EB0739D0B2
:1030E0002023F7E70A2000E010200021CDE90801A5
:1030F00007E01020002145F00405CDE908014FF05C
:103100000808C5F3025002280FD001CF00214FF06C
:10311000000A2B071FD5702A0DD0DDE908C38CF0FB
:10312000100C5CEA030C0CD015E0FF1D27F007071C
:10313000F7E80201EBE740228DF828204FF0010A62
:103140000BE050EA010306D030238DF828308DF8CB
:10315000292002239A46582A04D024A20DF12009DE
:103160000B9209E026A2F9E7DDE90823FDF784F8D0
:103170000B9B9B5C09F8013D50EA0102F4D1ADEBD9
:10318000090020300890680701D44FF00108089921
:10319000884502DDA8EB010000E000208046002504
:1031A00006E00AA85A46405D0F9990476D1C761CB0
:1031B0005545F6DB04E030205A460F999047761CBF
:1031C000B8F10001A8F10108F5DC05E019F8010BE0
:1031D0005A460F999047761C0899481E0890002976
:1031E000F4DC641CC5E600000928010030313233EC
:1031F0003435363738396162636465660000000033
:10320000303132333435363738394142434445461C
:10321000000000002DE9F0470446608800F1040931
:10322000484602F095F905462E466088001D1FFAB3
:1032300080FA002748F20508207828702088000AC4
:103240006870A078A8706088000AE870002004E028
:10325000211D0A5C011D6A54401C61888142F7D817
:1032600094F88E106088001D2954B4F88E00010A6D
:103270006088401D295418E0802013E007F40041C5
:1032800031B14FF6FF7101EA470787EA080703E00B
:103290004FF6FF7101EA47073178014009B187EA2B
:1032A000080740100028E9D1761CBAF10000AAF105
:1032B00001011FFA81FADFD1B4F88E00B84205D1BE
:1032C000284600F02DFE0020BDE8F087284600F0DB
:1032D00027FE0120F8E72DE9F04104460D4600BF26
:1032E00005F0030008B100BF00BF00BF2E4603F089
:1032F00032FD0746A06800683060A0680660384666
:1033000003F052FDBDE8F08170B5054603F023FDE2
:103310000646A868046874B12068A968086000BF00
:1033200004F0030008B100BF00BF00BF304603F047
:103330003BFD204670BD304603F036FD0020F9E726
:1033400070B50546002411E004EB4400094901EB87
:10335000C000067D4EB104EB440001EBC000806864
:10336000A84202D1204600F0E3F8641C0A2CEBDBF3
:1033700070BD000040B200202DE9FE4F0546884692
:1033800016464FF00A09CA460A270024BB46002009
:1033900002900190009000BF6AE004EB4400634A91
:1033A00002EBC000017D0A2F02D109B927465DE07A
:1033B00000295BD000BF012903D0022901DA00BF38
:1033C00000BF00BFA5B104EB4402584B03EBC2029F
:1033D0002868526890420BD13EB104EB44001A4673
:1033E00002EBC0008068B04202D12046BDE8FE8FEB
:1033F000012928D104EB44004C4A52F8300080B136
:1034000004EB440002EBC000428A029882422DDBAA
:10341000A34604EB4400454A02EBC000408A0290F8
:1034200024E004EB4400414A02EBC000428A0198C8
:1034300082421BDBA14604EB44003C4A02EBC00085
:10344000408A019012E0022910DB04EB4400374A65
:1034500002EBC000428A0098824207DBA24604EBDE
:103460004400324A02EBC000408A0090601C04B263
:103470000A2C92DB08F0020020B90A2F05D108F0CF
:10348000010010B94FF0FF30B0E70A2F01DA3C46D7
:1034900023E0BAF10A0F0ADA544600BF04EB4400F5
:1034A000224951F8300008B100BF00BF0CE0B9F16B
:1034B0000A0F01DA4C4607E0BBF10A0F01DA5C465D
:1034C00002E04FF0FF3091E700BF0A2C01DB00BFA4
:1034D00000BF00BF204600F02BF800BF0A2C01DB24
:1034E00000BF00BF00BF00BF04EB44000F4901EB69
:1034F000C000007D08B100BF00BF00BF35B104EBC4
:1035000044010A4A02EBC10128684860002004EB2C
:103510004401064A02EBC101488204EB4400114613
:1035200001EBC0008660204660E7000040B200204A
:1035300010B5044604EB44000C4951F8300060B16A
:1035400004EB4401094A52F8310002F073FE0020F6
:1035500004EB4401054A42F83100002004EB440129
:10356000024A02EBC101087510BD000040B2002004
:103570002DE9F04186B007460D4600BF15B906B0EB
:10358000BDE8F08100BF7C682088B0F5807F08D15D
:103590002079062805D16079042802D1608808289E
:1035A00003D0384602F046FEE9E7D4F80E00059055
:1035B000A0690490686810B90026B0460FE004982E
:1035C0006968884201D1012000E000200646059884
:1035D0006968884201D1012000E0002080460EB1D8
:1035E000012000E00220034604F1080205A9284654
:1035F00000F01AFBE088B0F5807F03D0B0F5007FC3
:1036000018D116E09EB1B8F1000F10D1022205AB1F
:1036100004F10800291DCDE90232CDE9001005F1C1
:10362000220302461E31284600F012FA00E000BFD5
:1036300001E000E000BF00BF384602F0FBFD00BF24
:103640009DE700002DE9FE4304460F461546A946B6
:1036500000BF0CB900BF00BF00BF00BF0FB900BF63
:1036600000BF00BF00BF0DB900BF00BF00BF2146B3
:10367000286800F04AFE10B1DFF8288186E028783B
:1036800000F0F000E02816D101208DF804000020A1
:103690008DF805005E208DF80600687800F07F0048
:1036A0008DF80700A8788DF80800E8788DF80900F3
:1036B0000DF1040869E02868A1680840D4E9011206
:1036C000114088420ED0288880B24FF6A961884206
:1036D00008D0E06810B104F10C0903E06FF00300BA
:1036E000BDE8FE833048007800EB40002F4901EB35
:1036F000C000007D02281BDB2B48007800EB400057
:1037000001EBC0008068A04212D12749097801EB83
:103710004101264A02EBC101D9F8000049688842FC
:1037200006D1214802783946204600F041F8D7E713
:10373000002622E006EB46001C4901EBC000007D9C
:10374000022818DB06EB460001EBC0008068A042AF
:1037500011D106EB4601154A02EBC101D9F8000070
:103760004968884207D110480670324639462046DB
:1037700000F01EF8B4E7701CC6B20A2EDADB3A4637
:103780004946204600F07AF8AAE700BF4FF40060EF
:10379000434604F1220239460090204600F00CFB1B
:1037A0009EE70000FCBE0208F800002040B20020A6
:1037B000F8B505460E46144600BF04EB44002E49FA
:1037C00001EBC000007D022801DA00BF00BF00BF8E
:1037D00004EB4400284901EBC000007D022839D1E8
:1037E00004EB440001EBC000408AB0F58E7F11DD90
:1037F00004EB44000A4602EBC000011D284600F01D
:1038000083F938BB032004EB44011B4A02EBC101DE
:1038100008751FE004EB4400174901EBC000408A23
:10382000B0F5877F16DB04EB44000B4603EBC000CA
:1038300000F10C0204EB440003EBC000011D28461C
:1038400000F06EF930B9032004EB44010A4A02EBA0
:10385000C10108754FF40060009004EB4400064974
:1038600001EBC00000F10C0305F1220231462846AD
:1038700000F0A2FAF8BD000040B200202DE9FC5F84
:1038800081460F46164609F1220001904FF0FF3A9B
:103890004FF0000B4946386800F037FD38B93878EA
:1038A00000F0F000E02802D00FB1386818B96FF0CE
:1038B0000F00BDE8FC9F4A4601213846FFF75CFD3A
:1038C0008046B8F1000F02DA4FFA88F0F1E700BF46
:1038D000B8F17F0F01D300BF00BF00BF08F0FF04A5
:1038E00004EB4400584901EBC000007D78B94FF06B
:1038F000010B012004EB4401534A02EBC10108759E
:1039000004EB4400114601EBC000C0F8089000BF72
:1039100004EB44004C4901EBC000007D012808D0B5
:1039200004EB440001EBC000007D022801DA00BF77
:1039300000BF00BFBBF1000F00D1E6B939464846D1
:1039400000F0E2F88246BAF1000F11D104EB440016
:103950003D4901EBC000007D012809D1BBF1000FFA
:1039600006D1002004EB4401374A02EBC101488232
:103970000EB950469DE700BF0EB900BF00BF00BFA3
:1039800004EB4400304901EBC000007D022811DB4C
:103990002E4804704FF40060009004EB440001EBEB
:1039A000C00000F10C0331464846019A00F004FAC9
:1039B000824647E004EB4400234901EBC000007D50
:1039C00001283FD100200090354611E000BF6889F2
:1039D0002989884203D1286808B100BF00BF00BF11
:1039E000287B00F0400010B10120009002E02D681B
:1039F000002DEBD100BF009838B132464FF4207152
:103A00000E2002F058FB054603E03546284602F03A
:103A1000DDFCA5B104EB44000B4951F8300030B196
:103A200004EB4401084A52F8310002F003FC04EBB5
:103A30004400054941F830504FF0000A01E04FF0D2
:103A4000FF3A00BF504634E740B20020F8000020A3
:103A50002DE9FC5F06460F4690469946DDE90CAB22
:103A60000020019000BF0EB900BF00BF00BF4FF49F
:103A700020721C210E2002F0FAF905461DB94FF004
:103A8000FF30BDE8FC9F00BF68891C2801DA00BF39
:103A900000BF00BF6C680F9801F081FCE08000BFA0
:103AA00096F82800062801D000BF00BF00BFD9F853
:103AB0000000A060B9F80400A081DBF80000C4F8A1
:103AC0001200BBF80400E082DAF80000C4F80E002F
:103AD0000E980068A0614FF48070208008206080FC
:103AE000062020710420607140F6060043463A46E5
:103AF00029460090304600F05FF9284602F09AFB14
:103B000000250198BDE7000070B504460D46034A44
:103B10002946204600F004F870BD0000FCBE0208F3
:103B20007FB504460D4616460121074A201D04F1C3
:103B300022038DE825000391324619462046FFF7FF
:103B400087FF04B070BD000002BF020870B50024FA
:103B500064E004EB4400334901EBC000057D002D17
:103B60005BD004EB440001EBC000408A401C04EB36
:103B700044012C4A02EBC101488204EB4400114687
:103B800001EBC000408AB0F5967F0DDA04EB4400EB
:103B900001EBC000007D01280AD104EB440001EBD9
:103BA000C000408A052803DB2046FFF7C1FC34E053
:103BB00004EB44001B4901EBC000007D032807D142
:103BC000042004EB4401174A02EBC101087524E00C
:103BD00004EB4400134901EBC000007D042807D129
:103BE000022004EB44010F4A02EBC101087514E006
:103BF00004EB44000B4901EBC000007D01280CD10F
:103C000004EB44020B4603EBC202111D04EB440219
:103C100003EBC2029068FFF777FF641C0A2C98DB65
:103C200070BD000040B200202DE9F84305460E4665
:103C30001746984600BF95F82800062801D000BF17
:103C400000BF00BF5EB1306848B12946306800F05F
:103C50005CFB20B9307800F0F000E02803D16FF071
:103C60000F00BDE8F8832A4641463046FFF784FB43
:103C70000446002C01DA60B2F3E7022004EB4401B1
:103C80001B4A02EBC101087504EB4400114601EB2D
:103C9000C000856004EB440001EBC0003968C160DE
:103CA000B9880182002004EB440102EBC101488283
:103CB00004EB4400114651F83000B0B104EB44006D
:103CC00051F83090002004EB440142F831004FF4E9
:103CD00000603B4605F1220249460090284600F06C
:103CE0006BF8484602F0A6FA00BF0020B9E70000D2
:103CF00040B200202DE9F04104460E464FF00E0878
:103D000060890E2800DC4FE0E07B18B996F82C00A3
:103D1000401CE0736568AF89287800F00100B0B1FD
:103D20002878012809D1687888B9A8785E280ED14A
:103D3000607B40F01000607309E006221D492846B0
:103D4000FCF7FDFA18B9607B40F008006073082F9B
:103D500003D0B7F5C16F22D110E096F8290000F02A
:103D6000080000B920E04146204602F045FB00B1C2
:103D70001AE03146204600F0E7FB11E096F82900F2
:103D800000F0080000B90FE04146204602F034FB85
:103D900000B109E031462046FFF7EAFB00E003E00E
:103DA00000BF0020BDE8F081204602F043FA002069
:103DB000F8E70000FCBE02082DE9F04705460E4674
:103DC00017469846DDF82090484601F0E8FA82460A
:103DD0000E21304602F00EF800B11BE07468A4F822
:103DE0000CA0D8F800002060B8F80400A080386863
:103DF000C4F80600B888608100BF95F8280006283E
:103E000001D000BF00BF00BF31462846AA699047D5
:103E1000BDE8F0876FF00100FAE7000070B50446D6
:103E2000042001F09DFC05462DB90FA0FFF756F8C0
:103E30004FF0FF3070BD00BF0CB900BF00BF00BF26
:103E4000E561732084F82A0074212B200155134862
:103E500060611348A061204601F066F804F1220079
:103E600028600020E6E700003C3C2D4445425547D1
:103E70002D4552524F522D3E3E2065746865726E3C
:103E8000657469665F696E69743A206F7574206F36
:103E900066206D656D6F72790A0A0000453602086A
:103EA0002D520208054600262C4628E000235A1E03
:103EB00019461348006807F00DFA01281FD106F0D3
:103EC0001DFD00BF204601F0F5F8064606F058FD3E
:103ED000AEB106F013FD214630462269904720B16D
:103EE000304602F0A7F9002607E000231A461946DB
:103EF0000348006807F0EEF9E4E706F041FDD5E776
:103F00000401002013B50C464FF47A730122694670
:103F10000248FEF7BBFB00981CBD000044040020D3
:103F200010B5002821D0114B0022001F196803E0B2
:103F3000814203D80A4649680029F9D152B1136871
:103F4000841A9C4204D1006818441060104602E0B4
:103F5000506000E0186039B102680B1A934203D137
:103F60000B681A4402604968416010BD9C01002042
:103F70000146D1F800221078D1F80C224AB1D1F8CC
:103F80000022521CC1F80022D1F80C22521EC1F8A6
:103F90000C22D1F80832D1F800229A4201D1C1F89E
:103FA00000127047F0B505460C4626E02846FFF79C
:103FB000DFFFCD281FD1D5F800020678AB2E06D141
:103FC0002846FFF7D5FF4AF6CD30208016E0AE2E0A
:103FD00006D12846FFF7CCFF4AF6CD6020800DE0E1
:103FE000A52E06D12846FFF7C3FF4AF2CD50208008
:103FF00004E00020F0BD0020FCE7D7E700BF00BFD1
:10400000D5F80C020028FBD0284600F027F8608085
:10401000002708E0D5F80C0228B12846FFF7A8FFD2
:10402000211DC8557F1C6088B842F3D8042707E0DB
:10403000D5F80C0220B12846FFF79AFF781EC7B2C8
:10404000002FF5D100BFD5F80C020228FBD328467B
:1040500000F004F8A4F88E002046CBE770B50446C3
:104060002046FFF785FF05462046FFF781FF0646FD
:1040700045EA062070BD70B505460C462246032170
:10408000284600F0CFF870BD2DE9FF5F05468A464F
:10409000634880680390039800780007860E142E0A
:1040A00000DAB3E06889042800D2AFE068680478D9
:1040B00014B1082C7ED100E0A3E0DFF8649109F18F
:1040C00014095748007D00F0F000E02800D1A1E07D
:1040D000534A1168506900F018F900B19AE0288934
:1040E000082800D292E0284600F0E4F820B12846E3
:1040F00002F0A0F8BDE8FF9F06F10E01284601F08E
:1041000079FEA0B3288930441FFA80FB28895845DE
:1041100000DD7FE04FF4207259460E2001F0A7FE2B
:10412000074607B976E0798906F10800814203D293
:10413000384602F07FF86DE0324678680399FCF764
:10414000CCF83146384602F057F938B100BF00BF0D
:1041500000BF00BF384602F06DF85BE029463846E4
:1041600001F0C4FF20B1384602F064F852E004E0E8
:10417000284602F05FF83D460AE006F10E012846A7
:1041800002F03AF920B100BF00BF00BF00BF41E01C
:10419000D5F804803146284601F02CFEF0B96F684E
:1041A000D9F80000F8601E4800693861002088F8DE
:1041B000000000E013E0A8F80200FF2038720020A1
:1041C000788101200021FF230A46CDE9010A0091F0
:1041D0004946284600F0A0FA834600BF11E0032CB0
:1041E0000ED00B2C0CD00C2C0AD0042C08D0052C93
:1041F00006D00D2C04D00E2C02D0112C00D000BF04
:1042000000BF00BF284602F015F873E7284602F009
:1042100011F86FE7284602F00DF800BF6AE70000CA
:10422000146600202DE9FF470746884691464FF463
:1042300020722421222001F01AFE04460CB9BDE8A8
:10424000FF8700BF6089242801D200BF00BF00BFE4
:10425000D7F804A0656885F8008085F801900020F3
:1042600068607968626802F108001C22FCF735F882
:10427000DAF80C00039003A800F0F2FB06465EB1EA
:104280000020688001200021FF2303AACDE9010658
:104290000091204600F040FA204601F0CBFF00BF1D
:1042A000CDE770B505460C4622460B212846FFF7A0
:1042B000B9FF70BDF0B5064600270024354619E069
:1042C0006989686801F08CF80444A0B200EB1444DA
:1042D000688900EBD0714910A0EB410149B10FB9D9
:1042E000012000E000200746E0B2C4F3072141EAC4
:1042F00000242D68002DE3D127B1E0B2C4F30721DB
:1043000041EA0024E04380B2F0BD18B502460092B5
:10431000D04300B10AB9012018BD91F8290000F07E
:10432000020008B90020F7E74868904201D1002058
:10433000F2E700988B681840D1E901342340984295
:1043400008D1886822EA00008C68E343984201D1D2
:104350000120E1E70020DFE72DE9F74F8CB00446AC
:104360000F464FF00008398CA1F11400C11700EB83
:104370005171C1F3CF0A1420059060680990DDF8EF
:10438000249099F8000000F00F001421B1EB800F89
:1043900004D06FF005000FB0BDE8F08F00BF60895A
:1043A000142802DA6FF00500F5E700BFB9F806003F
:1043B00000F0F5FF04900498C0F30C0007900498F7
:1043C00000F400500390208914381FFA80FBAFE0FE
:1043D0004FF6FF7000EACA00584501DD584603E079
:1043E0004FF6FF7000EACA0008904FF420721421C3
:1043F0000E2001F03CFD054605B99FE000BF68892D
:10440000142801DA00BF00BF00BF142268680999B0
:10441000FBF763FFD5F8049008980A904DE0618996
:104420000598081A80B2029000BF61890598814200
:1044300001DA00BF00BF00BF02990A98884201DA82
:104440000A9800E002988046B8F1000F03D10020DE
:104450000590246831E000F04DFB06461EB9284661
:1044600001F0E8FE6AE0616805980844334641229D
:104470004146CDE90008002001F0C5FD0B900B98E6
:1044800030B9304600F03BFB284601F0D3FE55E042
:10449000204601F09BFF74612A48306128460B9941
:1044A00001F0DAFD0A98A0EB080080B20A900A98A1
:1044B00010B100200590246800BF0A980028AED1F2
:1044C0000598404480B20590388C1438584501DB7B
:1044D000012000E0002006900798C0F30C00049033
:1044E000069808B1039818B1049840F4005004905D
:1044F000049800F054FFA9F806000899143188B216
:1045000000F04DFFA9F802000020A9F80A007B691D
:10451000294638460E9A9847284601F08BFE08989F
:10452000ABEB00001FFA80FB0798504480B2079065
:10453000BBF1000F7FF44CAF00202CE74FF0FF30B1
:1045400029E70000F94E02082DE9F04707460E461C
:104550007D6828780421B1EB201F05D0384601F092
:1045600069FE0020BDE8F087287800074FEA9068D0
:10457000688800F014FF81463989494503DD4946C2
:10458000384601F0DAFE7889404505DB3889484530
:1045900002DBB8F1140F04DA384601F04BFE0020BC
:1045A000E0E728694D494861E86808610846007DF0
:1045B00000F0F000E0280AD196F8290000F0010090
:1045C00018B1706808B134461CE000241AE0304687
:1045D00000F088F808B1344614E000243F48007D1C
:1045E0007F280FD03E48046809E0B44200D105E0BE
:1045F000204600F077F800B103E000BF2468002CEB
:10460000F3D100BF354908693146FFF77EFE28B96E
:104610003248007C00F0F000E02804D1384601F078
:1046200009FE00209EE724B9384601F003FE002071
:1046300098E7E8884FF63F71084038B1384600F0F7
:10464000FBF807460FB900208CE77D68234804601B
:104650004660856028780007800E204988814146A1
:10466000384601F0C9FE687A01280DD0062806D028
:1046700011280ED13146384605F0E6FF22E03146DA
:10468000384603F0A1F91DE031463846FFF7FCFC3F
:1046900018E0124948692146FFF737FE70B90F4804
:1046A000007D00F0F000E02808D00FFA88F13846CD
:1046B00001F01AFE02213846FFF7DDFC384601F012
:1046C000B9FD00BF00BF0020044908604860886051
:1046D00088810861486100BF44E70000146600203B
:1046E0009000002010B5044694F8290000F0010065
:1046F00070B1606860B1074840696168884205D060
:10470000044948692146FFF700FE08B1012010BDA9
:104710000020FCE7146600202DE9FE4F07460C46FA
:1047200015469846DDE90C9A0E9EA34625B10CB1BC
:10473000206808B906F1040B43462A465946384614
:10474000CDE9009A029600F003F8BDE8FE8F000064
:104750002DE9F84F05460F4690469A46DDF828B0F9
:104760000C9E00BFA87B012801D000BF00BF00BF86
:10477000B8F1000F3FD04FF014091421284601F082
:1047800039FB18B16FF00100BDE8F88F6C6800BF0D
:104790006889142801D200BF00BF00BF84F808A0B8
:1047A0000B986072D8F80000206148464FEAE97122
:1047B00009EB9171C1F3870141F04001217084F848
:1047C00001B0288900F0EBFD60800020E0801848EF
:1047D000008800F0E4FDA08015480088401C1449C2
:1047E00008801FB913480068E06001E03868E060A5
:1047F0000020608109E06889142802DA6FF0010066
:10480000C2E76C6820690090E846308C48B128897E
:10481000318C884205DD424631462846FFF79CFD33
:10482000B2E742462946304673699847ACE7000034
:10483000FA000020F4BE02082DE9F14F84B004987C
:104840004568287800F00F001421B1EB800F00D0EC
:10485000FCE0E88800F0A3FDC0F30C004FF6FF7108
:1048600001EAC00A688800F09AFD07462878000728
:10487000810E02910299B94200DDE7E00298381AF0
:1048800087B2049801F00EFC064673480188881927
:104890000A280ADD3146284600F0D0FA20B16E48D9
:1048A000008830440A2800DDD0E06C48046811E03C
:1048B0006069E968884209D1A0692969884205D1FF
:1048C000A089A988884201D1012000E0002000B120
:1048D00002E02468002CEBD100BF34B931462846F1
:1048E00000F016FA044694B9B0E0E88800F057FDED
:1048F000C0F30C0058B9E08900F051FDC0F30C0082
:1049000028B11422294604F10800FBF7E6FCE888E8
:10491000012121EA50100190019850B10AEB0701E2
:1049200088B2504503DB4FF6EB71884200DD79E039
:1049300000BF2046019A049900F0EDF883460BF180
:10494000010000B96EE044480088304442490880C4
:10495000019840B10AEB070188B2A083A17F41F022
:104960000101A17700BFBBF1010F59D1A08B143019
:1049700080B2009060684068D0F800906068456838
:10498000142204F108012846FBF7A7FC009800F068
:1049900006FD68800020E8806881606804900DE072
:1049A000D9F8040003901421484601F025FD49463A
:1049B000049801F051FB0398D0F80090B9F1000F72
:1049C000EED126480068844202D14FF000080EE084
:1049D0002248D0F8008006E0D8F80000A04200D1BC
:1049E00004E0D8F80080B8F1000FF5D100BF4146CF
:1049F000204600F073F9049801F054FB064600BF0E
:104A000015480088B04201DA00BF00BF00BF12485D
:104A10000088801B10490880049805B0BDE8F08F1D
:104A20000020FAE700BF0CB900BF00BF00BF6068FC
:104A300058B900BF09480068844201D000BF00BFD8
:104A400000BF0021204600F049F900BF049801F0A2
:104A5000F1FB0020E1E7000000010020FC00002045
:104A600010B502462148016821E091F8290000F0C4
:104A70000100D8B191F82900C0F38000B0B14868B6
:104A8000A0B110688B681840D1E9013423409842E6
:104A900001D1084610BD91F8290000F0020028B9A4
:104AA0001068CB68984201D10846F3E709680029ED
:104AB000DBD10F480068A0B10D48006890F82900CC
:104AC00000F0010068B10A48006890F82900C0F3BE
:104AD000800030B106480068406810B110787F2827
:104AE00001D10020D6E702480068D3E790000020FB
:104AF0009400002010B5052000F0E2FF10BD10B5B5
:104B0000044600BF0CB900BF00BF00BF214605200E
:104B100000F09CFF10BD2DE9F74F84B00646884693
:104B2000002501200190D8F80400029002994888DD
:104B300000F035FC8346029800780007800E039051
:104B40000398584503DD681E07B0BDE8F08F039851
:104B5000ABEB00001FFA80FB0299C88800F01FFC35
:104B6000C0F30C004FF6FF7101EAC00A00BF00BF9E
:104B7000D8F8044000202060A4F804A00AEB0B0041
:104B8000E080E088504502DA4FF0FF30DCE7D6F8ED
:104B900004903EE0D9F80470A088B988884220DAF1
:104BA000C4F800909DB1A088E988884203DBE088C2
:104BB000B988884202DD4FF0FF30C5E7C5F80080B4
:104BC000E888A18888420BD00020019008E0E088A6
:104BD000B988884202DD4FF0FF30B5E7C6F804809F
:104BE0001AE0A088B988884202D14FF0FF30ABE7C5
:104BF000A088F988884202DA4FF0FF30A4E72DB18F
:104C0000E888B988884201D000200190D7F8009048
:104C10003D46B9F1000FBDD100BFB9F1000F19D168
:104C200085B100BFE888A188884201DD00BF00BFD0
:104C300000BFC5F80080E888A18888420AD000201B
:104C4000019007E000BF706808B100BF00BF00BF5F
:104C5000C6F80480069818B9B07F00F00100C0B310
:104C6000019890B3706818B170684068808810B17E
:104C70000020019029E02546D4F800900BE0D9F8F7
:104C80000440E888A188884202D00020019005E015
:104C90002546D4F80090B9F1000FF0D100BF01987B
:104CA00098B100BF706808B900BF00BF00BF00BF67
:104CB00070684068A04201D100BF00BF00BF00BFC4
:104CC000206808B100BF00BF00BF019810B10120EB
:104CD0003AE701E0002037E7002035E770B50446E9
:104CE0000D460A480068A04203D1084920680860C0
:104CF00006E000BF0DB900BF00BF00BF20682860FC
:104D00002146042000F0A2FE70BD0000FC0000203F
:104D100070B505460E46042000F0D2FE044664B984
:104D20003146284600F08AF8B04203DB042000F048
:104D3000C7FE04460CB9002070BD20212046FBF7B9
:104D4000F3FA0F20E077064800682060044804600A
:104D50001422294604F10800FBF7BFFA2046EBE7CE
:104D6000FC0000202DE9F04704468846002500BFDE
:104D7000A04501D100BF00BF00BFB8F1000F07D0B0
:104D800000BFD8F80000A04201D000BF00BF00BFA4
:104D90006068D0F80490B9F80400F0B96768D9F8F1
:104DA00000006060142204F108017868FBF795FAAE
:104DB00001213846FFF775FA384601F073F90646C7
:104DC00000BFA819B0F5803F01DB00BF00BF00BFE6
:104DD000A81985B2384601F02DFA676816E0D7F8B1
:104DE0000490BA46D9F80070504601F05BF90646C7
:104DF00000BFA819B0F5803F01DB00BF00BF00BFB6
:104E0000A81985B2504601F015FA00BF002FE6D16F
:104E100041462046FFF762FF00BF07480088A842CE
:104E200001DA00BF00BF00BF03480088401B0249F1
:104E300008802846BDE8F087000100202DE9F84FE2
:104E400005468946002700BF0026B2460020009094
:104E500083461B48046821E06069E968884207D1FD
:104E6000A0692969884203D1A089A988884201D014
:104E7000012000E0002068B10BF1010B1EB92646AD
:104E8000CDF800A006E0E07FF17F884202DC2646F4
:104E9000CDF800A0206800B1A2462468002CDBD128
:104EA0002EB130460099FFF75DFF804647444F45DD
:104EB00002DABBF1010FC7DC3846BDE8F88F00000D
:104EC000FC00002070B500250A4804680FE0E07F70
:104ED000002805DDE07F401EE0772546246806E0D7
:104EE0002646246829463046FFF73CFF00BF002CC9
:104EF000EDD170BDFC00002070B505462C4600BF0A
:104F00000CB900BF00BF00BF00BFAC4201D000BF62
:104F100000BF00BF606910B1606901F08BF92046E5
:104F2000FFF7EDFD70BD000038B50446FBF764FAED
:104F300005462DB994F8290040F0040084F82900B2
:104F4000062084F8280041484069007884F822004F
:104F50003E4840694178232001553C4840698178AA
:104F60002420015539484069C1782520015537482A
:104F7000406901792620015534484069417927204C
:104F8000015540F2DC50208494F8290040F00A00DA
:104F900084F829000021282006F00AF92C4908602D
:104FA00000212C4801F096FF10B92BA0FDF796FFC9
:104FB0003221324801F03EFF10B931A0FDF78EFFDB
:104FC00003204FF4806322463649009036A001F05A
:104FD000D9FF002206213D20FCF7B3FE3D20FCF75F
:104FE0009CFE00BF00BF002000903148006840F0E8
:104FF00000702F4908600846006800F000700090BB
:1050000000BF00BF00BF002000900846006840F0CD
:10501000806008600846006800F08060009000BF73
:1050200000BF00BF002000900846006840F000600C
:1050300008600846006800F00060009000BF00BFF4
:1050400000BF0248FCF784FA38BD00008C04002041
:1050500004010020080100203C3C2D4445425547F6
:105060002D494E464F2D3E3E207379735F73656D1B
:105070005F6E6577206F6B0A0A0000000C0100204C
:105080003C3C2D44454255472D494E464F2D3E3E12
:10509000207379735F6D626F785F6E6577206F6BD9
:1050A0000A0A0000A53E0208455448494E00000087
:1050B000303802402DE9F84F4FF000080026B34683
:1050C0000024A2460027002000903E48FBF729FF5D
:1050D00028B13DA0FDF702FF0020BDE8F88F394858
:1050E000808F1FFA80FB3748D0F84090594644A083
:1050F000FDF7F4FEBBF1000F06DD4FF4C172594617
:10510000002000F0B4FE8046B8F1000F2FD02D48EB
:10511000056B0024464628E077894FF0000A15E029
:1051200040F2F4531A1B09EB0401736803EB0A0005
:10513000FBF7D3F8ED68D5F8089040F2F450001B67
:105140003F1A40F2F450001B82440024381940F208
:10515000F4518842E4D809EB0401726802EB0A00BA
:105160003A46FBF7BAF83C443668002ED4D11548CD
:10517000056B0020009007E0286840F000402860A0
:10518000ED680098401C00900E48816B00988142A9
:10519000F2D800210B488163006800F58050406917
:1051A00000F0800058B180210648006800F580506A
:1051B000416100210348006800F58050816040464D
:1051C0008BE700008C0400203C3C2D4445425547B1
:1051D0002D4552524F522D3E3E205B6574686572DC
:1051E0006E657469662E635D3A52656365697665BE
:1051F000206672616D65206661696C640A0A000050
:105200003C3C2D44454255472D494E464F2D3E3E90
:105210002072656365697665206672616D65206CD4
:10522000656E203A2025640A0A0000002DE9F35F2C
:105230003E48006830B900213C4801F04BFE3B4835
:1052400001F076FE3A48C06AD0F808B03848C76A1C
:105250004FF0000900240026A246386800F0004004
:1052600010B16FF0070847E00021304801F078FDE9
:10527000019D39E06E894FF0000A22E040F2F453BC
:105280001A1B6B6803EB0A010BEB0400FBF725F814
:10529000FF68386800F0004010B16FF007082BE09D
:1052A000D7F808B040F2F450001B361A40F2F45020
:1052B000001B824440F2F450001B48441FFA80F95E
:1052C0000024301940F2F4518842D7D86A6802EBC2
:1052D0000A010BEB04003246FAF7FFFF344409EBF6
:1052E00006001FFA80F92D68002DC3D149461048E9
:1052F000FCF757F9A84600BF0D48006800F580503C
:10530000406900F0200058B120210948006800F5EC
:105310008050416100210648006800F580504160DE
:10532000024801F005FE4046BDE8FC9F1001002048
:105330008C0400202DE9F04104462546686880472A
:1053400001F0BEFD06460D49286809684718B81BDC
:10535000B0F1004F01D3012000E0002030B12968F6
:1053600088192246064901F097FE04E022460449C6
:10537000384601F091FEBDE8F0810000E800002011
:10538000355302080146080601F47F4240EA022034
:1053900001F47F0240EA122040EA116070470146A2
:1053A0000806000C40EA1120704708B50020009064
:1053B00000BF6846804201D000BF00BF00BF00BFF1
:1053C00000BF01F021FD00F067F900F053FB00F091
:1053D0007DFC05F037F902F0F5FA01F0A9FE08BDF1
:1053E000F8B505460A462B4600200090002103F040
:1053F000010636B1002A04DD13F8010B8DF8010017
:10540000521E1C4603E034F8027B3944921E012AE6
:10541000F9DC002A02DD20788DF80000BDF80000DC
:10542000014488B200EB114188B200EB114126B172
:10543000C8B2C1F3072747EA002188B2F8BD0000CF
:105440001CB50124FCF724FCFBF75EFCFDF70EFB0A
:10545000FCF738FAF32013490860FCF7E1F9FDF78F
:1054600077F9FBF7E9F81048FBF74CF80FA0FDF7C8
:1054700035FD1B48012100234A02CDE9001019A186
:105480001B4806F021FA0446012C05D119A0FDF7AE
:1054900025FD05F0F3FC02E022A0FDF71FFD00BF93
:1054A000FEE700000C3C0240A40100203C3C2D44DF
:1054B000454255472D494E464F2D3E3E205065688A
:1054C000726970686572616C7320696E6974696174
:1054D0006C697A656420737563636573730A000091
:1054E00030000020537461727475705461736B00E6
:1054F000E52802083C3C2D44454255472D45525273
:105500004F522D3E3E205374617274757054617316
:105510006B20637265617465642073756363657382
:10552000730A00003C3C2D44454255472D455252DC
:105530004F522D3E3E2053746172747570546173E6
:105540006B2063726561746564206661696C0A0032
:10555000F0B50B30154D20F007010024144A0FE080
:1055600003688B420BD38B4205D95E1A43184768F8
:10557000C3E9006700E04368136002C004E0021D55
:1055800010680028ECD12046002802D1286808B114
:105590000020F0BD064A07481060074A121A22F0A0
:1055A0000702C0E9002401202860D7E7A0010020FD
:1055B0009C0100209C1A0120981C012070B5054612
:1055C00005B970BD05F0030060B100BF00BF00BFAA
:1055D00000BF00BF01F0BFFB0646304601F0E4FB10
:1055E00000BFEEE7A5F1080427480068844205D310
:1055F00005F10C002549096888420CD900BF00BF9D
:1056000000BF00BF00BF01F0A6FB0646304601F018
:10561000CBFB00BFD5E71E4801F033FC207978B9F9
:1056200000BF00BF00BF00BF194801F040FC00BF31
:1056300001F091FB0646304601F0B6FB00BFC0E723
:10564000204600F061F878B900BF00BF00BF00BF7E
:105650000F4801F02CFC00BF01F07DFB06463046F0
:1056600001F0A2FB00BFACE70020207109480068F0
:10567000844201D207480460204600F0E1FE04485D
:1056800001F015FC00BF9CE74C00002050000020FA
:10569000540000205800002010B500BF00BF15487E
:1056A00020F0030014490860084604684FF42050B5
:1056B00020800020608020714FF4205001F04EFACD
:1056C0000E4908600120096808714FF420500B4909
:1056D000096808800949096848800748006808493E
:1056E0000860084801F0D6FB18B100BF00BF00BF3A
:1056F00000BF10BD2F6600204C000020500000208D
:1057000058000020540000202DE9F04104462046B6
:1057100000F0DAF80546208801F020FA0646608895
:1057200001F01CFA07462088B0F5205F10D8608889
:10573000B0F5205F0CD86088A84202D03888A84213
:1057400006D106480068864205D07088A84202D07B
:105750000020BDE8F0810120FBE7000050000020A0
:105760002DE9F0478146B9F1000F02D10020BDE8D4
:10577000F08709F1030020F0030085B20C2D00D260
:105780000C25B5F5205F01D84D4501DA0020EEE784
:105790004A4801F076FB4A48006800F095F8064652
:1057A00082E0304601F0DAF904462079002877D10A
:1057B000218806F10800081AA84271D3218806F151
:1057C0000800091A05F11400814222D306F10800ED
:1057D00028441FFA80F800BFB8F5205F01D100BF50
:1057E00000BF00BF404601F0B9F9074600213971FA
:1057F000218839807E80A4F80080012020713888BB
:10580000B0F5205F07D0388801F0A8F9A0F8028031
:1058100001E0012020712A480068844220D12848F4
:10582000D0F800A004E0BAF8000001F097F9824631
:105830009AF8040018B1234800688245F3D1204843
:10584000C0F800A000BF00681E490968884205D062
:105850001B480068007908B100BF00BF00BF00BF4F
:10586000164801F024FB00BF04F108002844154944
:105870000968884201D900BF00BF00BF00BF04F023
:10588000030008B100BF00BF00BF00BF04F0030069
:1058900008B100BF00BF00BF04F1080067E7FFE7E1
:1058A000304601F05BF90688C5F52050B0423FF65E
:1058B00078AF024801F0FBFA002058E754000020BE
:1058C0005800002050000020014602480088081AB5
:1058D00080B270474C0000202DE9F84F81468B467E
:1058E0000BF1030020F0030085B20C2D00D20C2533
:1058F000B5F5205F01D85D4502DA0020BDE8F88FDC
:1059000000BF4E480068814503D34D48006881457B
:1059100001D300BF00BF00BF48480068814503D3E2
:1059200047480068814509D300BF01F014FA009090
:10593000009801F039FA00BF4846DFE7A9F10806F0
:105940003046FFF7C1FF07463188C81B08381FFAE9
:1059500080FA00BF554501DD00BF00BF00BF5545BF
:1059600001DD0020CAE7554501D14846C6E7354864
:1059700001F087FA308801F0F1F80446207960BB25
:1059800000BF3088B0F5205F01D100BF00BF00BF6D
:105990002088009007F1080028441FFA80F82A4860
:1059A0000068A04204D1404601F0D8F826490860BA
:1059B000404601F0D3F80446002020710098208072
:1059C0006780A6F800802088B0F5205F04D020888A
:1059D00001F0C4F8A0F802802AE005F11400504557
:1059E00026D807F1080028441FFA80F800BF308845
:1059F000B0F5205F01D100BF00BF00BF404601F0FD
:105A0000ADF8044610480068844201D20E48046094
:105A100000202071308820806780A6F800802088D0
:105A2000B0F5205F04D0208801F098F8A0F802803B
:105A3000044801F03CFA484660E700004C000020B2
:105A400050000020540000205800002070B504468B
:105A50000D4600BF0D2C00DB70BD00BF05B9FBE794
:105A6000034951F824002946FDF735FC00BFF3E750
:105A700054BE020810B5002406E0054951F8240080
:105A800000F008F8601C84B20D2CF6D310BD0000A5
:105A900054BE020810B50023846823604368DB1CF1
:105AA00023F00301002207E083681B680B60836812
:105AB000196003881944521C43889342F4DC10BDDA
:105AC00070B5044600BF0D2C01DB002070BD00BF87
:105AD000034951F82400FDF717FC05462846F5E771
