:020000040802F0
:100000002821012055020208A52802081727020806
:10001000A128020811050208E52D020800000000D1
:100020000000000000000000000000009D01020828
:100030004106020800000000F101020861290208DF
:100040006F0202086F0202086F0202086F020208C4
:100050006F0202086F0202086F0202086F020208B4
:100060006F0202086F0202086F0202086F020208A4
:100070006F0202086F0202086F0202086F02020894
:100080006F0202086F0202086F0202086F02020884
:100090006F0202086F0202086F0202086F02020874
:1000A0006F0202086F0202086F0202086F02020864
:1000B0006F0202086F0202086F0202086F02020854
:1000C0006F0202086F0202086F0202086F02020844
:1000D0006F020208B92D02086F0202086F020208BF
:1000E0006F0202086F0202086F0202086F02020824
:1000F0006F0202086F0202086F0202086F02020814
:100100006F0202086F0202086F0202086F02020803
:100110006F0202086F0202086F0202086F020208F3
:100120006F0202086F0202086F0202086F020208E3
:100130006F020208D10602086F0202086F0202086D
:100140006F0202086F0202086F0202086F020208C3
:100150006F0202086F0202086F0202086F020208B3
:100160006F0202086F0202086F0202086F020208A3
:100170006F0202086F0202086F020208000000000E
:100180006F0202086F020208DFF80CD000F01EF9BF
:100190000048004789660208282101202A4B196877
:1001A0000868B0E8F04F80F30988BFF36F8F4FF015
:1001B000000080F3118870470000000006480068C6
:1001C000006880F3088862B661B6BFF34F8FBFF353
:1001D0006F8F00DF00BF00BF08ED00E0DFF80C000C
:1001E000016841F470010160704700BF88ED00E0D4
:1001F000EFF30980BFF36F8F134B1A681EF0100FD7
:1002000008BF20ED108A20E9F04F106008B44FF0CD
:10021000500080F31188BFF34F8FBFF36F8F0DF045
:1002200027FB4FF0000080F3118808BC19680868AC
:10023000B0E8F04F1EF0100F08BFB0EC108A80F34A
:100240000988BFF36F8F704760010020EFF30580CE
:10025000704700000648804706480047FEE7FEE773
:10026000FEE7FEE7FEE7FEE7FEE7FEE7FEE7FEE766
:10027000752A0208890102082DE9F05F0546002071
:1002800092469B4688460646814640241BE0284607
:1002900041464746224600F089F853465A46C01A5E
:1002A000914110D311461846224600F070F82D1ADD
:1002B00067EB01084F4622460120002100F067F855
:1002C00017EB00094E41201EA4F10104DFDC484673
:1002D00031462A464346BDE8F09F0000004870477B
:1002E00004E9020810B5431A934209D2831888180A
:1002F00003E010F8011D03F8011D521EF9D210BDD4
:1003000040EA01039B0703D009E008C9121F08C097
:10031000042AFAD203E011F8013B00F8013B521E17
:10032000F9D210BDD2B201E000F8012B491EFBD278
:1003300070470022F6E710B513460A4604461946F0
:10034000FFF7F0FF204610BD30B5044600200346FD
:1003500000E05B1C934203D2E05CCD5C401BF8D014
:1003600030BD30B50B46014600202022012409E0B3
:1003700021FA02F59D4205D303FA02F5491B04FA5E
:1003800002F52844151EA2F10102F1DC30BD202A3D
:1003900004DB203A00FA02F1002070479140C2F1DC
:1003A000200320FA03F3194390407047202A04DB0E
:1003B000203A21FA02F00021704721FA02F3D040DE
:1003C000C2F120029140084319467047064C074D80
:1003D00006E0E06840F0010394E807009847103415
:1003E000AC42F6D3FFF7D4FE80E90208A0E9020888
:1003F00030B58C1810F8012B12F00F0301D110F852
:10040000013B120906D110F8012B03E010F8015B43
:1004100001F8015B5B1EF9D101E001F8013B521EBE
:10042000FBD1A142E6D3002030BD00001CB521481D
:1004300000F04CFD00F0CAFA1F48006840F00100CF
:100440001D49086002208DF8000000208DF8010091
:100450008DF802008DF803008DF804008DF805007A
:1004600016481449086001204860002111480182A3
:10047000C0F814D0012181610021C1614FF4000155
:10048000016249128160C910C16000F0DBFD0446C1
:1004900004B900E000BF0823094A0A49054800F0F2
:1004A000D3FC0823084A0949024800F087FC20468B
:1004B0001CBD00009004002000900240008002401B
:1004C00078360020D8050020D8060020D804002067
:1004D00000F50071C0F80812C0F80002C0F804026C
:1004E0000021C0F80C127047D0F80C12491CC0F85B
:1004F0000C127047F0B507460D461646002404E07E
:10050000295D38460DF010FA641CB442F8D3F0BDF2
:1005100000BFFEE786B0002000900120029003900B
:100520000220049062E001200CF0B2FF3048D0F8C5
:100530000C020A285AD32F492D4803F0E1FD002868
:1005400054D02C4800884AF2CD5188424ED12948D7
:1005500002F0E4FD012847D001F09AF9264800682E
:10056000B0F1AA3F0ED100BF05A9684601F0E8F836
:100570000028F9D04FF0AA3200231F49022001F0D1
:100580003FF912E01C480068B0F1553F0DD100BFA3
:1005900005A9684601F0D4F80028F9D14FF055328A
:1005A00000231549022001F02BF94FF0AA32002355
:1005B0001149091D022001F023F901F017F90A2061
:1005C0000CF066FF00BFBFF34F8F0C48006800F4CB
:1005D000E0600B490843001D08490860BFF34F8FD6
:1005E00000BF00BF00BFFDE702F05DF99BE7000020
:1005F000A8010020B8030020004000080CED00E036
:100600000000FA0510B50C480C4908604FF4E130C1
:100610004860002109488160C160016181610C214D
:10062000416101F083FF05480068C06840F0200088
:1006300002490968C86010BD00100140480400204C
:100640007047016801F58051896941F00202016833
:1006500001F580518A617047016801F5805189690F
:1006600041F40052016801F580518A617047000031
:1006700008B508490968C9084FF47A72B1FBF2F16C
:100680004143009100BF00BF00994A1E009200291B
:10069000F9D108BD0000002038B5044600200090C4
:1006A000206800F58050806940F48011206800F5D2
:1006B00080508161206800F58050806900900120A1
:1006C000FFF7D6FF0099206800F58050816138BDA2
:1006D00010B500BF5021EFF3118081F31188BFF3F3
:1006E0004F8FBFF36F8F00BF0446044800F058FCE3
:1006F000204680F3118800BF10BD00009004002048
:1007000030B503461479557944EA0520084C0C4469
:100710002064D4782406957844EA0544557844EA60
:100720000524157844EA0500014C0C44606430BD92
:100730000080024070B5AEB004460E46002526B1DA
:100740004FF40061E160C900A16000201190129097
:100750001390149015901690E06918B94FF48060CA
:10076000179001E0002017904FF4007018900020BF
:1007700019901A901B901C901D9040201E900020F4
:100780001F902090219022902390249025902690D5
:10079000802027900020289029902A902B902C9040
:1007A0002D902068056871480540DDE91101084376
:1007B0001399084314990843A168084315990843FD
:1007C00016990843E16808431799084318990843A4
:1007D000199908431A9908431B990843054320684F
:1007E000056020680568012000F0D4FA20680560E3
:1007F000DDE91C0108431E9908431F99084320990D
:100800000843219908432299084323990843216802
:10081000486020684568012000F0BCFA2068456007
:1008200024982168886025982168C86020688569B7
:100830004FF641700540DDE9261040EA0140289955
:100840000843299908432A9908432B9908430543EB
:100850002068856120688569012000F09BFA206886
:100860008561DDE92C0108432168C8612068C569FC
:10087000012000F08FFA2068C561002001904FF040
:1008800000700290002003904FF4001004900020AC
:10089000059006900790089004200990C0050A90E2
:1008A00040120B9080010C9040120D9080200E9011
:1008B00000200F901090206800F5805085692C482A
:1008C0000540DDE901010843039908430499084301
:1008D000059908430699084307990843089908436E
:1008E000099908430543206800F580508561206818
:1008F00000F580508569012000F04CFA206800F571
:1009000080508561DDE90A0108430C9908430D997F
:1009100008430E9908430F9940EA81001099084353
:1009200040F40001206800F580500160206800F567
:1009300080500568012000F02DFA206800F58050F5
:100940000560A069012809D1206800F58050C069C0
:1009500008490843216801F58051C86100212046FB
:100960006269FFF7CDFE2EB070BD00000F8120FF41
:10097000233FDEF84000010038B504460020009017
:100980002068006840F00400216808602068006862
:1009900000900120FFF76CFE00982168086038BDC8
:1009A00038B50446002000902068006840F0080038
:1009B000216808602068006800900120FFF758FE59
:1009C00000982168086038BD00BFFEE700B587B019
:1009D00000BF002001901448006840F48070124964
:1009E00008600846006800F48070019000BF00BFF6
:1009F00001200390049002200590029002A90B4868
:100A000001F014F800220221084801F009F905203C
:100A100000F0C0F901220221044801F001F905208B
:100A200000F0B8F907B000BD3038024000200240A5
:100A300010B5002201B909E0012901D10A0205E03F
:100A4000022901D10A0201E04FF440720E4B1B68EB
:100A500023F440730C4C236023461B68134323602C
:100A600023461B6823F07803236023461B68022477
:100A700044EAC0042343044C236023461B6843F428
:100A80008033236010BD0000103C02401C48006809
:100A900000F40070B0B11A48006820F400701849E2
:100AA000086000BF0846006840F40060086008461F
:100AB000006820F40060086000BF0846006840F449
:100AC000007008600E48006800F48060B0B10C4807
:100AD000006820F480600A49086000BF084600688A
:100AE00040F4805008600846006820F48050086098
:100AF00000BF0846006840F480600860704700004E
:100B0000003C02400A4A126822F44072084B1A6004
:100B10001A46126842F004021A601A4612684FF42C
:100B2000803343EA00231A43014B1A6070470000E8
:100B3000103C0240074A126822F44072054B1A60CA
:100B40001A4612681A601A46126842F001021A60C8
:100B500001707047103C024010B50A49096821F441
:100B60004071084C21602146096841F440712160C0
:100B70002146096841F0010121600260BFF36F8FD7
:100B8000436010BD103C0240084A126822F44072D3
:100B9000064B1A601A46126842F480721A601A46AE
:100BA000126842F001021A6001807047103C024056
:100BB000084A126822F44072064B1A601A461268FC
:100BC00042F400721A601A46126842F001021A607A
:100BD00001607047103C02402348006800F010009C
:100BE00040B12248C06940F010002049C86110207F
:100BF0001D4908601C48006800F0200040B11B48F7
:100C0000C06940F008001949C861202016490860F1
:100C10001548006800F0400040B11448C06940F039
:100C200004001249C86140200F4908600E4800685E
:100C300000F0800040B10D48C06940F002000B494F
:100C4000C8618020084908600748006800F0020079
:100C500040B10648C06940F020000449C861022044
:100C600001490860704700000C3C02401000002061
:100C700070B50446002500201449C86100F0DCFF6F
:100C8000054609E0601C38B124B100F0D5FF401BD7
:100C9000A04201D9032070BD0D48006800F48030E7
:100CA0000028EFD10A48006800F0010010B10120CF
:100CB000074908600648006800F0F20018B1FFF725
:100CC0008BFF0120E7E70020E5E70000100000208F
:100CD0000C3C024008B500BF002000902C48006882
:100CE00040F080002A4908600846006800F0800053
:100CF000009000BF00BF00BF0020009008460068C1
:100D000040F0010008600846006800F00100009013
:100D100000BF00BF00BF002000900846006840F000
:100D2000020008600846006800F00200009000BF62
:100D300000BF00BF002000900846006840F004009B
:100D400008600846006800F00400009000BF00BF83
:100D500000BF002000900846006840F04000086096
:100D60000846006800F04000009000BF00BF00BFD0
:100D7000002000900846006840F480700860084633
:100D8000006800F48070009000BF00BF08BD000044
:100D90003038024070B5044600F04EFF0646254646
:100DA000681C10B104480078054400BF00F044FFFF
:100DB000801BA842FAD370BD0C00002070B5044619
:100DC0000D461646002200BF94F84500012801D1C7
:100DD000022070BD012084F8450000BF022084F885
:100DE0004400A56200221FE005EB42114FF00040D5
:100DF000086044F2F4504860C2EBC21000EB4000BF
:100E000006EB80008860A069012803D1486820F0C3
:100E100000404860581E904204D905EB4210203033
:100E2000C86000E0CD60521C9A42DDD3206800F516
:100E30008050C560012084F8440000BF002084F881
:100E4000450000BF00BFC4E770B504460D46164616
:100E5000002200BF94F84500012801D1022070BD96
:100E6000012084F8450000BF022084F84400E562B8
:100E700000221BE005EB42114FF480100860C2EB2A
:100E8000C21000EB400006EB80008860E06918B9F2
:100E9000086840F440000860581E904204D905EBF1
:100EA00042102030C86000E0CD60521C9A42E1D36D
:100EB000206800F580500561012084F8440000BFDF
:100EC000002084F8450000BF00BFC8E710B5044605
:100ED000022084F84400204600F002FA002084F842
:100EE000440000BF84F8450000BF10BD70470146B4
:100EF000002200BF91F84500012801D1022070476F
:100F0000012081F8450000BF022081F84400886A72
:100F1000006800F00040002838D1886A006800F4BA
:100F20008070F0B1886B401C8863886B012801D108
:100F3000886A08638B6A4B63886A0068C0F30D4057
:100F4000021FCA63086B83680B64886AC068886282
:100F5000012081F8440000BF002081F8450000BF57
:100F6000CDE7886A006800F4007048B1886A0863B9
:100F700000234B6301238B63886AC068886205E0A5
:100F8000886B401C8863886AC0688862012081F889
:100F9000440000BF002081F8450000BF0120AEE7FB
:100FA00010B50446206800F58050406900F040000C
:100FB00040280FD1204600F099FA4021206800F522
:100FC00080504161012084F8440000BF002084F873
:100FD000450016E0206800F58050406900F00100EF
:100FE00078B1204600F062FB0121206800F58050B6
:100FF0004161012084F8440000BF002084F84500CE
:1010000000BF4FF48031206800F5805041612068B6
:1010100000F58050406900F40040B0F5004F10D159
:101020002046FFF763FF4FF40041206800F5805031
:101030004161012084F8440000BF002084F845008D
:1010400000BF10BD2DE9FC410446002500200190A1
:101050009C4E0027804614B90120BDE8FC8194F81D
:10106000440028B9002084F84500204600F06EF9BD
:1010700000BF002000909448006840F480409249EE
:1010800008600846006800F48040009000BF00BF80
:101090008E48006820F400008C490860084600680B
:1010A000216A084389490860206800F5805000687B
:1010B00040F00101206800F58050016000F0BCFDA7
:1010C00007460FE000F0B8FDC01BB0F5FA7F09D964
:1010D000032084F8440000BF002084F8450000BFCE
:1010E0000320BAE7206800F58050006800F0010096
:1010F0000028E7D12068056925F01C0500F01CFFD9
:1011000006467348864205D37248864202D245F0AD
:1011100008051AE06F48864205D36A48864202D223
:1011200045F00C0511E06748864203D36A488642C1
:1011300000D20AE06848864205D36848864202D257
:1011400045F0040501E045F01005206805614FF405
:1011500000420021204600F0AAFA48B14FF00108F1
:1011600041462046FFF7E6FA012084F8440074E780
:101170000520FFF70FFE6068002871D000F05CFDCD
:10118000074600BF01AA0121204600F065F900F0E2
:1011900053FDC01B41F2883188420FD94FF001083E
:1011A00041462046FFF7C6FA012084F8440000BFFC
:1011B000002084F8450000BF03204EE7019800F0AE
:1011C00004000428DED182020021204600F06FFADC
:1011D00048B14FF0010841462046FFF7ABFA012025
:1011E00084F8440039E700F027FD074600BF01AA54
:1011F0000121204600F030F900F01EFDC01B41F235
:10120000883188420FD94FF0010841462046FFF748
:1012100091FA012084F8440000BF002084F84500C2
:1012200000BF032019E7019800F020002028DED13C
:1012300001AA1F21204600F00FF948B14FF0010824
:1012400041462046FFF776FA012084F8440004E77F
:10125000019800F0100020B14FF40061E16002E05D
:101260000DE00021E160019800F00400042802D1A3
:101270000021A1601DE04FF48041A16019E0E06809
:10128000C0F3CF00A168C1F34F0140EA0102002181
:10129000204600F00CFA48B14FF0010841462046C4
:1012A000FFF748FA012084F84400D6E60520FFF74E
:1012B00071FD41462046FFF73DFA012084F84400C5
:1012C0000020CAE6008793034438024004380140F6
:1012D000002D3101C00E160200E1F50580D1F008A5
:1012E00010B5044614492068884223D100BF134832
:1012F000006820F08060114908600846006820F00E
:10130000006008600846006820F00070086000BFB8
:1013100032210B4800F0D6FA86210A4800F0D2FAB2
:101320004FF40061084800F0CDFA4FF4C041064880
:1013300000F0C8FA10BD00000080024030380240C2
:1013400000080240000002400018024010B586B0BC
:1013500004463C492068884271D132200190022025
:10136000029000200390032004900B20059001A917
:10137000354800F05BFB862001900220029000209F
:101380000390032004900B20059001A92F4800F042
:101390004DFB4FF40060019002200290002003906A
:1013A000032004900B20059001A9294800F03EFB82
:1013B0004FF4C040019002200290002003900320CF
:1013C00004900B20059001A9214800F02FFB00227A
:1013D00006213D2000F09BFC3D2000F084FC00BF76
:1013E00000BF002000901B48006840F000701949C1
:1013F00008600846006800F00070009000BF00BF61
:1014000000BF002000900846006840F0806008603F
:101410000846006800F08060009000BF00BF00BF79
:10142000002000900846006840F000600860084610
:10143000006800F00060009000BF00BF00BF06B071
:1014400010BD000000800240000802400000024081
:1014500000180240303802402DE9F04104460E46A3
:1014600017460025A84694F84400822802D102209D
:10147000BDE8F081822084F844002068056905F009
:101480001C05208A4FF4784101EAC0200543481129
:1014900000EA8610054325F0020545F001052068A5
:1014A000056100F0C9FB804612E000F0C5FBA0EB2F
:1014B0000800B0F5803F09D3012084F8440000BF44
:1014C000002084F8450000BF0320D1E720680569AB
:1014D00005F001000028E8D12068406980B238603A
:1014E000012084F844000020C2E7000038B504461B
:1014F000002000906946074800680CF0A9FD00989C
:1015000038B14FF0805004490860BFF34F8FBFF3EC
:101510006F8F38BD0801002004ED00E010B50446CF
:1015200000BF94F84500012801D1022010BD012020
:1015300084F8450000BF022084F844002046FFF7ED
:101540002FFA2046FFF718FA2046FFF7A5F82046A5
:10155000FFF782F82046FFF774F8012084F8440072
:1015600000BF002084F8450000BF00BFDEE770B573
:10157000024600230025002400BF92F84500012800
:1015800001D1022070BD012082F8450000BF022079
:1015900082F8440049B9012082F8440000BF0020CD
:1015A00082F8450000BF0120ECE7D06A006800F037
:1015B000004048B1122082F8440000BF002082F8A9
:1015C000450000BF0120DDE740F2F450814208D918
:1015D000B1FBF0F3B1FBF0F600FB161010B15B1C91
:1015E00000E00123012B13D1D06A006840F0405085
:1015F000D66A3060C1F30C00D66A7060D06A0068A9
:1016000040F00040D66A3060D06AC068D06232E0F4
:1016100000242EE0D06A006820F04050D66A306086
:101620002CB9D06A006840F08050D66A306040F231
:10163000F450D66A7060581EA04210D1D06A00687B
:1016400040F00050D66A3060581EC0EBC01000EB6E
:101650004000A1EB8005C5F30C00D66A7060D06A2B
:10166000006840F00040D66A3060D06AC068D0623E
:10167000641C9C42CED3106800F58050406900F095
:10168000040048B10426106800F580504661002629
:10169000106800F580504660012082F8440000BFC9
:1016A000002082F8450000BF00BF6BE770472DE9BE
:1016B000F04104460E4617460025A84694F844001B
:1016C000422802D10220BDE8F081422084F8440083
:1016D0002068056905F01C05208A4FF4784101EA6D
:1016E000C0200543481100EA8610054345F0020575
:1016F00045F00105B8B2216848612068056100F035
:101700009BFA804612E000F097FAA0EB0800B0F5D3
:10171000803F09D3012084F8440000BF002084F8F2
:10172000450000BF0320CEE72068056905F00100F1
:101730000028E8D1012084F844000020C3E700001D
:101740002DE9F04104460F46002600BF2548007EE3
:10175000012802D10220BDE8F0810120214908764C
:1017600000BF4CF25030FFF783FA0546002D31D10F
:10177000401E3860206801280FD1207C6168FFF787
:10178000C1F94CF25030FFF773FA0546164800686D
:1017900020F00400144908601AE0A66812E0217CD9
:1017A0003046FFF745F94CF25030FFF761FA054635
:1017B0000D48006820F07A000B4908600DB13E60CA
:1017C00005E0761CD4E902100844B042E7D800BF17
:1017D000FFF75CF900BF00200249087600BF2846E9
:1017E000B9E7000010000020103C024003480068E8
:1017F00040F000400149086000207047103C024062
:101800002DE9F0410646884614461D4600BF1E4895
:10181000007E012802D10220BDE8F08101201A4992
:10182000087600BF4CF25030FFF722FA07461FBB84
:1018300026B9E1B24046FFF77DF912E0012E04D14E
:10184000A1B24046FFF7A0F90BE0022E04D12146D9
:101850004046FFF7ADF904E022462B464046FFF72D
:101860007BF94CF25030FFF703FA0746074800684F
:1018700020F001000549086000BF002002490876F9
:1018800000BF3846C8E7000010000020103C0240AE
:1018900000200949096801F0004159B10749064A89
:1018A0000C3A1160064911600349096801F00041D2
:1018B00001B1012070470000103C02402301674540
:1018C000AB89EFCDF0B50C460025002200230021A6
:1018D00094E0012606FA01F504EA0502AA427DD148
:1018E000484E8F0856F827308E07370F0F26BE4018
:1018F0003340454EB04201D1002623E0434EB04272
:1019000001D101261EE0424EB04201D1022619E06B
:10191000404EB04201D1032614E03F4EB04201D107
:1019200004260FE03D4EB04201D105260AE03C4EB0
:10193000B04201D1062605E03A4EB04201D1072659
:1019400000E008268F073F0FBE409E4224D1364E4E
:1019500036689643344F3E603E1D366896433F1DC1
:101960003E60314E0C36366896432F4F0C373E6042
:101970003E1F366896433F1F3E608E07370F0F2687
:1019800006FA07F31F4E8F0856F827609E431D4F37
:101990004FEA910C47F82C6006684FEA410C032788
:1019A00007FA0CF7BE430660CF0800F1200656F890
:1019B00027604F074FEAD76C0F2707FA0CF7BE4393
:1019C0004FEAD10C00F1200747F82C60C6684FEAB7
:1019D000410C032707FA0CF7BE4300E00DE0C66098
:1019E000466801278F40BE43466086684FEA410C37
:1019F000032707FA0CF7BE438660491C1029FFF441
:101A000068AFF0BD08380140000002400004024009
:101A100000080240000C0240001002400014024086
:101A200000180240001C0240003C0140F8B502468C
:101A30000B460025002400200021D6E0012606FAEE
:101A400001F51E6806EA0504AC4274D11E7906F061
:101A50000306012E04D01E7906F00306022E13D1D0
:101A600090684F000326BE40B0434F00DE68BE4082
:101A700030439060506801268E40B0431E79C6F313
:101A800000168E40304350601E7906F00306032E88
:101A900009D0D0684F000326BE40B0434F009E6877
:101AA000BE403043D0601E7906F00306022E13D1EB
:101AB000CF0802F1200656F827004E07F70E0F2632
:101AC000BE40B0434F07FF0E1E69BE403043CF08F3
:101AD00002F1200646F8270010684F000326BE409A
:101AE000B0431E7906F003064F00BE40304310603D
:101AF0005E6806F44036002E76D000BF00260096C1
:101B00003C4E366846F480463A4F3E603E46366864
:101B100006F48046009600BF00BF374E8F0856F887
:101B200027008E07370F0F26BE40B043334EB24218
:101B300002D1002624E057E0314EB24201D1012605
:101B40001EE0304EB24201D1022619E02E4EB242C2
:101B500001D1032614E02D4EB24201D104260FE03C
:101B60002B4EB24201D105260AE02A4EB24201D1E3
:101B7000062605E0284EB24201D1072600E00826DD
:101B80008F073F0FBE4030431B4E8F0846F827009B
:101B9000224E3068A0435E6806F4801606B12043EA
:101BA0001E4E3060361D3068A0435E6806F4001695
:101BB00006B12043194E361D3060184E361F30686E
:101BC000A0435E6806F4003606B12043134E361F6C
:101BD0003060361F3068A0435E6806F4803606B178
:101BE00020430E4E083E3060491C1029FFF426AFFA
:101BF000F8BD0000443802400838014000000240AF
:101C00000004024000080240000C024000100240A4
:101C10000014024000180240001C0240083C014031
:101C20000AB1816101E00B048361704701480068DB
:101C3000000C7047002004E0014800687047000075
:101C4000040000200348006803490978084401495A
:101C500008607047040000200C00002010B50D48FB
:101C6000006840F400700B4908600846006840F4C2
:101C7000806008600846006840F4807008600320B7
:101C800000F084F80F2000F007F800F02BF8002097
:101C900010BD0000003C024070B504460E480078BC
:101CA0004FF47A71B1FBF0F00C490968B1FBF0F523
:101CB000284600F021FC08B1012070BD102C07D28D
:101CC00000222146501E00F022F80548046001E081
:101CD0000120F2E70020F0E70C00002000000020C7
:101CE0000800002070470146084600280DDB00BFB1
:101CF00000BF00F01F0301229A4043099B0003F13B
:101D0000E023C3F8002100BF00BF00BF70472DE9EA
:101D1000F05F80460D461646002701F095F807460D
:101D200039462A46334601F00700C0F1070ABAF1E6
:101D3000040F02D94FF0040A01E0C0F1070AD146AE
:101D400000F1040ABAF1070F02D24FF0000A01E0D5
:101D5000A0F1030AD4464FF0010A0AFA09FAAAF1DF
:101D6000010A0AEA020A0AFA0CFA4FF0010B0BFA0E
:101D70000CFBABF1010B0BEA030B4AEA0B04214607
:101D8000404601F069F8BDE8F09F000000BF00F098
:101D90000702064B19684FF6FF031940044B0B432B
:101DA00043EA0221014B196000BF70470CED00E0CF
:101DB0000000FA0570B504460D460CB9012070BD4F
:101DC0005848006800F00700A84209D255490D7034
:101DD0000846006800F00700A84201D00120EEE7A5
:101DE000207800F0020002281DD1207800F00400C5
:101DF000042805D14C48006840F4E0504A49086086
:101E0000207800F00800082805D14748006840F411
:101E10006040454908604448006820F0F000A1682F
:101E2000084341490860207800F00100A8B36068C9
:101E3000012807D13C4808380068C0F34040B8B9D1
:101E40000120BCE76068022802D06068032807D13F
:101E5000354808380068C0F3406048B90120AEE753
:101E6000314808380068C0F3400008B90120A6E7EF
:101E70002D48006820F00300616808432A49086083
:101E8000FFF7DAFE064609E0FFF7D6FE801B41F2B7
:101E90008831884202D9032091E707E02248006890
:101EA00000F00C006168B0EB810FEDD11D480068B7
:101EB00000F00700A84209D91A490D7008460068C9
:101EC00000F00700A84201D0012078E7207800F058
:101ED0000400042807D11448006820F4E050E168A9
:101EE000084311490860207800F00800082808D14C
:101EF0000D48006820F46040216940EAC1000A49A9
:101F0000086000F03FF808490968C1F30311074A67
:101F1000515CC8400649086006480068FFF7BCFEEF
:101F200000204CE7003C024008380240D0E602089E
:101F300000000020080000200148006870470000F1
:101F40000000002000B5FFF7F7FF04490968C1F35E
:101F50008221034A515CC84000BD0000083802409D
:101F6000E0E6020800B5FFF7E7FF04490968C1F39E
:101F70004231034A515CC84000BD000008380240AD
:101F8000E0E602082DE9F047002400250026A146DE
:101F90002548006800F00C0020B1042805D008286E
:101FA0003AD105E0DFF8849039E0DFF8849036E03C
:101FB0001D48001F006800F03F041B48001F006818
:101FC00000F4800078B11A481749091F0968C1F365
:101FD0008811A0FB01700146224600233846FEF717
:101FE0004BF905460EE011480F49091F0968C1F376
:101FF0008811A0FB01700146224600233846FEF7F7
:102000003BF905460848001F0068C0F30140401C2A
:102010004600B5FBF6F902E0DFF8109000BF00BF04
:102020004846BDE8F0870000083802400024F4006C
:1020300040787D01F8B504460CB90120F8BD207840
:1020400000F00100002874D0F948006800F00C008E
:1020500004280DD0F648006800F00C00082813D1C1
:10206000F348001F006800F48000B0F5800F0BD12A
:10207000EF4808380068C0F34040002859D0606835
:10208000002856D10120D9E700BF6068B0F5803F35
:1020900008D1E7480838006840F48030E44908393E
:1020A00008601EE06068B0F5A02F0DD1E048083848
:1020B000006840F48020DE4908390860084600685E
:1020C00040F4803008600CE0D9480838006820F4FB
:1020D0008030D749083908600846006820F480201D
:1020E000086000BF606890B1FFF7A6FD054606E0F6
:1020F000FFF7A2FD401B642801D903209EE7CC48CE
:1021000008380068C0F340400028F1D011E0FFF724
:1021100093FD054606E0FFF78FFD401B642801D9BB
:1021200003208BE7C24808380068C0F3404000280D
:10213000F1D1207800F0020002285FD1BC4800688D
:1021400000F00C0058B1BA48006800F00C000828F4
:102150001CD1B748001F006800F48000B0B9B44833
:1021600008380068C0F3400020B1E068012801D0C1
:10217000012063E7AE480838006820F0F8002169C4
:1021800040EAC100AA490839086037E0E06800B3B6
:102190000120A8490860FFF74FFD054606E0FFF75C
:1021A0004BFD401B022801D9032047E7A04808380F
:1021B0000068C0F340000028F1D09D48083800684E
:1021C00020F0F800216940EAC10099490839086007
:1021D00014E0002097490860FFF72EFD054606E051
:1021E000FFF72AFD401B022801D9032026E790486B
:1021F00008380068C0F340000028F1D1207800F0D2
:10220000080008282CD16069A8B101208A4908601B
:10221000FFF712FD054606E0FFF70EFD401B022802
:1022200001D903200AE782486C300068C0F34000FF
:102230000028F1D014E000207F490860FFF7FCFC83
:10224000054606E0FFF7F8FC401B022801D90320F1
:10225000F4E677486C300068C0F340000028F1D104
:10226000207800F00400042870D10027704838302E
:10227000006800F0805090B900BF002000906C48CA
:102280003830006840F080506949383108600846AD
:10229000006800F08050009000BF00BF0127674831
:1022A000006800F48070B0B96448006840F4807041
:1022B00062490860FFF7C0FC054606E0FFF7BCFC7A
:1022C000401B022801D90320B8E65C48006800F4EE
:1022D00080700028F2D000BFA068012808D15448BF
:1022E0006830006840F001005149683108601DE025
:1022F000A06805280DD14E486830006840F0040001
:102300004B49683108600846006840F001000860E9
:102310000CE047486830006820F00100444968310B
:1023200008600846006820F00400086000BFA0684C
:10233000A8B1FFF781FC054609E0FFF77DFC401BD3
:1023400041F28831884202D9032077E626E03848F6
:1023500068300068C0F340000028EED013E0FFF7BB
:102360006BFC054608E0FFF767FC401B41F2883133
:10237000884201D9032061E62D4868300068C0F327
:1023800040000028EFD1012F07D1294838300068DC
:1023900020F0805026493831086000BFA06900282D
:1023A00045D02348006800F00C0008285DD0A069E3
:1023B000022845D100201F490866FFF73DFC05466D
:1023C00006E0FFF739FC401B022801D9032035E65F
:1023D000174808380068C0F340600028F1D1D4E9FC
:1023E00007010843616A40EA81110122A06AC2EB39
:1023F000500041EA00412C20005D41EA00600C4998
:10240000091F086001200B490866FFF715FC054607
:1024100006E0FFF711FC401B022801D903200DE65E
:10242000034808380068C0F340600028F1D049E054
:102430000838024000004742800E474200700040CA
:10244000002021490866FFF7F7FB054606E0FFF785
:10245000F3FB401B022801D90320EFE51B4800686D
:10246000C0F340600028F2D12CE0A069012800D11F
:10247000E4E51648001D0668A069012820D006F48E
:102480008001E06981421BD106F03F01206A814250
:1024900016D147F6C0703040616AB0EB811F0FD192
:1024A00006F440310122A06AC2EB5000B1EB004FAC
:1024B00006D106F070612C20005DB1EB006F01D0F9
:1024C0000120BBE50020B9E500004742003802408A
:1024D000042808D14FF0E021096941F004014FF0D0
:1024E000E022116107E04FF0E021096921F00401C9
:1024F0004FF0E0221161704770B504462546681E12
:10250000B0F1807F01D301200FE0681E4FF0E02181
:1025100048610F214FF0FF3000F09EFC00204FF08B
:10252000E021886107200861002070BD10B50446D5
:102530000CB9012010BDA06900B100E000BF94F803
:10254000410028B9002084F84000204600F02AF815
:10255000242084F841002068C06820F400502168DD
:10256000C860204600F0CCFA2068006920F4904052
:10257000216808612068406920F02A0021684861CC
:102580002068C06840F400502168C8600020606482
:10259000202084F8410084F842000020606300BFDE
:1025A000C8E7000010B586B0044600BF00200090C8
:1025B0002748006840F01000254908600846006878
:1025C00000F01000009000BF00BF00BF002000908E
:1025D0001F481438006840F001001D491439086094
:1025E0000846006800F00100009000BF00BF00BF77
:1025F000002000900846006840F00100086008468E
:10260000006800F00100009000BF00BF4815019075
:1026100002200290012003900320049007200590DF
:1026200001A90C48FFF702FA4FF4806001900720DF
:10263000059001A90748FFF7F9F90122002125209B
:10264000FFF765FB2520FFF74EFB06B010BD00002D
:1026500044380240000002402DE9F84F04460E467F
:10266000174699464FF0000A94F84100202850D1AF
:1026700006B117B90120BDE8F88F00206064212061
:1026800084F84100FFF7D8FA8246A784E784A0685F
:10269000B0F5805F04D1206910B90025B04602E092
:1026A00035464FF000081EE05346002280212046A8
:1026B000CDF8009000F03AFB20B1202084F84100D2
:1026C0000320D8E745B9B8F80000C0F30800216836
:1026D000486008F1020803E02878216848606D1C12
:1026E000E08C401EE084E08C0028DDD153460022BF
:1026F00040212046CDF8009000F018FB20B12020AA
:1027000084F841000320B6E7202084F8410000202F
:10271000B1E70220AFE700BFFEE7000000B587B0D9
:1027200000BF002001902648006840F020002449A6
:1027300008600846006800F02000019000BF00BF5C
:1027400000BF002001900846006840F020000860AB
:102750000846006800F02000019000BF00BF00BFE5
:10276000002001900846006840F0200008600846FC
:10277000006800F02000019000BF00BF40200290E0
:102780000120039004900320059002A90D48FFF753
:102790004DF98020029002A90A48FFF747F94FF44B
:1027A0008070029002A90748FFF740F940200549D0
:1027B00018310860802008604000086007B000BD44
:1027C000303802400014024009E00548006880F0FB
:1027D0008000034908604FF47A700AF059FEF4E76C
:1027E000141402400EB5002108460AF0FFF81C48F8
:1027F0001C4908606FF07F401B4908601B481C495A
:1028000008601C481C490022194BCDE900210290A8
:10281000154A1449194804F069FD184804F0B2FE3D
:10282000164890F82900C0F3800018B1134804F04E
:10283000CCFE02E0114804F0ABFE10484068000EE8
:1028400000900E484068C0F307430C488088C0F3EE
:1028500007220A4801790AA000F0E6FA0EBD00003E
:10286000C0A8017A2401002028010020C0A801018D
:102870002C010020A9CA02084D3E0208C4B3002062
:102880006C6F63616C20697020616464726573733E
:102890003A25642E25642E25642E25640A0A00003C
:1028A00000BFFEE7704710B5FF2000F09DFA10BD95
:1028B0001CB50124FFF796FF00F01AFC14A000F0ED
:1028C000B3FA0AF06FFC1A48012100238022CDE9F7
:1028D000001018A11A480BF08FFC0446012C00D1FF
:1028E00000E000BF1748032100234FF48062CDE9C8
:1028F000001015A119480BF07FFC0446012C00D1F3
:1029000000E000BF0AF090FC00200AF003FE1CBDAE
:102910004E6574776F726B20636F6E666967757250
:102920006174696F6E2066696E6973686564000022
:10293000340000204C45445F5461736B000000007C
:10294000C927020838000020436865636B5570672B
:10295000726164655F5461736B00000015050208C5
:1029600010B500BF5021EFF3118081F31188BFF340
:102970004F8FBFF36F8F00BF0446FFF763F90BF073
:102980006BFC012801D00BF091F800BF84F3118893
:1029900000BF10BD10B592B000BF002000903248BB
:1029A000006840F08050304908600846006800F038
:1029B0008050009000BF00BF00BF002000902B4857
:1029C000006840F48040294908600846006800F427
:1029D0008040009000BF00BF0120019000040290E1
:1029E0000220079041050891192109914FF4A8711F
:1029F0000A9102210B9107210C9101A8FFF71AFB04
:102A000008B1FDF7E1FF0F200D9002200E9000208D
:102A10000F904FF4A05010904FF48050119005216A
:102A20000DA8FFF7C7F908B1FDF7CEFFFFF784FA4D
:102A30004FF47A71B0FBF1F42046FFF75DFD0420FE
:102A4000FFF746FD00221146501EFFF760F9FFF721
:102A5000EDF8B0F5805F05D90548006840F4807056
:102A60000349086012B010BD4038024000700040B9
:102A7000003C02400548006840F4700003490860CB
:102A800003480249803908607047000088ED00E083
:102A90000000020800BF00BF02680C3252E8002F9D
:102AA00022F4907102680C3242E80013002BF3D13B
:102AB00000BF00BF00BF0268143252E8002F22F0AE
:102AC00001010268143242E80013002BF3D100BF69
:102AD000016B01290ED100BF00BF02680C3252E821
:102AE000002F22F0100102680C3242E80013002B84
:102AF000F3D100BF202180F842100021016370470C
:102B00002DE9F84F04462068006920F44050E16840
:102B10000843216808612169A06808436169084386
:102B2000E169084300902068C06849F20C6188435D
:102B3000009908432168C8602068406920F440700B
:102B4000A16908432168486176492068884203D01A
:102B500075492068884203D1FFF704FA814602E0F4
:102B6000FFF7F0F98146E069B0F5004F6CD1022023
:102B70006168A0FB015003461920A9FB00700146C3
:102B80002A463846FDF778FB6421B0FBF1F04FEAA6
:102B9000001A02206168A0FB01510B461920A9FB15
:102BA00000712A463846FDF767FB834602206168BC
:102BB000A0FB015003461920A9FB00712A463846A4
:102BC000FDF75AFB6421B0FBF1F000EBC00101EB13
:102BD0000010ABEB8000322101EBC0006421B0FBA0
:102BE000F1F000F0F8000AEB400A02206168A0FB57
:102BF000015003461920A9FB007001462A463846B9
:102C0000FDF73AFB834602206168A0FB01500346B2
:102C10001920A9FB00712A463846FDF72DFB6421D7
:102C2000B0FBF1F000EBC00101EB0010ABEB80005A
:102C3000322101EBC0006421B0FBF1F000F007008D
:102C40005044216888606AE004206168A0FB01505C
:102C500003461920A9FB007001462A463846FDF7B5
:102C60000BFB824604206168A0FB0150034619203B
:102C7000A9FB007001462A463846FDF7FDFA64219B
:102C8000B0FBF1F000EBC00101EB0010AAEB8000FB
:102C9000322101EB00106421B0FBF1F000F0F00AEA
:102CA00004206168A0FB017003461920A9FB0051B4
:102CB0003A462846FDF7E0FA6421B0FBF1F00AEB52
:102CC000001A04206168A0FB01510B461920A9FBE2
:102CD00000712A463846FDF7CFFA83460420616822
:102CE000A0FB015003461920A9FB007001462A46AB
:102CF0003846FDF7C1FA6421B0FBF1F000EBC001EA
:102D000001EB0010ABEB8000322101EB00106421DD
:102D1000B0FBF1F000F00F00504421688860BDE87E
:102D2000F88F000000100140001401402DE9F84325
:102D300004460D4617469846089E31E0701C70B355
:102D4000FEF77AFFA0EB0800B04200D816B90320C6
:102D5000BDE8F8832068C06800F00400F8B1802D59
:102D60001ED0402D1CD020680068C0F3C000B0B158
:102D700000BF002000902068006800902068406834
:102D8000009000BF00BF2046FFF784FE082060646B
:102D900000BF002084F8400000BF0120D8E7FFE713
:102DA000206800682840A84201D1012000E00020EE
:102DB000B842C3D00020CBE708B5084800680068D7
:102DC000C0F3401048B1054800684068C0B20090A8
:102DD000012269460248FDF78DFB08BD480400202A
:102DE000A801002000BFFEE738B5044600944FF468
:102DF0007A73012269460248FFF72EFC38BD0000B5
:102E00004804002070B50446002500BF61194FF446
:102E10007A7301220348FFF71FFC6D1C605D0028D8
:102E2000F4D170BD480400200FB4054B10B503A9C0
:102E3000044A029800F034F810BC5DF814FB00005E
:102E4000F13F02089C01002002480068C0F3022004
:102E5000704700000CED00E010B5002804DB0A0705
:102E6000130E054A135406E00A07140E034A00F035
:102E70000F031B1FD45410BD00E400E018ED00E068
:102E800002E008C8121F08C1002AFAD17047704733
:102E9000002001E001C1121F002AFBD17047000091
:102EA0002DE9FF4F8BB09A460F460546002606E0F7
:102EB00025280BD052460D9990476D1C761C28781A
:102EC0000028F5D10FB03046BDE8F08F0024A046B1
:102ED0000122604900E0044315F8013F203B02FA5B
:102EE00003F00842F7D128782E2817D115F8010FE2
:102EF00044F004042A280ED06FF02F022878A0F1A5
:102F0000300109290AD808EB880102EB410100EBE6
:102F100001086D1CF2E757F8048B6D1C28786928AE
:102F20003ED006DC0028CDD063280BD0642804D125
:102F300036E0732810D075284BD052460D99904733
:102F4000761C85E017F8040B8DF8000000208DF842
:102F50000100E946012003E057F8049B4FF0FF30E1
:102F600061074FF0000401D40AE0641C44450DDA07
:102F70008442FADB19F804100029F6D106E0641C3B
:102F80008442FCDB19F804100029F8D1264404E03F
:102F900019F8010B52460D999047641EF8D257E07C
:102FA00001CF4FF00A0B002802DA40422D2102E047
:102FB000210504D52B218DF82410012103E0E10720
:102FC00005D02021F7E70DF1200908910CE0002140
:102FD000F9E701CF4FF00A0BF9E75946FDF7C1F9C0
:102FE00001F1300209F8012D0028F6D1ADEB0900FE
:102FF00000F1200B600701D44FF00108D84502DD35
:10300000A8EB0B0000E000208046002406E009A8A1
:103010005246005D0D999047641C761C08988442C6
:10302000F5DB04E0302052460D999047761CB8F14C
:103030000001A8F10108F5DC05E019F8010B524682
:103040000D999047761CBBF10001ABF1010BF4DC4C
:103050006D1C34E7092801002DE9F04105460E46B4
:1030600000243DE005F0B9FC0746204800EB0410C1
:10307000006880BB1D4800EB04100560384605F071
:10308000D5FC0020194901EB0411486000BF174826
:1030900000EB0410807B08B100BF00BF00BF002020
:1030A000124901EB04110881287800F0F000102883
:1030B00004D10EB1012002E0002000E001200B4904
:1030C00001EB041148810020084901EB04118881BB
:1030D0002046BDE8F081FFE7384605F0A7FC641CF8
:1030E000042CBFDB4FF0FF30F3E700001866002030
:1030F00008B50420C30100220249009002A005F097
:1031000083FD08BD8D8F02087463705F636C696511
:103110006E745F7468726561640000002DE9F047A9
:103120000446608800F10409484603F0F9FA0546B0
:103130002E466088001D1FFA80FA002748F2050815
:10314000207828702088000A6870A078A8706088AD
:10315000000AE870002004E0211D0A5C011D6A5489
:10316000401C61888142F7D894F88E106088001D59
:103170002954B4F88E00010A6088401D295418E0D3
:10318000802013E007F4004131B14FF6FF7101EAEE
:10319000470787EA080703E04FF6FF7101EA470790
:1031A0003178014009B187EA080740100028E9D1C9
:1031B000761CBAF10000AAF101011FFA81FADFD1F1
:1031C000B4F88E00B84205D1284600F01FFF002059
:1031D000BDE8F087284600F019FF0120F8E72DE947
:1031E000F04104460D4600BF05F0030008B100BFE2
:1031F00000BF00BF2E4605F0F0FB0746A068006840
:103200003060A0680660384605F010FCBDE8F0812B
:1032100070B5054605F0E1FB0646A868046874B180
:103220002068A968086000BF04F0030008B100BF6F
:1032300000BF00BF304605F0F9FB204670BD3046A8
:1032400005F0F4FB0020F9E72DE9F05F07460E4694
:103250003C4600BF0CB900BF00BF00BF05F0BDFB7E
:103260008346002060602672207F40F001002077B6
:10327000657800206070584605F0D8FB606A20B180
:10328000002204212046636A9847606A20B1002228
:1032900011462046636A9847606A20B100220221E5
:1032A0002046636A9847304602F0E0FE824604F109
:1032B000100005F02DFC20B1514604F1100005F07E
:1032C00017FC04F1140005F023FC20B1514604F171
:1032D000140005F00DFC012D03D0042D01D0032DA9
:1032E0002ED1207FC0F3800900BF00BF207F00F0F7
:1032F000FB00207700BF00BFB9F1000F1FD100BF56
:10330000206A08B900BF00BF00BF042D03D1002010
:10331000216A087101E0206A0671206A006800F1E4
:103320000C0800BF404605F068FC08B900BF00BFAC
:1033300000BF00202062404605F053FC00BF05E0BE
:1033400000BF206A08B100BF00BF00BFBDE8F09F0A
:103350000146002902DC4842112801DB05207047A4
:1033600002484A4250F82200F9E70000ECE6020861
:1033700070B50546002411E004EB4400094901EB57
:10338000C000067D4EB104EB440001EBC000806834
:10339000A84202D1204600F0E3F8641C0A2CEBDBC3
:1033A00070BD000084B200202DE9FE4F054688461E
:1033B00016464FF00A09CA460A270024BB460020D9
:1033C00002900190009000BF6AE004EB4400634A61
:1033D00002EBC000017D0A2F02D109B927465DE04A
:1033E00000295BD000BF012903D0022901DA00BF08
:1033F00000BF00BFA5B104EB4402584B03EBC2026F
:103400002868526890420BD13EB104EB44001A4642
:1034100002EBC0008068B04202D12046BDE8FE8FBA
:10342000012928D104EB44004C4A52F8300080B105
:1034300004EB440002EBC000428A029882422DDB7A
:10344000A34604EB4400454A02EBC000408A0290C8
:1034500024E004EB4400414A02EBC000428A019898
:1034600082421BDBA14604EB44003C4A02EBC00055
:10347000408A019012E0022910DB04EB4400374A35
:1034800002EBC000428A0098824207DBA24604EBAE
:103490004400324A02EBC000408A0090601C04B233
:1034A0000A2C92DB08F0020020B90A2F05D108F09F
:1034B000010010B94FF0FF30B0E70A2F01DA3C46A7
:1034C00023E0BAF10A0F0ADA544600BF04EB4400C5
:1034D000224951F8300008B100BF00BF0CE0B9F13B
:1034E0000A0F01DA4C4607E0BBF10A0F01DA5C462D
:1034F00002E04FF0FF3091E700BF0A2C01DB00BF74
:1035000000BF00BF204600F02BF800BF0A2C01DBF3
:1035100000BF00BF00BF00BF04EB44000F4901EB38
:10352000C000007D08B100BF00BF00BF35B104EB93
:1035300044010A4A02EBC10128684860002004EBFC
:103540004401064A02EBC101488204EB44001146E3
:1035500001EBC0008660204660E7000084B20020D6
:1035600010B5044604EB44000C4951F8300060B13A
:1035700004EB4401094A52F8310004F05FFA0020DC
:1035800004EB4401054A42F83100002004EB4401F9
:10359000024A02EBC101087510BD000084B2002090
:1035A0002DE9F04186B007460D4600BF15B906B0BB
:1035B000BDE8F08100BF7C682088B0F5807F08D12D
:1035C0002079062805D16079042802D1608808286E
:1035D00003D0384604F032FAE9E7D4F80E0005903B
:1035E000A0690490686810B90026B0460FE00498FE
:1035F0006968884201D1012000E000200646059854
:103600006968884201D1012000E0002080460EB1A7
:10361000012000E00220034604F1080205A9284623
:1036200000F01AFBE088B0F5807F03D0B0F5007F92
:1036300018D116E09EB1B8F1000F10D1022205ABEF
:1036400004F10800291DCDE90232CDE9001005F191
:10365000220302461E31284600F012FA00E000BFA5
:1036600001E000E000BF00BF384604F0E7F900BF0A
:103670009DE700002DE9FE4304460F461546A94686
:1036800000BF0CB900BF00BF00BF00BF0FB900BF33
:1036900000BF00BF00BF0DB900BF00BF00BF214683
:1036A000286800F0F4FE10B1DFF8288186E0287861
:1036B00000F0F000E02816D101208DF80400002071
:1036C0008DF805005E208DF80600687800F07F0018
:1036D0008DF80700A8788DF80800E8788DF80900C3
:1036E0000DF1040869E02868A1680840D4E90112D6
:1036F000114088420ED0288880B24FF6A9618842D6
:1037000008D0E06810B104F10C0903E06FF0030089
:10371000BDE8FE833048007800EB40002F4901EB04
:10372000C000007D02281BDB2B48007800EB400026
:1037300001EBC0008068A04212D12749097801EB53
:103740004101264A02EBC101D9F8000049688842CC
:1037500006D1214802783946204600F041F8D7E7E3
:10376000002622E006EB46001C4901EBC000007D6C
:10377000022818DB06EB460001EBC0008068A0427F
:1037800011D106EB4601154A02EBC101D9F8000040
:103790004968884207D110480670324639462046AB
:1037A00000F01EF8B4E7701CC6B20A2EDADB3A4607
:1037B0004946204600F07AF8AAE700BF4FF40060BF
:1037C000434604F1220239460090204600F00CFBEB
:1037D0009EE7000074E80208FC00002084B200208C
:1037E000F8B505460E46144600BF04EB44002E49CA
:1037F00001EBC000007D022801DA00BF00BF00BF5E
:1038000004EB4400284901EBC000007D022839D1B7
:1038100004EB440001EBC000408AB0F58E7F11DD5F
:1038200004EB44000A4602EBC000011D284600F0EC
:1038300083F938BB032004EB44011B4A02EBC101AE
:1038400008751FE004EB4400174901EBC000408AF3
:10385000B0F5877F16DB04EB44000B4603EBC0009A
:1038600000F10C0204EB440003EBC000011D2846EC
:1038700000F06EF930B9032004EB44010A4A02EB70
:10388000C10108754FF40060009004EB4400064944
:1038900001EBC00000F10C0305F12202314628467D
:1038A00000F0A2FAF8BD000084B200202DE9FC5F10
:1038B00081460F46164609F1220001904FF0FF3A6B
:1038C0004FF0000B4946386800F0E1FD38B9387810
:1038D00000F0F000E02802D00FB1386818B96FF09E
:1038E0000F00BDE8FC9F4A4601213846FFF75CFD0A
:1038F0008046B8F1000F02DA4FFA88F0F1E700BF16
:10390000B8F17F0F01D300BF00BF00BF08F0FF0474
:1039100004EB4400584901EBC000007D78B94FF03A
:10392000010B012004EB4401534A02EBC10108756D
:1039300004EB4400114601EBC000C0F8089000BF42
:1039400004EB44004C4901EBC000007D012808D085
:1039500004EB440001EBC000007D022801DA00BF47
:1039600000BF00BFBBF1000F00D1E6B939464846A1
:1039700000F0E2F88246BAF1000F11D104EB4400E6
:103980003D4901EBC000007D012809D1BBF1000FCA
:1039900006D1002004EB4401374A02EBC101488202
:1039A0000EB950469DE700BF0EB900BF00BF00BF73
:1039B00004EB4400304901EBC000007D022811DB1C
:1039C0002E4804704FF40060009004EB440001EBBB
:1039D000C00000F10C0331464846019A00F004FA99
:1039E000824647E004EB4400234901EBC000007D20
:1039F00001283FD100200090354611E000BF6889C2
:103A00002989884203D1286808B100BF00BF00BFE0
:103A1000287B00F0400010B10120009002E02D68EA
:103A2000002DEBD100BF009838B132464FF4207121
:103A30000E2003F044FF054603E03546284604F017
:103A4000E9F8A5B104EB44000B4951F8300030B15E
:103A500004EB4401084A52F8310003F0EFFF04EB95
:103A60004400054941F830504FF0000A01E04FF0A2
:103A7000FF3A00BF504634E784B20020FC0000202B
:103A80002DE9FC5F06460F4690469946DDE90CABF2
:103A90000020019000BF0EB900BF00BF00BF4FF46F
:103AA00020721C210E2003F0E6FD05461DB94FF0E3
:103AB000FF30BDE8FC9F00BF68891C2801DA00BF09
:103AC00000BF00BF6C680F9801F02FFEE08000BFC0
:103AD00096F82800062801D000BF00BF00BFD9F823
:103AE0000000A060B9F80400A081DBF80000C4F871
:103AF0001200BBF80400E082DAF80000C4F80E00FF
:103B00000E980068A0614FF48070208008206080CB
:103B1000062020710420607140F6060043463A46B4
:103B200029460090304600F05FF9284603F086FFF2
:103B300000250198BDE7000070B504460D46034A14
:103B40002946204600F004F870BD000074E8020821
:103B50007FB504460D4616460121074A201D04F193
:103B600022038DE825000391324619462046FFF7CF
:103B700087FF04B070BD00007AE8020870B5002429
:103B800064E004EB4400334901EBC000057D002DE7
:103B90005BD004EB440001EBC000408A401C04EB06
:103BA00044012C4A02EBC101488204EB4400114657
:103BB00001EBC000408AB0F5967F0DDA04EB4400BB
:103BC00001EBC000007D01280AD104EB440001EBA9
:103BD000C000408A052803DB2046FFF7C1FC34E023
:103BE00004EB44001B4901EBC000007D032807D112
:103BF000042004EB4401174A02EBC101087524E0DC
:103C000004EB4400134901EBC000007D042807D1F8
:103C1000022004EB44010F4A02EBC101087514E0D5
:103C200004EB44000B4901EBC000007D01280CD1DE
:103C300004EB44020B4603EBC202111D04EB4402E9
:103C400003EBC2029068FFF777FF641C0A2C98DB35
:103C500070BD000084B200202DE9F84305460E46F1
:103C60001746984600BF95F82800062801D000BFE7
:103C700000BF00BF5EB1306848B12946306800F02F
:103C800006FC20B9307800F0F000E02803D16FF096
:103C90000F00BDE8F8832A4641463046FFF784FB13
:103CA0000446002C01DA60B2F3E7022004EB440181
:103CB0001B4A02EBC101087504EB4400114601EBFD
:103CC000C000856004EB440001EBC0003968C160AE
:103CD000B9880182002004EB440102EBC101488253
:103CE00004EB4400114651F83000B0B104EB44003D
:103CF00051F83090002004EB440142F831004FF4B9
:103D000000603B4605F1220249460090284600F03B
:103D10006BF8484603F092FE00BF0020B9E70000B0
:103D200084B200202DE9F04104460E464FF00E0803
:103D300060890E2800DC4FE0E07B18B996F82C0073
:103D4000401CE0736568AF89287800F00100B0B1CD
:103D50002878012809D1687888B9A8785E280ED11A
:103D6000607B40F01000607309E006221D49284680
:103D7000FCF7EAFA18B9607B40F008006073082F7E
:103D800003D0B7F5C16F22D110E096F8290000F0FA
:103D9000080000B920E04146204603F051FF00B181
:103DA0001AE03146204600F091FC11E096F8290017
:103DB00000F0080000B90FE04146204603F040FF44
:103DC00000B109E031462046FFF7EAFB00E003E0DE
:103DD00000BF0020BDE8F081204603F02FFE002048
:103DE000F8E7000074E802082DE9F04705460E46A2
:103DF00017469846DDF82090484601F096FC82462A
:103E00000E21304603F0FAFB00B11BE07468A4F801
:103E10000CA0D8F800002060B8F80400A080386832
:103E2000C4F80600B888608100BF95F8280006280D
:103E300001D000BF00BF00BF31462846AA699047A5
:103E4000BDE8F0876FF00100FAE7000070B50446A6
:103E5000042002F06DFD054615B94FF0FF3070BD2E
:103E600000BF0CB900BF00BF00BFE561732084F83C
:103E70002A0074212B200155054860610548A06186
:103E8000204601F0E7F904F1220028600020E6E76F
:103E90007536020895540208054600262C4628E08F
:103EA00000235A1E19461348006809F0ABFE01288A
:103EB0001FD109F077F900BF204601F069FA0646E4
:103EC00009F0B2F9AEB109F06DF921463046226928
:103ED000904720B1304603F0B1FD002607E00023F3
:103EE0001A4619460348006809F08CFEE4E709F019
:103EF0009BF9D5E7080100202DE9F84F05460E464D
:103F0000DDB1AF69002F12DA04F067FD8146A869C0
:103F1000002808DA16B9A869401EA861484604F0CE
:103F200085FDBDE8F88FAF69484604F07FFD38464F
:103F300000F050F904460CB9F3E7F2E74FF001083E
:103F400004F04BFD8146052E24D2DFE806F0030E77
:103F5000151C20002089401C00B22081B4F9080003
:103F6000012801DD4FF0000819E02089401E00B251
:103F700020814FF0000812E0608908B14FF000087E
:103F8000012060810BE000206081804607E0012075
:103F9000A08104E000BF00BF00BF00BF00BF00BFA2
:103FA000A07B00B3B8F1000F1DD0B4F908000028C1
:103FB00001DD012000E000208246608908B1012077
:103FC00000E000208346A08908B1012000E0002025
:103FD0000090484604F02AFD5A4651463846009B58
:103FE00004F0E4FB02E0484604F020FD00BF98E73F
:103FF00013B50C464FF47A73012269460248FEF766
:104000002BFB00981CBD00004804002010B50028C0
:1040100021D0114B0022001F196803E0814203D810
:104020000A4649680029F9D152B11368841A9C42A2
:1040300004D1006818441060104602E0506000E0AF
:10404000186039B102680B1A934203D10B681A4405
:1040500002604968416010BDA00100202DE9FC41CB
:1040600005460C4604F0B9FC07466B4601AA2146FA
:10407000284600F01FF80646384604F0D7FC26B163
:104080006A462046019900F002F8BDE8FC8170B54F
:1040900006460D461446206838B11EB1206803F06C
:1040A000CDFC02E0206802F005FE15B1284602F0C2
:1040B000A3FE70BD10B50446606818600020606003
:1040C0002068106000202060012010BD0146D1F85A
:1040D00000221078D1F80C224AB1D1F80022521CEB
:1040E000C1F80022D1F80C22521EC1F80C22D1F8DE
:1040F0000832D1F800229A4201D1C1F8001270476B
:10410000F0B505460C4626E02846FFF7DFFFCD2830
:104110001FD1D5F800020678AB2E06D12846FFF74E
:10412000D5FF4AF6CD30208016E0AE2E06D12846C7
:10413000FFF7CCFF4AF6CD6020800DE0A52E06D11A
:104140002846FFF7C3FF4AF2CD50208004E000204C
:10415000F0BD0020FCE7D7E700BF00BFD5F80C0298
:104160000028FBD0284600F027F86080002708E0F0
:10417000D5F80C0228B12846FFF7A8FF211DC85525
:104180007F1C6088B842F3D8042707E0D5F80C02FA
:1041900020B12846FFF79AFF781EC7B2002FF5D14D
:1041A00000BFD5F80C020228FBD3284600F004F823
:1041B000A4F88E002046CBE770B504462046FFF7F2
:1041C00085FF05462046FFF781FF064645EA0620A3
:1041D00070BD000070B50546284608F027FD04466E
:1041E00034B900BF09200349086000BF002070BD3A
:1041F0002046FCE72001002070B505460C4622460B
:104200000321284600F0D0F870BD00002DE9FF5FC3
:1042100005468A4663488068039003980078000743
:10422000860E142E00DAB3E06889042800D2AFE0CD
:104230006868047814B1082C7ED100E0A3E0DFF8B0
:10424000649109F114095748007D00F0F000E0285E
:1042500000D1A1E0534A1168506900F018F900B18B
:104260009AE02889082800D292E0284600F0E4F875
:1042700020B1284603F0E2FBBDE8FF9F06F10E01E6
:10428000284603F0BBF9A0B3288930441FFA80FB0D
:104290002889584500DD7FE04FF4207259460E20F2
:1042A00003F0E9F9074607B976E0798906F10800D5
:1042B000814203D2384603F0C1FB6DE03246786894
:1042C0000399FCF70FF83146384603F0B9FC38B1D2
:1042D00000BF00BF00BF00BF384603F0AFFB5BE08C
:1042E0002946384603F006FB20B1384603F0A6FB0A
:1042F00052E004E0284603F0A1FB3D460AE006F147
:104300000E01284603F09CFC20B100BF00BF00BF97
:1043100000BF41E0D5F804803146284603F06EF92D
:10432000F0B96F68D9F80000F8601E48006938617C
:10433000002088F8000000E013E0A8F80200FF2049
:1043400038720020788101200021FF230A46CDE940
:10435000010A00914946284600F0A0FA834600BFB2
:1043600011E0032C0ED00B2C0CD00C2C0AD0042CFA
:1043700008D0052C06D00D2C04D00E2C02D0112C08
:1043800000D000BF00BF00BF284603F057FB73E713
:10439000284603F053FB6FE7284603F04FFB00BFAE
:1043A0006AE70000586600202DE9FF470746884667
:1043B00091464FF420722421222003F05CF9044638
:1043C0000CB9BDE8FF8700BF6089242801D200BF77
:1043D00000BF00BFD7F804A0656885F8008085F8A5
:1043E0000190002068607968626802F108001C2270
:1043F000FBF778FFDAF80C00039003A800F0F2FB5B
:1044000006465EB10020688001200021FF2303AA38
:10441000CDE901060091204600F040FA204603F065
:104420000DFB00BFCDE770B505460C4622460B21BB
:104430002846FFF7B9FF70BDF0B5064600270024F7
:10444000354619E06989686802F0EEF80444A0B2C4
:1044500000EB1444688900EBD0714910A0EB4101D6
:1044600049B10FB9012000E000200746E0B2C4F3D3
:10447000072141EA00242D68002DE3D127B1E0B2E5
:10448000C4F3072141EA0024E04380B2F0BD18B52F
:1044900002460092D04300B10AB9012018BD91F83C
:1044A000290000F0020008B90020F7E748689042B0
:1044B00001D10020F2E700988B681840D1E901345F
:1044C0002340984208D1886822EA00008C68E343C0
:1044D000984201D10120E1E70020DFE72DE9F74F05
:1044E0008CB004460F464FF00008398CA1F114003F
:1044F000C11700EB5171C1F3CF0A14200590606819
:104500000990DDF8249099F8000000F00F001421C4
:10451000B1EB800F04D06FF005000FB0BDE8F08F55
:1045200000BF6089142802DA6FF00500F5E700BFCC
:10453000B9F8060001F0F9F804900498C0F30C00F3
:104540000790049800F400500390208914381FFA53
:1045500080FBAFE04FF6FF7000EACA00584501DD6E
:10456000584603E04FF6FF7000EACA0008904FF487
:10457000207214210E2003F07EF8054605B99FE055
:1045800000BF6889142801DA00BF00BF00BF1422F1
:1045900068680999FBF7A6FED5F8049008980A9078
:1045A0004DE061890598081A80B2029000BF6189C8
:1045B0000598814201DA00BF00BF00BF02990A9846
:1045C000884201DA0A9800E002988046B8F1000FAC
:1045D00003D100200590246831E000F015FC064668
:1045E0001EB9284603F02AFA6AE061680598084473
:1045F000334641224146CDE90008002003F007F987
:104600000B900B9830B9304600F003FC284603F0BD
:1046100015FA55E0204603F0FDFA74612A4830612E
:1046200028460B9903F01CF90A98A0EB080080B209
:104630000A900A9810B100200590246800BF0A98DB
:104640000028AED10598404480B20590388C1438CB
:10465000584501DB012000E0002006900798C0F3D8
:104660000C000490069808B1039818B1049840F41F
:1046700000500490049801F058F8A9F80600089931
:10468000143188B201F051F8A9F802000020A9F80D
:104690000A007B69294638460E9A9847284603F057
:1046A000CDF90898ABEB00001FFA80FB0798504447
:1046B00080B20790BBF1000F7FF44CAF00202CE7D5
:1046C0004FF0FF3029E70000255202082DE9F0479E
:1046D00007460E467D6828780421B1EB201F05D0DF
:1046E000384603F0ABF90020BDE8F08728780007D2
:1046F0004FEA9068688801F018F881463989494581
:1047000003DD4946384603F03CFA7889404505DB2D
:104710003889484502DBB8F1140F04DA384603F053
:104720008DF90020E0E728694D494861E868086193
:104730000846007D00F0F000E0280AD196F8290034
:1047400000F0010018B1706808B134461CE0002484
:104750001AE0304600F088F808B1344614E000242E
:104760003F48007D7F280FD03E48046809E0B442EE
:1047700000D105E0204600F077F800B103E000BF6B
:104780002468002CF3D100BF354908693146FFF792
:104790007EFE28B93248007C00F0F000E02804D109
:1047A000384603F04BF900209EE724B9384603F061
:1047B00045F9002098E7E8884FF63F71084038B186
:1047C000384600F0FBF807460FB900208CE77D68FB
:1047D000234804604660856028780007800E2049E1
:1047E00088814146384603F02BFA687A01280DD0BB
:1047F000062806D011280ED13146384608F0DCFADA
:1048000022E03146384605F029F81DE031463846A9
:10481000FFF7FCFC18E0124948692146FFF737FE14
:1048200070B90F48007D00F0F000E02808D00FFAC2
:1048300088F1384603F07CF902213846FFF7DCFCAA
:10484000384603F0FBF800BF00BF002004490860B1
:104850004860886088810861486100BF44E70000C3
:10486000586600209400002010B5044694F82900F2
:1048700000F0010070B1606860B10748406961688C
:10488000884205D0044948692146FFF700FE08B177
:10489000012010BD0020FCE7586600202DE9FE4FE6
:1048A00007460C4615469846DDE90C9A0E9EA3462F
:1048B00025B10CB1206808B906F1040B43462A461D
:1048C00059463846CDE9009A029600F003F8BDE853
:1048D000FE8F00002DE9F84F05460F4690469A4698
:1048E000DDF828B00C9E00BFA87B012801D000BFD6
:1048F00000BF00BFB8F1000F3FD04FF014091421E2
:10490000284602F07BFE18B16FF00100BDE8F88F79
:104910006C6800BF6889142801D200BF00BF00BFC7
:1049200084F808A00B986072D8F80000206148460F
:104930004FEAE97109EB9171C1F3870141F0400140
:10494000217084F801B0288900F0EFFE608000201B
:10495000E0801848008800F0E8FEA0801548008834
:10496000401C144908801FB913480068E06001E04A
:104970003868E0600020608109E06889142802DA64
:104980006FF00100C2E76C6820690090E846308C47
:1049900048B12889318C884205DD42463146284697
:1049A000FFF79CFDB2E742462946304673699847B7
:1049B000ACE70000FE0000206CE802082DE9F14F92
:1049C00084B004984568287800F00F001421B1EBFA
:1049D000800F00D0FCE0E88800F0A7FEC0F30C00D8
:1049E0004FF6FF7101EAC00A688800F09EFE074694
:1049F00028780007810E02910299B94200DDE7E0B4
:104A00000298381A87B2049802F050FF064673489D
:104A1000018888190A280ADD3146284600F098FBEB
:104A200020B16E48008830440A2800DDD0E06C4890
:104A3000046811E06069E968884209D1A0692969C0
:104A4000884205D1A089A988884201D1012000E0CF
:104A5000002000B102E02468002CEBD100BF34B983
:104A60003146284600F0DEFA044694B9B0E0E88802
:104A700000F05BFEC0F30C0058B9E08900F055FE71
:104A8000C0F30C0028B11422294604F10800FBF7FA
:104A900029FCE888012121EA50100190019850B1C9
:104AA0000AEB070188B2504503DB4FF6EB718842F1
:104AB00000DD79E000BF2046019A049900F0B5F9C5
:104AC00083460BF1010000B96EE044480088304491
:104AD00042490880019840B10AEB070188B2A083DF
:104AE000A17F41F00101A17700BFBBF1010F59D1B6
:104AF000A08B143080B2009060684068D0F80090BD
:104B000060684568142204F108012846FBF7EAFBB7
:104B1000009800F00AFE68800020E88068816068E4
:104B200004900DE0D9F8040003901421484603F0E6
:104B300087F84946049802F093FE0398D0F8009055
:104B4000B9F1000FEED126480068844202D14FF03F
:104B500000080EE02248D0F8008006E0D8F80000F7
:104B6000A04200D104E0D8F80080B8F1000FF5D1E0
:104B700000BF4146204600F03BFA049802F096FE42
:104B8000064600BF15480088B04201DA00BF00BFEA
:104B900000BF12480088801B10490880049805B0A7
:104BA000BDE8F08F0020FAE700BF0CB900BF00BFDE
:104BB00000BF606858B900BF09480068844201D04E
:104BC00000BF00BF00BF0021204600F011FA00BF67
:104BD000049802F033FF0020E1E700000401002008
:104BE0000001002010B502462148016821E091F83B
:104BF000290000F00100D8B191F82900C0F380002D
:104C0000B0B14868A0B110688B681840D1E9013490
:104C10002340984201D1084610BD91F8290000F0C8
:104C2000020028B91068CB68984201D10846F3E722
:104C300009680029DBD10F480068A0B10D48006861
:104C400090F8290000F0010068B10A48006890F867
:104C50002900C0F3800030B106480068406810B1F8
:104C600010787F2801D10020D6E702480068D3E7FA
:104C700094000020980000202DE9FF470646884652
:104C80006F46347800BFFBF729FB0068005D2028E1
:104C900003D0002004B0BDE8F08700254FF00A09DA
:104CA000302C0ED1701C06460478782C01D0582C7C
:104CB00005D14FF01009701C0646047801E04FF052
:104CC000080900BFFBF70AFB0068005D202807D138
:104CD000A4F1300005FB0905701C06460478F1E7D5
:104CE000B9F1100F1CD1FBF7F9FA006810F804A015
:104CF0008AEA8A0000F0800090B1FBF7EFFA0068C2
:104D0000005D00F0080008B1612100E0412104F1DC
:104D10000A00401A40EA0515701C06460478D1E7DF
:104D200000BF00BF2E2C09D103A8874201D3002069
:104D3000B0E720C7701C06460478A4E700BF00BF98
:104D400044B1FBF7CBFA0068005D00F0010008B940
:104D500000209FE76846381A012101EBA0000528D2
:104D600042D2DFE800F0030506142800002091E796
:104D70003FE0B5F1807F01D300208BE70098FF284A
:104D800001D9002086E7009845EA006531E0B5F5D5
:104D9000803F01D300207DE70098FF2802D80198CA
:104DA000FF2801D9002075E700980006019940EA24
:104DB000014005431DE0FF2D01D900206AE700985E
:104DC000FF2805D80198FF2802D80298FF2801D9AA
:104DD00000205FE700980006019940EA014002992F
:104DE00040EA0120054304E000BF00BF00BF00BF50
:104DF00000BF00BFB8F1000F04D0284600F088FCC7
:104E0000C8F80000012045E710B5052001F040FF7B
:104E100010BD10B5044600BF0CB900BF00BF00BFF5
:104E20002146052001F0FAFE10BD2DE9F74F84B0B0
:104E300006468846002501200190D8F8040002901B
:104E40000299488800F071FC8346029800780007B8
:104E5000800E03900398584503DD681E07B0BDE837
:104E6000F08F0398ABEB00001FFA80FB0299C88813
:104E700000F05BFCC0F30C004FF6FF7101EAC00AC2
:104E800000BF00BFD8F8044000202060A4F804A0B0
:104E90000AEB0B00E080E088504502DA4FF0FF306B
:104EA000DCE7D6F804903EE0D9F80470A088B98811
:104EB000884220DAC4F800909DB1A088E988884231
:104EC00003DBE088B988884202DD4FF0FF30C5E798
:104ED000C5F80080E888A18888420BD000200190A6
:104EE00008E0E088B988884202DD4FF0FF30B5E77E
:104EF000C6F804801AE0A088B988884202D14FF031
:104F0000FF30ABE7A088F988884202DA4FF0FF3023
:104F1000A4E72DB1E888B988884201D0002001902B
:104F2000D7F800903D46B9F1000FBDD100BFB9F1EF
:104F3000000F19D185B100BFE888A188884201DD42
:104F400000BF00BF00BFC5F80080E888A188884284
:104F50000AD00020019007E000BF706808B100BFD0
:104F600000BF00BFC6F80480069818B9B07F00F0F3
:104F70000100C0B3019890B3706818B170684068C0
:104F8000808810B10020019029E02546D4F80090D7
:104F90000BE0D9F80440E888A188884202D00020BC
:104FA000019005E02546D4F80090B9F1000FF0D14A
:104FB00000BF019898B100BF706808B900BF00BF7A
:104FC00000BF00BF70684068A04201D100BF00BFB1
:104FD00000BF00BF206808B100BF00BF00BF01983C
:104FE00010B101203AE701E0002037E7002035E763
:104FF00070B504460D460A480068A04203D108492E
:105000002068086006E000BF0DB900BF00BF00BF08
:10501000206828602146042001F000FE70BD0000D9
:105020000001002070B505460E46042001F030FE58
:10503000044664B93146284600F08AF8B04203DBE2
:10504000042001F025FE04460CB9002070BD20218B
:105050002046FBF76EF90F20E077064800682060D5
:10506000044804601422294604F10800FBF73AF9C9
:105070002046EBE7000100202DE9F0470446884672
:10508000002500BFA04501D100BF00BF00BFB8F19F
:10509000000F07D000BFD8F80000A04201D000BF29
:1050A00000BF00BF6068D0F80490B9F80400F0B900
:1050B0006768D9F800006060142204F1080178687C
:1050C000FBF710F901213846FFF7ADF9384602F039
:1050D000EDFB064600BFA819B0F5803F01DB00BF1D
:1050E00000BF00BFA81985B2384602F0A7FC676868
:1050F00016E0D7F80490BA46D9F80070504602F08E
:10510000D5FB064600BFA819B0F5803F01DB00BF04
:1051100000BF00BFA81985B2504602F08FFC00BF47
:10512000002FE6D141462046FFF762FF00BF074847
:105130000088A84201DA00BF00BF00BF0348008812
:10514000401B024908802846BDE8F0870401002082
:105150002DE9F84F05468946002700BF0026B246D4
:105160000020009083461B48046821E06069E968DC
:10517000884207D1A0692969884203D1A089A988FA
:10518000884201D0012000E0002068B10BF1010B42
:105190001EB92646CDF800A006E0E07FF17F8842E8
:1051A00002DC2646CDF800A0206800B1A2462468A3
:1051B000002CDBD12EB130460099FFF75DFF804611
:1051C00047444F4502DABBF1010FC7DC3846BDE862
:1051D000F88F00000001002070B500250A4804681F
:1051E0000FE0E07F002805DDE07F401EE0772546E8
:1051F000246806E02646246829463046FFF73CFF2F
:1052000000BF002CEDD170BD0001002038B5044670
:1052100069462046FFF730FD08B1009838BD4FF0D1
:10522000FF30FBE770B505462C4600BF0CB900BF48
:1052300000BF00BF00BFAC4201D000BF00BF00BF35
:10524000606910B1606902F0F9FB2046FFF7E1FDEB
:1052500070BD000038B50446FBF7E8F805462DB9E7
:1052600094F8290040F0040084F82900062084F80E
:1052700028003F484069007884F822003C48406993
:105280004178232001553A4840698178242001550E
:1052900037484069C1782520015535484069017972
:1052A000262001553248406941792720015540F2B6
:1052B000DC50208494F8290040F00A0084F829008A
:1052C0000021282008F00CFC2A49086000212A4807
:1052D00003F056FC00B900BF3221284803F0F5FB6B
:1052E00000B900BF03204FF4806322462449009098
:1052F00024A003F089FC002206213D20FCF707FDD5
:105300003D20FCF7F0FC00BF00BF002000901F48CC
:10531000006840F000701D4908600846006800F011
:105320000070009000BF00BF00BF00200090084642
:10533000006840F0806008600846006800F0806007
:10534000009000BF00BF00BF00200090084600682A
:1053500040F0006008600846006800F000600090BF
:1053600000BF00BF00BF0248FCF7D8F838BD0000FE
:1053700090040020080100200C01002010010020F2
:10538000993E0208455448494E000000303802401A
:105390002DE9F84F4FF000080026B3460024A2463E
:1053A0000027002000903A48FBF7A1FD10B1002033
:1053B000BDE8F88F3648808F1FFA80FB3448D0F85C
:1053C0004090BBF1000F06DD4FF4C172594600203A
:1053D00002F051F98046B8F1000F2FD02C48056B30
:1053E0000024464628E077894FF0000A15E040F295
:1053F000F4531A1B09EB0401736803EB0A00FAF774
:1054000071FFED68D5F8089040F2F450001B3F1A88
:1054100040F2F450001B82440024381940F2F45149
:105420008842E4D809EB0401726802EB0A003A46AC
:10543000FAF758FF3C443668002ED4D11448056B67
:105440000020009007E0286840F000402860ED68E8
:105450000098401C00900E48816B00988142F2D861
:1054600000210B488163006800F58050406900F01E
:10547000800058B180210648006800F580504161E5
:1054800000210348006800F58050816040468FE7A6
:10549000900400202DE9F35F3E48006830B90021F8
:1054A0003C4803F06DFB3B4803F09BFB3A48C06A65
:1054B000D0F808B03848C76A4FF000090024002629
:1054C000A246386800F0004010B16FF0070847E0CE
:1054D0000021304803F086FA019D39E06E894FF0D3
:1054E000000A22E040F2F4531A1B6B6803EB0A0136
:1054F0000BEB0400FAF7F6FEFF68386800F0004096
:1055000010B16FF007082BE0D7F808B040F2F45064
:10551000001B361A40F2F450001B824440F2F45053
:10552000001B48441FFA80F90024301940F2F4515E
:105530008842D7D86A6802EB0A010BEB04003246B6
:10554000FAF7D0FE344409EB06001FFA80F92D6803
:10555000002DC3D149461048FCF709F8A84600BF02
:105560000D48006800F58050406900F0200058B1F7
:1055700020210948006800F580504161002106485B
:10558000006800F580504160024803F02AFB404665
:10559000BDE8FC9F14010020900400202DE9F0419B
:1055A000064600273046FEF715FE044614B9781E5D
:1055B000BDE8F081206850B12068007800F0F0006C
:1055C000102801D1012000E00020074605E000BFBF
:1055D000606808B100BF00BF00BF206801F036FD61
:1055E00005466DB100BF2846FDF7B2FE20B1284642
:1055F000FDF7AEFE0649086000BF4FF0FF30D7E769
:1056000039462046FEF72AFD00BF00BF0020CFE745
:10561000200100202DE9F84380460C4617464046FD
:10562000FEF7D8FD06461EB94FF0FF30BDE8F883FF
:1056300000BF607820B9306801F0EEFB05462AE033
:1056400000BF102F07D1607810B16078022802D116
:1056500004F0030078B100BF6FF00F00FDF778FE93
:1056600028B16FF00F00FDF773FE1449086000BF0A
:105670004FF0FF30DAE700BF00BF6068009060883D
:1056800000F053F8814600BF4A466946306801F091
:1056900095FB054600BF6DB100BF2846FDF758FEDB
:1056A00020B12846FDF754FE0449086000BF4FF0C2
:1056B000FF30BBE700BF00BF0020B7E7200100209C
:1056C0002DE9F041044625466868804703F046FA14
:1056D00006460D49286809684718B81BB0F1004F05
:1056E00001D3012000E0002030B12968881922464A
:1056F000064903F0D3FA04E022460449384603F091
:10570000CDFABDE8F0810000EC000020C15602088F
:105710000146080601F47F4240EA022001F47F02BC
:1057200040EA122040EA1160704701460806000C6A
:1057300040EA1120704708B50020009000BF68467D
:10574000804201D000BF00BF00BF00BF00BF03F018
:105750009DF901F089F801F075FA01F0BBFE07F040
:1057600029FB04F079F803F0E5FA08BD70B50546A9
:105770002C462068467820684068002848D0206879
:10578000007800F0F000102842D1207A032801D0E0
:10579000022E3DD0032E02D1F52020713AE0012ED9
:1057A00002D1FB20207135E0207A00F0010010B119
:1057B000206801F045FB00BF2068006A08B100BF07
:1057C00000BF00BF042021684870206804620021E7
:1057D000206800F023F8D0B100BF2068407804288A
:1057E00001D000BF00BF00BF0B4803F0AEF9216835
:1057F00001F10C00002103F0F5F8074803F08FF9E0
:1058000000BF2068407808B100BF00BF00BF70BD76
:10581000F520207100BFFAE74C0000202DE9FC5F65
:1058200004468B460020019000BF0CB900BF00BFAA
:1058300000BF00BF207800F0F000102801D000BFAA
:1058400000BF00BF00BF6078042801D000BF00BFC8
:1058500000BF00BF606808B900BF00BF00BF00BF45
:10586000206A08B900BF00BF00BF6768206A90F8CF
:1058700008A00AF001090AF00208BAF1030F01D1E9
:10588000012517E0B9F1000F0AD0387D052805D0B1
:10589000387D062802D0387D082801D1012509E08D
:1058A000B8F1000F05D0B87E00F0100008B1012556
:1058B00000E000251DB10021384603F063FB387D70
:1058C000012804D10021384603F0F5FA1BE0B9F1B4
:1058D000000F07D00021384605F024FF002138468C
:1058E00003F0E9FAB8F1000F03D00021384606F0C2
:1058F0004FF945B100221146384605F09FF80021C6
:10590000384603F0AAFE25B1384603F0BDFB064633
:1059100005E042464946384606F044F9064616B9BF
:10592000012001900EE0701C50B9206A407A48B9FD
:105930000120019035B1384603F0B6FA002601E0A7
:1059400001200190019878B3206A00680C30009023
:10595000206A0671002020626070E6B93DB1606087
:10596000606A20B1002204212046636A9847B9F199
:10597000000F06D0606A20B1002211462046636AFB
:105980009847B8F1000F06D0606A20B100220221CA
:105990002046636A9847BBF1000F02D0009803F0DD
:1059A00020F90020BDE8FC9FFFE70198D0B900BFB7
:1059B000387D012801D100BF00BF00BFB8F1000F42
:1059C00003D00C49384606F0E3F801220A4938466C
:1059D00005F034F80949384603F03FFE21463846C1
:1059E00003F0D0FA00BF0EB900BF00BF00BF3046C1
:1059F000D8E70000B5880208D97D020849320208BC
:105A00002DE9F041064634462068406810B96FF031
:105A10000E0571E02068007800F0F000102809D031
:105A2000202861D1A2892368A168586807F074F919
:105A3000054660E020684078032802D16FF0080531
:105A400051E02068407810B16FF009054BE0206804
:105A500002F06AFFA2892368A1685868284B03F006
:105A600013FC0546002D3ED12068007FC0F340079F
:105A700003202168487000BF3FB100BF2068007F4D
:105A800040F004002168087707E000BF2068007F2D
:105A900000F0FB002168087700BF00BF17B16FF06E
:105AA00004051FE02068046200BF206840780328D6
:105AB00001D000BF00BF00BF124803F046F82168C4
:105AC00001F10C00002102F08DFF0E4803F027F8D1
:105AD00000BF20684078032801D100BF00BF00BF8D
